:020000040800F2
:100000009006002085020008690200086B020008C3
:100010006F02000873020008770200080000000069
:100020000000000000000000000000007B0200084B
:100030007D020008000000007F0200088102000825
:100040009F0200089F0200089F0200089F0200080C
:100050009F0200089F0200089F0200089F020008FC
:100060009F0200089F0200089F0200089F020008EC
:100070009F0200089F0200089F0200089F020008DC
:100080009F0200089F0200089F0200089F020008CC
:100090009F0200089F0200089F0200089F020008BC
:1000A0009F0200089F0200089F0200089F020008AC
:1000B0009F0200089F0200089F0200089F0200089C
:1000C0009F0200089F0200089F0200089F0200088C
:1000D0009F0200089F0200089F0200089F0200087C
:1000E0009F0200089F0200089F0200089F0200086C
:1000F0009F0200089F0200089F0200089F0200085C
:100100009F0200089F0200089F0200089F0200084B
:100110009F0200089F0200089F0200089F0200083B
:100120009F0200089F0200089F0200089F0200082B
:100130009F0200089F0200089F0200089F0200081B
:100140009F0200089F0200089F0200089F0200080B
:100150009F0200089F0200089F0200089F020008FB
:100160009F0200089F0200089F0200089F020008EB
:100170009F0200089F0200089F0200089F020008DB
:100180009F0200089F02000800F002F800F03CF80F
:100190000AA090E8000C82448344AAF10107DA45E2
:1001A00001D100F031F8AFF2090EBAE80F0013F0F8
:1001B000010F18BFFB1A43F001031847780B00002A
:1001C000980B0000103A24BF78C878C1FAD85207BB
:1001D00024BF30C830C144BF04680C6070470000C1
:1001E0000023002400250026103A28BF78C1FBD840
:1001F000520728BF30C148BF0B6070471FB500F0E1
:1002000094FD1FBD10B510BD00F059FD1146FFF75C
:10021000F5FF00F009F800F077FD03B4FFF7F2FFF7
:1002200003BC00F07BFD00000C48006840F020009B
:100230000A4908604FF4004009490860012008712C
:100240000020887103204871064800F0A9F84FF497
:100250000041044800F020F900BFFEE730380240BA
:100260000000002000140240704700BFFEE700BFFE
:10027000FEE700BFFEE700BFFEE77047704770472C
:10028000704700000948804709480047FEE7FEE73D
:10029000FEE7FEE7FEE7FEE7FEE7FEE7FEE7FEE736
:1002A00004480549054A064B70470000850B0008C5
:1002B0008901000890000020900600209002002094
:1002C0009002002010B504468C48844208D10121D8
:1002D000084600F000FB0021012000F0FCFA5EE07F
:1002E0008748844208D10121022000F0F4FA00215D
:1002F000022000F0F0FA52E08248844208D1012145
:10030000042000F0E8FA0021042000F0E4FA46E0BE
:100310007D48844208D10121082000F0DCFA002148
:10032000082000F0D8FA3AE07848844208D1012148
:10033000102000F0D0FA0021102000F0CCFA2EE0BE
:100340007348844208D10121202000F0C4FA002122
:10035000202000F0C0FA22E06E48844208D101213A
:10036000402000F0B8FA0021402000F0B4FA16E076
:100370006948844208D10121802000F0ACFA0021B4
:10038000802000F0A8FA0AE06448844207D10121E5
:10039000801500F0A0FA0021A01500F09CFA10BD15
:1003A000F0B50A4600210023002400BF3DE00125EE
:1003B00005FA01F3156805EA03049C4234D1056887
:1003C0004F000326BE40B543056015794E00B54089
:1003D0000668354305601579012D02D01579022D87
:1003E00016D185684F000326BE40B5438560557918
:1003F0004E00B540866835438560456801268E40CD
:10040000B5434560456896798E40B6B23543456040
:10041000C5684F000326BE40B543C560D5794E0080
:10042000B540C6683543C560491C1029BFD3F0BD2F
:100430004FF6FF7101600021017141718171C1713D
:10044000704708B54FF480320092009A0A43009238
:10045000009AC261C161009AC261C2690092C26918
:10046000009208BD0246002013690B400BB1012029
:1004700000E0002070470146086980B270470246DC
:10048000002053690B400BB1012000E000207047B1
:100490000146486980B270470183704741837047C5
:1004A0000AB1018300E041837047416170474269AE
:1004B0004A4042617047F0B5002300244D07ED0E1D
:1004C00002FA05F3CE1000F1200555F826504E072C
:1004D000F70E0F26BE40B543CF1000F1200646F8B8
:1004E0002750CE1000F1200555F8265045EA0304A8
:1004F000CE1000F1200545F82640F0BD0000024076
:100500000004024000080240000C024000100240BB
:100510000014024000180240001C0240002002406B
:10052000FA48006840F00100F84908600020F749E7
:1005300008310860F5480068F5490840F34908604B
:10054000F448091D0860081F006820F48020091F76
:1005500008600020ED490C31086070470021EB4A2B
:10056000921C117011460870704710B501460022A8
:10057000002300204A11012A02D1E44C236808E03C
:10058000022A03D1E14C7034236802E0DF4C74345A
:10059000236801F01F02012494401C400CB101208B
:1005A00000E0002010BD38B5002000900024002598
:1005B00000BF3120FFF7D9FF05460098401C00908E
:1005C0000098B0F5A06F01D0002DF2D03120FFF7D8
:1005D000CCFF08B1012400E00024204638BD0146CC
:1005E0000020CA4A106820F0F80040EAC1001060FC
:1005F0007047C949086070470021C44A70321170C1
:100600001170012802D004280AD104E00121BF4A58
:100610007032117005E00521BC4A7032117000E0A3
:1006200000BF00BF7047BD490860704770B5049CAB
:1006300041EA82150126C6EB530645EA0645054305
:1006400045EA0465B14E361D356070BDB249086695
:100650007047820142EA0172AC4B84331A607047E2
:10066000AD4988667047AC49C864704702460020AF
:10067000A64B0833186820F0EC6042EA01031843E7
:10068000A24B083318607047024600209F4B083386
:10069000186820F0784042EA010318439B4B083366
:1006A0001860704701460020984A0832106820F010
:1006B000030008431060704794480830006800F059
:1006C0000C00704701460020904A0832106820F064
:1006D000F000084310607047014600208B4A083242
:1006E000106820F4E0500843106070470146002075
:1006F000864A0832106820F4604040EAC100106069
:100700007047F0B5002100220024022500260223B4
:100710007E4F08373F6807F00C0121B1042905D04E
:10072000082937D105E07E4F076036E07D4F07602E
:1007300033E0764F3F1D3F68C7F38056734F3F1D30
:100740003F6807F03F036EB1764FB7FBF3F7DFF872
:10075000BCC10CF1040CDCF800C0CCF3881C07FB16
:100760000CF40CE06E4FB7FBF3F7DFF8A0C10CF10F
:10077000040CDCF800C0CCF3881C07FB0CF4634FBE
:100780003F1D3F68C7F301477F1C7D00B4FBF5F7B1
:10079000076002E0624F076000BF00BF5B4F083791
:1007A0003F6807F0F00109095F4F7A5C0768D7409E
:1007B0004760564F08373F6807F4E051890A5A4F9F
:1007C0007A5C4768D7408760504F08373F6807F426
:1007D0006041490B544F7A5C4768D740C760F0BD11
:1007E000002100F44072B2F5407F0AD1474A083236
:1007F000116821F4F8114D4A02401143434A08326E
:100800001160424A70321268C0F30B031A433F4B27
:1008100070331A60704741494439086070473F4956
:1008200040390860704742490860704739B1374A1B
:10083000303212680243354B30331A6006E0334AD7
:10084000303212688243314B30331A60704739B10D
:100850002E4A3432126802432C4B34331A6006E0BD
:100860002A4A343212688243284B34331A60704764
:1008700039B1264A383212680243244B38331A60A1
:1008800006E0224A383212688243204B38331A601D
:10089000704739B11D4A4032126802431B4B403346
:1008A0001A6006E0194A403212688243174B4033FF
:1008B0001A60704739B1154A443212680243134B2B
:1008C00044331A6006E0114A4432126882430F4BE7
:1008D00044331A60704739B10C4A1032126802432F
:1008E0000A4B10331A6006E0084A1032126882433D
:1008F000064B10331A607047E1B1044A1432126893
:100900000243024B14331A6019E000000038024021
:10091000FFFFF6FE1030002400004742800E4742E1
:100920000024F40000127A0008000020FFFCFF0FF2
:100930005C0147425B4A126882435A4B1A60704717
:1009400039B1584A121D12680243564B1B1D1A60DA
:1009500006E0544A121D12688243524B1B1D1A6056
:10096000704739B14F4A0C32126802434D4B0C3379
:100970001A6006E04B4A0C3212688243494B0C3332
:100980001A60704739B1474A103212680243454B2A
:1009900010331A6006E0434A103212688243414B1A
:1009A00010331A60704739B13E4A3C321268024334
:1009B0003C4B3C331A6006E03A4A3C3212688243B0
:1009C000384B3C331A60704739B1364A40321268AE
:1009D0000243344B40331A6006E0324A4032126818
:1009E0008243304B40331A60704739B12D4A44324C
:1009F000126802432B4B44331A6006E0294A443202
:100A000012688243274B44331A60704739B1254A34
:100A10004C3212680243234B4C331A6006E0214AE1
:100A20004C32126882431F4B4C331A60704739B105
:100A30001C4A5032126802431A4B50331A6006E0C7
:100A4000184A503212688243164B50331A6070476E
:100A500039B1144AD21F12780243124BDB1F1A70AD
:100A600006E0104AD21F127882430E4BDB1F1A7029
:100A700070470C486030006840F080700949603170
:100A80000860704701460020064A083A12680A408A
:100A90000AB1012000E0002070470249891F087058
:100AA00070470000143802400CB5002001900090FF
:100AB0007648006840F480307449086000BF73488D
:100AC000006800F4003000900198401C01900098EC
:100AD00018B90198B0F5A06FF1D16C48006800F426
:100AE000003010B10120009001E00020009000983B
:100AF000012846D165484030006840F08050634985
:100B0000403108606248006840F4804060490860F5
:100B10005E48083000685D49083108600846006892
:100B200040F4004008600846006840F4A0500860A7
:100B30005848091F0860081F006840F08070091FAE
:100B4000086000BF5148006800F000700028F9D02C
:100B500040F20560504908604C480830006820F0B9
:100B600003004A49083108600846006840F0020066
:100B7000086000BF45480830006800F00C000828F5
:100B8000F8D10CBD10B54548006840F470004349E9
:100B900008603E48006840F001003C4908600020C1
:100BA0003A4908310860394800683D4908403749EA
:100BB00008603C48091D0860081F006820F4802078
:100BC000091F0860002031490C310860FFF76CFFF5
:100BD0004FF0006031498039086010BD70B50020C9
:100BE0000022022300240221284D08352D6805F03B
:100BF0000C0020B1042806D0082834D107E02A4D83
:100C00002A4E356033E02A4D284E35602FE01F4DC7
:100C10002D1D2D68C5F380541C4D2D1D2D6805F02C
:100C20003F0154B1224DB5FBF1F5184E361D366823
:100C3000C6F3881605FB06F209E01B4DB5FBF1F57E
:100C4000124E361D3668C6F3881605FB06F20F4DA8
:100C50002D1D2D68C5F301456D1C6B00B2FBF3F52E
:100C6000124E356003E0104D104E356000BF00BFDE
:100C7000064D08352D68C5F303150E4E705D0B4DFE
:100C80002D68C540094E356070BD00000038024037
:100C90000070004008544007003C024088ED00E02E
:100CA000FFFFF6FE103000240024F400180000209E
:100CB00000127A001C00002070477047704775468C
:100CC00000F028F8AE4605006946534620F00700BC
:100CD000854618B020B5FFF7E3FABDE820404FF095
:100CE00000064FF000074FF000084FF0000B21F016
:100CF0000701AC46ACE8C009ACE8C009ACE8C009E3
:100D0000ACE8C0098D4670470446AFF3008020462A
:100D1000FFF783FA004870472C0000200149182093
:100D2000ABBEFEE72600020070474FF04070E1EED8
:100D3000100A7047540D0008000000202C0000002D
:100D4000C4010008800D00082C000020640600008B
:100D5000E0010008000000000000000000000000AA
:100D6000010203040102030406070809007A030ACA
:100D7000000000000000000001020304060708094B
:040000050800018965
:00000001FF
