:020000040800F2
:1000000090050020D5000008CB140008C714000894
:1000100000000000000000000000000000000000E0
:10002000000000000000000000000000CF140008E5
:100030000000000000000000CD140008D1140008EA
:10004000E7000008E7000008E7000008E7000008F4
:10005000E700000821030008E7000008E7000008A7
:10006000E7000008E7000008E7000008E7000008D4
:10007000E7000008E7000008E7000008E7000008C4
:10008000E7000008E7000008E7000008E7000008B4
:10009000E7000008E7000008E7000008E7000008A4
:1000A000E7000008E7000008E7000008E700000894
:1000B000E7000008E7000008E7000008E700000884
:1000C0000348854600F07CF8004800477D1A000888
:1000D000900500200448804704480047FEE7FEE7FB
:1000E000FEE7FEE7FEE7FEE729150008C10000086D
:1000F00030B50B46014600202022012409E00D46C0
:10010000D5409D4205D31D469540491B2546954047
:1001100040191546521E002DF1DC30BDF0B51FB45C
:100120000646002082B005464024019100901BE065
:10013000019922460F46304600F030F8049A059B9C
:10014000801A994110D310461946224600F016F83D
:10015000361A8F410197224601200021009F00F0AE
:100160000DF838184D4100902046641E0028DFDC51
:10017000019B00982946324607B0F0BD10B5202AF1
:1001800004DB0146203A9140002010BD914020231D
:100190009C1A0346E3401943904010BD10B5202A35
:1001A00004DB0846203AD040002110BD0B46D34066
:1001B000D0402024A21A91400843194610BD0000E7
:1001C000064C0125064E05E0E36807CC2B430C3CAA
:1001D00098471034B442F7D3FFF776FF7C1B000832
:1001E0009C1B000810B504466200044B995AA200FB
:1001F000034B9858002200F05BFA10BD701B0008FA
:100200008400002010B504466200044B995AA200F5
:10021000034B9858012200F04BFA10BD701B0008E8
:100220008400002010B504466200044B995AA200D5
:10023000034B985800F032FA10BD0000701B000804
:100240008400002030B587B004460D4600BF002C66
:100250000FD100BF244840690121490408432249C5
:10026000486108464069012149040840019000BFE7
:1002700000BF00BF00BF1C488069012108431A4924
:10028000886108468069C007C00F019000BF00BFA9
:1002900060001649085A029003200590002D09D1EC
:1002A0000020039002200490A100114A505802A996
:1002B00000F0F8F8012D15D1002004900D480390AE
:1002C000A1000B4A505802A900F0ECF80A49095D58
:1002D00048B20022032100F051FA0749095D48B2F3
:1002E00000F03AFA07B030BD00100240781B000859
:1002F00094000020000011107A1B000810B503467E
:1003000007E018780C78A04201D0104610BD5B1CA5
:10031000491C1046541EA2B20028F2D100BFF5E7D6
:1003200010B5012000F0AEF810BD0020FFF76AFF05
:1003300000BFFEE770B5044600F0C0F9064625464A
:10034000681C002802D0054800782D1800BF00F076
:10035000B5F9801BA842FAD370BD00000C00002044
:10036000F0B50B46002173E001258D402A461A4066
:10037000002A6CD0394D8E08B600AC598D072E0F6F
:100380000F25B5402C400925ED06A84201D10025D6
:1003900014E0334DA84201D101250FE0314DA842B0
:1003A00001D102250AE0304DA84201D1032505E024
:1003B0002E4DA84201D1042500E005258E07360FF9
:1003C000B540A5421DD12A4D2D689543284E356074
:1003D00035466D68954375603546AD689543B560A3
:1003E0003546ED689543F5608D072E0F0F25B54016
:1003F0002C461A4D8E08B600AE59A6438F08BF0092
:10040000EE5105684F000326BE40B5430560CD0898
:10041000AE0005462035AD594E07F70E0F26BE40FB
:10042000B543CE08B60007462037BD51C5684F001A
:100430000326BE40B543C560456801268E40B543DE
:10044000456085684F000326BE40B5438560491C62
:100450001D46CD40002D87D1F0BD000008000140B1
:100460000004004800080048000C00480010004844
:1004700000040140012802D10121014A11607047A6
:100480001000002010B504460548406920400028AF
:1004900004D0034844612046FFF7ECFF10BD000084
:1004A0000004014078B503460022E2E001269640B0
:1004B0000C683440002C7DD04D68012D08D04D686B
:1004C000022D05D04D68112D02D04D68122D18D186
:1004D000986856000325B5400646AE4330465600A0
:1004E000CD68B54028439860586801259540064678
:1004F000AE43304610264D6835402D0995402843BF
:100500005860D86856000325B5400646AE433046CD
:1005100056008D68B5402843D8604D68022D02D042
:100520004D68122D15D1D508AE001D462035A859AD
:100530005507EE0E0F25B5400646AE43304656072A
:10054000F60E0D69B5402843D508AD001E4620368D
:100550007051186856000325B5400646AE43304634
:100560000D79AD07AD0F5600B54028431860012640
:1005700036074D683540B5427AD100BF404DAD6970
:10058000012635433E4EB5613546AD69ED07ED0FA9
:10059000009500BF00BF3B4D9608B600A8599507CF
:1005A0002E0F0F25B5400646AE4330460925ED0611
:1005B000AB4200E05CE001D1002514E0324DAB42DB
:1005C00001D101250FE0314DAB4201D102250AE0F6
:1005D0002F4DAB4201D1032505E02E4DAB4201D199
:1005E000042500E005259607360FB5402843254D24
:1005F0009608B600A851284D28680546A543284608
:10060000012636044D683540B54202D105462543E2
:100610002846214D286068680546A54328460126DE
:1006200076044D683540B54202D10546254328463B
:10063000194D6860A8680546A54328460126360579
:100640004D683540B54202D1054625432846124D36
:10065000A860E8680546A5432846012676054D684A
:100660003540B54202D10546254328460A4DE8608B
:10067000521C0D68D540002D00D017E778BD000052
:100680000010024008000140000400480008004833
:10069000000C0048001000480004014010B54269F9
:1006A00013460B401B040C4694432343836110BD47
:1006B000002A01D0816100E0816270470148006832
:1006C00070470000040000200348006803490978CF
:1006D0004018014908607047040000200C00002009
:1006E00010B506480068102108430449086003203B
:1006F00000F006F800F02EF8002010BD00200240A7
:1007000070B50446104801787D20C000FFF7F0FC6A
:10071000064631460D480068FFF7EAFC054600F042
:10072000B3FC002801D0012070BD042C07D20022A8
:100730002146501E00F022F80548046001E0012027
:10074000F2E70020F0E700000C000020000000208D
:1007500008000020704700000146002909DB00BFA7
:1007600000BFCB06DB0E01229A40034B1A6000BF8C
:1007700000BF00BF7047000000E100E070B5044614
:100780000D4616462946204601F02CF970BD0000A2
:1007900070B504460D46002C01D1012070BD5848AB
:1007A0000068C007C00FA8420ED255480068400834
:1007B000400028435249086008460068C007C00F3F
:1007C000A84201D00120E9E7022120680840022860
:1007D00014D1042120680840042807D14948406802
:1007E0000721090288434018464948604548406847
:1007F000F0218843A1680843424948602078C00737
:10080000C00F002847D06068012808D13D48006823
:10081000012149040840002821D10120BEE7606879
:10082000022808D1374800680121490608400028FD
:1008300015D10120B2E76068032808D13148406B28
:10084000012109040840002809D10120A6E72D480C
:10085000006802210840002801D101209EE72948B4
:100860004068800880006168084326494860FFF7B7
:1008700025FF064607E0FFF721FF801B224988423B
:1008800001D903208AE71F4840680C2108406168AD
:1008900089008842EFD11A480068C007C00FA842FB
:1008A0000ED91748006840084000284314490860E2
:1008B00008460068C007C00FA84201D001206DE7BC
:1008C000042120680840042808D10E484068072108
:1008D00009028843E16808430A49486000F032F899
:1008E00008494968F02211400909084A515CC8408A
:1008F000074908600320FFF703FF00204EE70000D0
:10090000002002400010024088130000581B00081D
:10091000000000200148006870470000000000202F
:1009200000B5FFF7F7FF0549496807221202114099
:10093000090A034A515CC84000BD00000010024093
:10094000681B0008F0B589B035A001460EC9C06823
:1009500005AC0EC4089036A001460EC9C06801ACB3
:100960000EC40490002500240027002600200090DB
:10097000334845680C202840002849D0042804D07A
:10098000082805D00C2842D13EE02E48009042E0D5
:100990000F2080042840800C05A90E5C2848C06AFE
:1009A0000007000F01A90C5C0320C00328400121AF
:1009B000090488420AD12246002322481946FFF73B
:1009C000ADFB314600F0F6FF07461BE00320C003F5
:1009D00028400321C90388420AD1224600231A482D
:1009E0001946FFF79BFB314600F0E4FF074609E09C
:1009F0002246002313481946FFF790FB314600F0CA
:100A0000D9FF0746009706E00F48009003E000BFBB
:100A10000C48009000BF00BF009809B0F0BD000076
:100A200002030405060708090A0B0C0D0E0F10102F
:100A30000102030405060708090A0B0C0D0E0F102E
:100A40000010024000127A00006CDC02FEB5044681
:100A5000002C01D10120FEBD2078C007C00F002866
:100A600072D0FC4840680C21084004280CD0F9489A
:100A700040680840082813D1F648406849030840F8
:100A80000121090488420BD1F24800680121490480
:100A9000084000286BD06068002868D10120DAE7A0
:100AA00000BF6068012807D1EA48006801210904F5
:100AB0000843E849086031E0606800280ED1E54845
:100AC0000068012109048843E2490860084600687B
:100AD000012189048843DF4908601FE06068052818
:100AE0000ED1DC480068012189040843D949086017
:100AF00008460068012109040843D64908600DE052
:100B0000D4480068012109048843D2490860084696
:100B10000068012189048843CE49086000BF6068ED
:100B2000002812D0FFF7CAFD054606E0FFF7C6FD14
:100B3000401B642801D903208DE7C64800680121C5
:100B4000490408400028F1D011E0FFF7B7FD054641
:100B500006E0FFF7B3FD401B642801D903207AE7C4
:100B6000BC4800680121490408400028F1D1022155
:100B700020680840022862D1B64840680C2108402D
:100B800000280CD0B3484068084008281CD1B14860
:100B90004068490308400121C903884214D1AD4887
:100BA000006802210840002804D0E068012801D034
:100BB000012050E7A7480068F82188432169C9004F
:100BC0000843A44908603AE0E068002820D0A14822
:100BD0000068012108439F490860FFF76FFD054643
:100BE00006E0FFF76BFD401B022801D9032032E726
:100BF00098480068022108400028F2D09548006813
:100C0000F82188432169C90008439249086016E029
:100C100090480068400840008E490860FFF74EFD8C
:100C2000054606E0FFF74AFD401B022801D90320D4
:100C300011E788480068022108400028F2D1082105
:100C400020680840082831D1E069002817D0814881
:100C5000406A012108437F494862FFF72FFD05469E
:100C600006E0FFF72BFD401B022801D90320F2E626
:100C70007848406A022108400028F2D016E0754802
:100C8000406A4008400073494862FFF717FD054677
:100C900006E0FFF713FD401B022801D90320DAE626
:100CA0006C48406A022108400028F2D104212068E3
:100CB0000840042872D1002001906648C069890666
:100CC000084000280ED100BF6248C069084361494E
:100CD000C8610846C06909040840009000BF00BF11
:100CE000012001905C480068FF2101310840002884
:100CF00016D159480068084357490860FFF7DEFCE1
:100D0000054606E0FFF7DAFC401B642801D9032002
:100D1000A1E651480068FF21013108400028F1D0C8
:100D200000BFA068012806D14A48006A0121084393
:100D3000484908622AE0A06800280BD14548006AAB
:100D40004108490043480162006A0421884341493F
:100D500008621BE0A06805280CD13E48006A042107
:100D600008433C4908620846006A012108433949A2
:100D700008620BE03748006A4008400035490862C5
:100D80000846006A042188433249086200BFA0680F
:100D9000002813D0FFF792FC054608E02BE0FFF790
:100DA0008DFC401B2D49884201D9032053E6294878
:100DB000006A022108400028F1D011E0FFF77EFC14
:100DC000054607E0FFF77AFC411B2448814201D920
:100DD000032040E61F48006A022108400028F1D1A4
:100DE0000198012806D11B48C069012109078843E1
:100DF0001849C86100BF10212068084010285FD141
:100E0000606901282CD11348406B04210843114923
:100E100048630846406B012108430E494863FFF7C9
:100E20004DFC054606E0FFF749FC401B022801D9AE
:100E3000032010E60748406B022108400028F2D04A
:100E40000448406BF8218843A169C900084301495F
:100E5000486335E000100240007000408813000035
:100E60006069401D00280FD18648406B04218843EB
:100E7000844948630846406BF8218843A169C9004A
:100E80000843804948631BE07E48406B04210843C7
:100E90007C4948630846406B400840004863FFF7C0
:100EA0000DFC054606E0FFF709FC401B022801D9AE
:100EB0000320D0E57348406B022108400028F2D19E
:100EC000202120680840202852D16E4840680C211B
:100ED00008400C280AD06B4840680840082811D107
:100EE000684840684903084088420BD16548406B18
:100EF00001210904084000283AD0206A012837D08F
:100F00000120A8E5206A002819D05E48406B012125
:100F1000090408435B494863FFF7D0FB054606E038
:100F2000FFF7CCFB401B022801D9032093E555486D
:100F3000406B0121090408400028F1D018E0514815
:100F4000406B0121090488434E494863FFF7B6FB13
:100F5000054606E0FFF7B2FB401B022801D903203B
:100F600079E54848406B0121090408400028F1D187
:100F7000606A00284FD0434840680C210840082888
:100F800064D0606A022847D13E4800680121090602
:100F900088433C490860FFF791FB054606E0FFF7F0
:100FA0008DFB401B022801D9032054E53548006819
:100FB0000121490608400028F1D100BF3148C06A2C
:100FC00000090001216B08432E49C862A16AE06A4A
:100FD00008432C4949687B22D2039143084329499D
:100FE000486000BF084600680121090608432549FA
:100FF0000860FFF763FB054606E0FFF75FFB401B59
:10100000022801D9032026E51E480068012149066F
:1010100008400028F1D033E01A4800680121090691
:10102000884318490860FFF749FB054606E0FFF7CB
:1010300045FB401B022801D903200CE5114800683C
:101040000121490608400028F1D119E0606A012811
:1010500000D100E50B484668C76A0320C003304052
:10106000A16A88420AD13907090F206B814205D154
:101070000F2080043040E16A884201D00120EAE478
:101080000020E8E40010024070B504462546681EC2
:101090000949884201D901200CE0681E07494861CE
:1010A0000321081F00F09EFC0020044988610720EE
:1010B0000861002070BD0000FFFFFF0000E000E0BD
:1010C00010B50446002C01D1012010BD2420A067DA
:1010D00020680068400840002168086000202168FE
:1010E00008602168486021688860204600F04CF85C
:1010F0000021802001510020A067E067206600BF2A
:101100007420015500BF0020DFE710B50446002C15
:1011100001D1012010BDA069002800D000E000BF6F
:10112000A06F002805D1002174200155204600F051
:1011300049F82420A0672068006840084000216822
:101140000860204600F0DEFA012800D1E2E7606A7C
:10115000002802D0204600F023FA206840680921C8
:10116000C902884321684860206880682A21884332
:1011700021688860206800680121084321680860B0
:10118000204600F085FAC5E710B504460C48C06853
:101190000121890308430A49C8600846C068012143
:1011A000890388430649C86049150920C006FFF72E
:1011B000D7F8012189020920C006FFF7D1F810BD38
:1011C0000010024010B586B0044600BF23484069B5
:1011D0000121490408432149486108464069012129
:1011E00049040840009000BF00BF00BF1B48406991
:1011F00008431A49486108464069012149040840EA
:10120000009000BF00BF00BF14488069C9100843A8
:1012100012498861084680690121890308400090CD
:1012200000BF00BF481101900220029001200390EE
:10123000032004900120059001A90920C006FFF7B2
:1012400031F90120800201900120059001A90920B7
:10125000C006FFF727F906B010BD000000100240DD
:10126000FFB585B004460D461746E06F20286ED1C5
:10127000002D01D0002F02D1012009B0F0BD0121C5
:101280000903A068884208D12069002805D1E80731
:10129000C00F002801D00120EFE700BF7420005DDF
:1012A000012801D10220E8E701217420015500BF87
:1012B0000021802001512220E06700202066FFF7F6
:1012C000FDF90290582007535A20075300BF01210F
:1012D0000903A06888420AD12069002803D138494F
:1012E0005C20015324E0FF215C20015320E0A06832
:1012F00000280AD12069002803D1FF215C20015376
:1013000016E07F215C20015312E001210907A0684B
:1013100088420AD12069002803D17F215C20015333
:1013200006E03F215C20015302E000215C200153D4
:1013300000BF5C20005B039001210903A068884284
:1013400006D12069002803D10026049503E035E08A
:101350002E460020049000BF00217420015500BFDC
:1013600024E008980090002220212046029B00F0F3
:10137000C1FA002801D003207FE7002E09D12068A0
:10138000808C03990840049908800498801C04907C
:1013900006E02068808C0399C9B208403070761C42
:1013A0005A20005B401E81B25A2001535A20005B34
:1013B0000028D6D12020E06700205EE702205CE70D
:1013C000FF010000FFB583B004460D461746A06F2D
:1013D000202876D1002D01D0002F02D1012007B0A6
:1013E000F0BD01210903A068884208D120690028C6
:1013F00005D1E807C00F002801D00120EFE700BFAA
:101400007420005D012801D10220E8E70121742049
:10141000015500BF0021802001512120A067FFF766
:101420004DF9019050200753522007530121090321
:10143000A068884205D12069002802D100260295C3
:1014400002E02E460020029000BF002174200155CA
:1014500000BF21E006980090002280212046019BD9
:1014600000F048FA002801D00320B8E7002E09D187
:1014700002980088C005C00D216808850298801C6C
:10148000029003E0307821680885761C5220005BCA
:10149000401E81B2522001535220005B0028D9D156
:1014A00006980090002240212046019B00F022FA7D
:1014B000002802D0032092E703E02020A06700204C
:1014C0008DE702208BE700BFFEE77047704770474B
:1014D00010B5FFF7F9F810BD00B591B020200090CD
:1014E00001200890022009900321C9030A910121DB
:1014F0000C9100210B916846FFF7A8FA002801D053
:1015000000BFFEE707200D9002200E9000200F90F4
:10151000109001210DA8FFF73BF9002801D000BF72
:10152000FEE711B000BD0000194800680121084322
:101530001749086008464068164908401449486041
:1015400008460068144908401149086008460068C8
:101550000121890488430E490860084640683F21FC
:10156000090488430A4948600846C06A0009000126
:10157000C8620846006B09490840054908630846E7
:10158000406B4008400048630020886070470000BE
:10159000001002400CB8FF08FFFFF6FE2CFEFCFF17
:1015A000818CC907C90F002908D001684968012248
:1015B00052049143826A1143026851600222416AD7
:1015C0001140022907D101684968D2039143C26AD8
:1015D0001143026851600422416A1140042907D175
:1015E0000168496812049143026B1143026851601B
:1015F0000822416A1140082907D10168496812038D
:101600009143426B1143026851601022416A1140BC
:10161000102907D10168896812029143826B114336
:10162000026891602022416A1140202907D1016897
:10163000896812029143C26B114302689160402293
:10164000416A1140402915D10168496892039143CC
:10165000026C11430268516001221205016C914233
:1016600008D101684968032252059143426C114335
:10167000026851608022416A1140802907D10168C7
:10168000496812039143826C1143026851607047AC
:1016900038B50446002180200151FFF70FF80546B8
:1016A000206800680821084008280BD114482B4600
:1016B000002289040090204600F01CF9002801D087
:1016C000032038BD206800680421084004280BD19D
:1016D0000B482B46002209050090204600F00AF92D
:1016E000002801D00320ECE72020A067E06700205D
:1016F000206600BF00217420015500BF0020E0E7F4
:10170000FFFFFF01FEB50446002000902169A0689C
:10171000084361690843E169084302902068006852
:101720006C490840029908432168086020684068B5
:10173000032109038843E168084321684860A069E0
:101740000290206A029908430290206880680B2169
:1017500009028843029908432168886000BF5E49F6
:101760002068884217D15D48006B8007800F0028F1
:1017700006D0012808D0022808D0032808D101E0AB
:10178000002507E0022505E0042503E0082501E027
:10179000102500BF2BE05249206888421AD14F48DB
:1017A000006B032109040840002808D00121090426
:1017B000401A08D0401A08D0401A08D101E000258C
:1017C00007E0022505E0042503E0082501E01025D7
:1017D00000BF0CE043492068884201D1002506E0A3
:1017E00041492068884201D1002500E0102500BF52
:1017F0000121C903E069884239D1002D06D0022DAC
:1018000008D0042D08D0082D0DD109E0FFF788F885
:1018100006460CE0354E0AE0FFF794F8064606E06F
:101820000126F60303E000260120009000BF00BF60
:10183000002E49D0720063685B08D0186168FEF71B
:1018400057FC87B2102F0FD3294887420CD828485D
:101850000F38384001903807400F01990843019034
:1018600001982168C8602FE0012000902CE0002D35
:1018700006D0022D08D0042D08D0082D0DD109E086
:10188000FFF74EF806460CE0184E0AE0FFF75AF84C
:10189000064606E00126F60303E00026012000903C
:1018A00000BF00BF002E0FD061684A089019FEF7F4
:1018B0001FFC87B2102F05D30D48874202D820683D
:1018C000C76001E00120009000206066A0660098DB
:1018D000FEBD0000F369FFEF003801400010024038
:1018E0000044004000480040004C004000127A00D4
:1018F000FFFF0000FFB581B004460D4617460A9E63
:101900004CE0701C002849D0FEF7D8FE0499401A1C
:10191000B04201D8002E17D120680068FF21A13104
:10192000884321680860206880684008400021687A
:1019300088602020A067E06700BF00217420015567
:1019400000BF032005B0F0BD2068006804210840F6
:10195000002823D02068C06949020840C00A002836
:101960001CD008462168086220680068FF21A13168
:10197000884321680860206880684008400021682A
:1019800088602020A067E06720218020015100BFEF
:1019900000217420015500BF0320D3E72068C069EF
:1019A0002840A84201D1012000E00020B842A8D080
:1019B0000020C7E7F8B582B28BB2040C0D0C1046BC
:1019C0005843002126465E43370C3604801979417E
:1019D00016466E43370C36048019794126466E430D
:1019E0008919F8BD10B5002819DB1A4A03231B0218
:1019F000D21883089B00D2588307DC0EFF23A34034
:101A00009A438B071B0E8407E40EA3401A43114B25
:101A1000032424021B198408A4001A5118E00E4A5A
:101A200003071B0F083B9B089B00D2588307DC0E63
:101A3000FF23A3409A438B071B0E8407E40EA340A9
:101A40001A43054B0407240F083CA408A4001A51AC
:101A500010BD000000E100E01CED00E002E008C85D
:101A6000121F08C1002AFAD170477047002001E018
:101A700001C1121F002AFBD170470000FEF730FEA3
:101A8000FFF72AFD2E482F4908604B20C00148600F
:101A900000212C488160C160016181610C2141619C
:101AA0000021C1610020274948620846FFF708FB72
:101AB000002801D0FEF739FC2248FFF726FB00285A
:101AC00001D0FEF732FC204B6F2220491D48FFF762
:101AD00079FC01210020FEF7B5FB05E00120FEF7AF
:101AE000A1FB6420FEF726FC194800680028F5D009
:101AF0000120FEF777FB144B6F2214491148FFF7C2
:101B000061FC002801D0FEF710FC0320FEF77AFBF1
:101B10000D4B6F220F490B48FFF7A2FB002801D0A5
:101B2000FEF703FC0220FEF76DFB6F220949074810
:101B3000FEF7E4FB002801D0FEF7F7FB00BFFEE74D
:101B40000038014098000020881300001400002095
:101B5000100000201C010020000000000000000018
:101B60000102030406070809000000000102030443
:101B70004000000100028000010005009C1B0008DD
:101B800000000020980000005C1A0008341C0008C7
:101B900098000020F80400006C1A000800127A0077
:101BA0000000000004000000010000000000000030
:101BB000202A2A2A2A20554152545F54776F426FB7
:101BC000617264735F436F6D506F6C6C696E6720F8
:101BD0002A2A2A2A20202A2A2A2A20554152545FBA
:101BE00054776F426F617264735F436F6D506F6CB7
:101BF0006C696E67202A2A2A2A20202A2A2A2A206B
:101C0000554152545F54776F426F617264735F4302
:101C10006F6D506F6C6C696E67202A2A2A2A20002B
:101C20000008004800080048000800480008004874
:041C30000000004868
:04000005080000C12E
:00000001FF
