:020000040800F2
:100000007004002001010008FD020008F50200084C
:10001000F902000849010008350700080000000047
:10002000000000000000000000000000D1040008F3
:100030004D01000800000000FF020008BD05000897
:100040001B0100081B0100081B0100081B01000820
:100050001B0100081B0100081B0100081B01000810
:100060001B0100081B0100081B0100081B01000800
:100070001B0100081B0100081B0100081B010008F0
:100080001B0100081B0100081B0100081B010008E0
:100090001B0100081B0100081B0100081B010008D0
:1000A0001B0100081B0100081B0100081B010008C0
:1000B0001B0100081B0100081B0100081B010008B0
:1000C0001B0100081B0100081B0100081B010008A0
:1000D0001B0100081B0100081B0100081B01000890
:1000E0001B0100081B0100081B010008DFF80CD0F1
:1000F00000F018F800480047AD0700087004002021
:100100000648804706480047FEE7FEE7FEE7FEE7B1
:10011000FEE7FEE7FEE7FEE7FEE7FEE7C1050008B3
:10012000ED000008064C074D06E0E06840F00103D2
:1001300094E8070098471034AC42F6D3FFF7DAFF93
:10014000D4080008F408000800BFFEE770472DE956
:10015000F04102460025002600200023002400274D
:1001600091F803C00CF00F0591F803C00CF0100CCF
:10017000BCF1000F03D091F802C04CEA050591F8DC
:1001800000C0BCF1000F31D0146800202BE04FF00C
:10019000010C0CFA00F3B1F800C00CEA03069E4211
:1001A00020D183004FF00F0C0CFA03F7BC4305FA83
:1001B00003FC4CEA040491F803C0BCF1280F06D1FB
:1001C0004FF0010C0CFA00FCC2F814C00AE091F8E0
:1001D00003C0BCF1480F05D14FF0010C0CFA00FC34
:1001E000C2F810C0401C0828D1D31460B1F800C078
:1001F000BCF1FF0F34DD546800202EE000F1080C44
:100200004FF0010808FA0CF3B1F800C00CEA03063D
:100210009E4221D183004FF00F0C0CFA03F7BC4330
:1002200005FA03FC4CEA040491F803C0BCF1280F62
:1002300005D100F1080C08FA0CF8C2F8148091F806
:1002400003C0BCF1480F07D100F1080C4FF00108C2
:1002500008FA0CF8C2F81080401C0828CED354606D
:10026000BDE8F081F0B50A460023002400210025F6
:1002700000F00046B6F1004F02D11D4EF16901E0D9
:100280001B4E7168C0F3034583B200F44016B6F507
:10029000401F08D121F07061154E766826F0706617
:1002A000134F7E6012E000F48016B6F5801F06D171
:1002B000032606FA05F4A14341F0706106E0460DFD
:1002C000360103FA06F6B14341F0706122B1460DE2
:1002D000360103FA06F6314300F00046B6F1004F4E
:1002E00002D1034EF16101E0014E7160F0BD0000EA
:1002F0000000014000BFFEE700BFFEE77047704707
:1003000029B1064AD2690243044BDA6104E0034A88
:10031000D2698243014BDA6170470000001002404D
:1003200029B1064A92690243044B9A6104E0034AE8
:1003300092698243014B9A617047000000100240AD
:1003400030B500210022002400232D4D6D6805F0FA
:100350000C0121B1042905D0082923D105E0294D3C
:10036000056022E0274D05601FE0254D6D6805F40E
:100370007012234D6D6805F48034022505EB92421E
:100380001CB9214D554305600BE01D4D6D6805F40A
:1003900000351DB11C4D5543056002E0194D554314
:1003A000056002E0174D056000BF00BF144D6D6889
:1003B00005F0F0010909154D6B5C0568DD404560ED
:1003C0000F4D6D6805F4E061090A104D6B5C4568DE
:1003D000DD4085600A4D6D6805F46051C90A0B4D1A
:1003E0006B5C4568DD40C560054D6D6805F44041B6
:1003F000890B074D6B5CC568B5FBF3F5056130BD36
:100400000010024000127A0000093D0000000020A8
:100410001000002038B504460D46254951F8241037
:10042000244A52F82420114341F001000121FFF732
:1004300077FF34B9204951F824000121FFF770FFFC
:1004400009E001210820FFF70DFF1B4951F82400A6
:100450000121FFF755FF18208DF80300174830F8E9
:100460001400ADF8000003208DF80200144951F883
:1004700024006946FFF76BFE04208DF80300114845
:1004800030F81400ADF800000F4951F82400694617
:10049000FFF75DFE0D4951F82400294600F0DAF817
:1004A0000A4951F82400012100F0BAF838BD0000D3
:1004B0006C08000874080008640800087C0800083C
:1004C0004C00002080080008540000204400002058
:1004D000704710B500F002F810BD00000CB5002008
:1004E000019000903348006840F480303149086042
:1004F00000BF3048006800F4003000900198401CB4
:100500000190009818B90198B0F5A06FF1D1294871
:10051000006800F4003010B10120009001E00020DC
:1005200000900098012843D12348006840F0100053
:10053000214908600846006820F00300086008466A
:10054000006840F0020008601A4840681949486095
:100550000846406848600846406840F4806048604B
:100560000846406820F47C1048600846406840F423
:10057000E81048600846006840F08070086000BFDE
:100580000C48006800F000700028F9D00948406865
:1005900020F00300074948600846406840F0020028
:1005A000486000BF0348406800F00C000828F9D1FB
:1005B0000CBD000000100240002002407047000007
:1005C00010B51348006840F0010011490860084662
:1005D0004068104908400E494860084600680E49C6
:1005E00008400B4908600846006820F48020086035
:1005F0000846406820F4FE0048604FF41F00886001
:10060000FFF767FF4FF000600449086010BD00006D
:10061000001002400000FFF8FFFFF6FE08ED00E0CA
:1006200021B1828942F40052828104E082894DF630
:10063000FF731A408281704702460020B1F5007FA7
:1006400000D100BF13880B400BB1012000E0002057
:10065000704700002DE9F04786B005460E4600249D
:10066000A24600BFA1460027B08900B100BF2F46B7
:100670002C8A4CF6FF700440F08804432C82AC892D
:100680004EF6F3100440B08831890843718908435D
:100690000443AC81AC8A4FF6FF400440B089044368
:1006A000AC8201A8FFF74CFE1F48874202D1DDF85B
:1006B00010A001E0DDF80CA0A88900F4004040B1D2
:1006C0000AEBCA0000EB0A1031684900B0FBF1F8F0
:1006D00007E00AEBCA0000EB0A1031688900B0FBA2
:1006E000F1F86420B8FBF0F004012009642101FB5B
:1006F0001089A88900F4004040B1322000EBC90005
:10070000B0FBF1F000F00700044308E0322000EBFA
:1007100009106421B0FBF1F000F00F0004432C81BC
:1007200006B0BDE8F087000000380140C1F30802C0
:100730008280704700BFFEE7014A024900F013B80B
:10074000890700085C00002002E008C8121F08C1E9
:10075000002AFAD170477047002001E001C1121F42
:10076000002AFBD170472DE9F04116460F4604469A
:10077000002503E03946B047641C6D1C2078002832
:10078000F8D12846BDE8F08170B504460D46E1B2C7
:100790000548FFF7CBFF00BF40210348FFF74CFFA0
:1007A0000028F9D0204670BD003801404FF4E130F8
:1007B0000849086000208880C880088188810C2052
:1007C00048810020FFF726FE0348FFF7B5FF00BF72
:1007D000FEE7000060000020840800084000800060
:1007E00000010002100000001000000010000000D6
:1007F00010000000010000200002010002000001C2
:10080000004000100400000010000000080000007C
:100810004000000040000000200000002000000018
:100820002000000001000020000201000200000181
:10083000004000100000020001000400040003005A
:100840000300030000000D00090000000100080083
:100850000E000C0006002800170006000700170015
:1008600028002800004000000000020004000000F2
:100870002000000004000000200000000002200012
:10088000000440000A0D5553415254205072696EC5
:100890007466204578616D706C653A20726574618C
:1008A00072676574207468652043206C69627261A8
:1008B0007279207072696E74662066756E637469F1
:1008C0006F6E20746F207468652055534152540A2E
:1008D0000D000000F4080008000000206000000087
:1008E00048070008540900086000002010040000B8
:1008F000580700080000000001020304010203047D
:100900000607080902040608001001400010014013
:10091000001001400010014000080140001001409B
:10092000000C014000180140001801400014014073
:100930000014014000140140003801400044004010
:10094000000801400014014000080140001401406B
:0409500000000000A3
:04000005080000ED02
:00000001FF
