:020000040800F2
:100000004004002001010008AB020008A302000820
:10001000A702000849010008010A000800000000CA
:10002000000000000000000000000000B90300080C
:100030004D01000800000000410300088D04000885
:100040001B0100081B0100081B0100081B01000820
:100050001B0100081B0100081B0100081B01000810
:100060001B0100081B0100081B0100081B01000800
:100070001B0100081B0100081B0100081B010008F0
:100080001B0100081B0100081B0100081B010008E0
:100090001B0100081B0100081B0100081B010008D0
:1000A0001B0100081B0100081B0100081B010008C0
:1000B000F10400081B0100081B0100081B010008D7
:1000C0001B0100081B0100081B0100081B010008A0
:1000D0001B0100081B0100081B0100081B01000890
:1000E0001B0100081B0100081B010008DFF80CD0F1
:1000F00000F018F800480047250A000840040020D6
:100100000648804706480047FEE7FEE7FEE7FEE7B1
:10011000FEE7FEE7FEE7FEE7FEE7FEE791040008E4
:10012000ED000008064C074D06E0E06840F00103D2
:1001300094E8070098471034AC42F6D3FFF7DAFF93
:10014000200B0008400B000800BFFEE770470000CE
:1001500008B54FF47070ADF8000010208DF8030062
:1001600003208DF802006946014800F003F808BD3D
:10017000001001402DE9F041024600250026002034
:1001800000230024002791F803C00CF00F0591F81C
:1001900003C01CF0100F03D091F802C04CEA050513
:1001A000B1F800C01CF0FF0F31D0146800202BE024
:1001B0004FF0010C0CFA00F3B1F800C00CEA030692
:1001C0009E4220D183004FF00F0C0CFA03F7BC4382
:1001D00005FA03FC4CEA040491F803C0BCF1280FB3
:1001E00006D14FF0010C0CFA00FCC2F814C00AE072
:1001F00091F803C0BCF1480F05D14FF0010C0CFA87
:1002000000FCC2F810C0401C0828D1D31460B1F81B
:1002100000C0BCF1FF0F34DD546800202EE000F177
:10022000080C4FF0010808FA0CF3B1F800C00CEA12
:1002300003069E4221D183004FF00F0C0CFA03F706
:10024000BC4305FA03FC4CEA040491F803C0BCF17A
:10025000280F05D100F1080C08FA0CF8C2F8148038
:1002600091F803C0BCF1480F07D100F1080C4FF022
:10027000010808FA0CF8C2F81080401C0828CED3F8
:100280005460BDE8F08102460020D3680B4201D0E3
:10029000012000E0002070470AB1016100E04161E7
:1002A000704700BFFEE700BFFEE7704708B51C209F
:1002B0008DF8000000208DF8010001208DF802006B
:1002C0008DF80300684600F001F808BD70B5002104
:1002D00000230F22C4780CB3164C246804F4E064A5
:1002E000C4F5E064210AC1F10403CA40447804FA69
:1002F00003F184781440214309010F4C0678A1557D
:10030000047804F01F050124AC4005786D114FF00E
:10031000E02606EB8505C5F8004109E0047804F005
:100320001F050124AC40054D0678761145F826409E
:1003300070BD00000CED00E000E400E080E100E0B2
:100340007047000029B1064AD2690243044BDA61C2
:1003500004E0034AD2698243014BDA61704700002E
:100360000010024029B1064A92690243044B9A6187
:1003700004E0034A92698243014B9A61704700008E
:100380000010024010B54FF4A06000F009F8012100
:100390000846FFF7D7FF01211020FFF7E3FF10BD4C
:1003A00001460020034A506820F4E0600843506092
:1003B0007047000000100240704710B500F002F8CE
:1003C00010BD0000002100202E4A126842F4803245
:1003D0002C4B1A6000BF2B4A126802F40030491CF3
:1003E00010B9B1F5A06FF6D1264A126812F4003F99
:1003F00001D0012000E00020012842D1224A1268E9
:1004000042F01002204B1A601A46126822F00302D2
:100410001A601A46126842F002021A60194A5268BB
:10042000184B5A601A4652685A601A46526842F48B
:1004300080625A601A46526822F47C125A601A4648
:10044000526842F4E8125A601A46126842F080720A
:100450001A6000BF0B4A126812F0007FFAD0094AF6
:10046000526822F00302074B5A601A46526842F063
:1004700002025A6000BF034A526802F00C02082AC6
:10048000F9D1704700100240002002407047000080
:1004900010B51348006840F0010011490860084693
:1004A0004068104908400E494860084600680E49F7
:1004B00008400B4908600846006820F48020086066
:1004C0000846406820F4FE0048604FF41F00886032
:1004D000FFF773FF4FF000600449086010BD000093
:1004E000001002400000FFF8FFFFF6FE08ED00E0FC
:1004F00010B50221480700F0BBF800B302214807FD
:1005000000F09AF840214648FFF7BDFEC0F1010017
:10051000C4B2224640214248FFF7BEFE4FF0804061
:1005200000F099F83F490880084600883E4A128842
:10053000104481B24FF0804000F006FA6FE00421D1
:10054000080700F095F800B30421080700F074F8DC
:1005500080213348FFF797FEC0F10100C4B2224664
:1005600080212F48FFF798FE4FF0804000F076F88A
:100570002C490880084600882C4A1288104481B211
:100580004FF0804000F0E2F949E00821C80600F091
:100590006FF810B30821C80600F04EF84FF48071D0
:1005A0001F48FFF770FEC0F10100C4B222464FF4AD
:1005B00080711B48FFF770FE4FF0804000F051F84B
:1005C0001849088008460088194A1288104481B2E8
:1005D0004FF0804000F0BCF921E01021880600F0C7
:1005E0002BF84FF400710E48FFF74DFEC0F10100EB
:1005F000C4B222464FF400710948FFF74DFE4FF098
:10060000804000F031F80749088008460088094A10
:100610001288104481B24FF0804000F09BF910BD69
:10062000001001400A00002000000020020000200D
:100630000400002006000020CA430282704721B156
:10064000028842F00102028004E002884FF6FE7345
:100650001A40028070470146888E70470146088F15
:1006600070470146888F70470146B1F840007047D7
:1006700030B50246002000230024158A05EA010354
:10068000958905EA010413B10CB1012000E00020B6
:1006900030BD10B51AB183890B43838104E083898F
:1006A000CC43A4B22340838110BD000070B5002468
:1006B00000220023058C4FF6FE7635400584028C1F
:1006C0008388048B4FF68F752C40B51E2C400D8807
:1006D0002C43751E2A400D892A434D882A43144D08
:1006E000A8420BD0134DA84208D0134DA84205D004
:1006F000124DA84202D0124DA84213D14FF6F77501
:100700002A404D892A434FF6FB752A408D882A439B
:100710004FF6FF652B404FF6FF552B408D892B433D
:10072000CD892B4383800483CD888586028470BD68
:10073000002C0140003401400040014000440140D1
:10074000004801400A460021018B4FF6F77319401B
:10075000114301837047000070B50024002200237C
:10076000058C4FF6EF7635400584028C8388048B28
:1007700048F6FF752C404FF6FF452C400D882D069E
:1007800044EA15444FF6DF752A400D892D0542EAEB
:1007900015424D882D0542EA1542144DA84202D05B
:1007A000134DA8421BD14FF67F752A404D892D0568
:1007B00042EA15424FF6BF752A408D882D0542EA60
:1007C00015424FF6FF352B404FF2FF752B408D89B8
:1007D000AD0443EA1543CD89AD0443EA1543838054
:1007E0000483CD880587028470BD0000002C014081
:1007F000003401400A460021018B4FF2FF7319407B
:10080000130641EA134101837047000070B50024CC
:1008100000220023058C4FF6FF6635400584028CCC
:100820008388848B4FF68F752C404FF6FC752C40D7
:100830000D882C434FF6FF552A400D892D0642EABC
:1008400015424D882D0642EA1542144DA84202D0A9
:10085000134DA8421BD14FF2FF752A404D892D063A
:1008600042EA15424FF6FF352A408D882D0642EAAE
:1008700015424EF6FF752B404DF6FF752B408D89C6
:100880002D0543EA1543CD892D0543EA15438380A1
:100890008483CD888587028470BD0000002C0140D0
:1008A000003401400A460021818B4FF6F77319404E
:1008B000114381837047000070B50022002300249B
:1008C000058C4EF6FF7635400584038C8488828B38
:1008D00048F6FF752A404FF6FF452A400D882D0641
:1008E00042EA15424DF6FF752B400D892D0743EA6C
:1008F00015434D882D0743EA15430A4DA84202D0FF
:10090000094DA84206D14BF6FF752C408D89AD05E7
:1009100044EA154484808283CD88A0F84050038443
:1009200070BD0000002C0140003401400A46002147
:10093000818B4FF2FF731940130641EA1341818303
:1009400070470185828270478186704701877047B2
:1009500081877047A0F8401070470000002202888D
:100960001D4B98420ED01D4B98420BD0B0F1804FDA
:1009700008D01B4B984205D01A4B984202D01A4B14
:10098000984204D14FF68F731A404B881A43174B85
:10099000984207D0164B984204D04FF6FF431A40B6
:1009A000CB881A4302808B8883850B8803850A4B8A
:1009B00098420BD0094B984208D00E4B984205D074
:1009C0000D4B984202D00D4B984201D10B7A038611
:1009D0000123838270470000002C01400034014055
:1009E0000004004000080040000C004000100040DF
:1009F0000014004000400140004401400048014014
:100A000000BFFEE702E008C8121F08C1002AFAD1A1
:100A100070477047002001E001C1121F002AFBD17E
:100A200070470000FFF7AEFCFFF740FCFFF790FBBC
:100A3000324800683249B0FBF1F0401E314908806D
:100A40004FF6FF703049888000200880C8804880B9
:100A50004FF08040FFF782FF01222A48018890076B
:100A6000FFF76FFF002029490880012048802848AF
:100A70000088C880002008814FF08040FFF716FEF4
:100A800000214FF08040FFF75DFE01201F494880A4
:100A900020480088C8804FF08040FFF75DFE0021AD
:100AA0004FF08040FFF7A6FE0120184948801A4801
:100AB0000088C8804FF08040FFF7A8FE00214FF06B
:100AC0008040FFF7EFFE012010494880134800885E
:100AD000C8804FF08040FFF7EFFE00214FF08040CC
:100AE000FFF724FF01221E219007FFF7D2FD01210D
:100AF0008807FFF7A4FD00BFFEE700000C00002000
:100B0000001BB70008000020200000202A00002061
:100B10000000002002000020040000200600002049
:100B2000400B00080000002020000000040A00081C
:100B3000600B00082000002020040000140A0008B8
:100B400001A0AD6A5635AA1A0000000000A24A04AE
:100B5000000000000000000001020304060708096D
:04000005080000ED02
:00000001FF
