:020000040800F2
:1000000060040020710100087501000877010008F4
:10001000790100087B0100087D0100080000000054
:100020000000000000000000000000007F01000848
:10003000810100080000000083010008850100081C
:100040008701000887010008870100088701000870
:100050008701000887010008870100088701000860
:100060008701000887010008870100088701000850
:100070008701000887010008870100088701000840
:100080008701000887010008870100088701000830
:100090008701000887010008870100088701000820
:1000A0008701000887010008870100088701000810
:1000B0008701000887010008870100088701000800
:1000C00087010008870100088701000887010008F0
:1000D00087010008870100088701000887010008E0
:1000E00087010008870100088701000800F002F876
:1000F00000F02EF80AA090E8000C82448344AAF194
:100100000107DA4501D100F023F8AFF2090EBAE891
:100110000F0013F0010F18BFFB1A43F0010318473B
:1001200090040000A0040000002300240025002605
:10013000103A28BF78C1FBD8520728BF30C148BF4A
:100140000B6070471FB500F02CFA1FBD10B510BD35
:1001500000F0EDF91146FFF7F5FF00F0BEF900F0F1
:100160000BFA03B4FFF7F2FF03BC00F013FA000030
:1001700008480047FEE7FEE7FEE7FEE7FEE7FEE78A
:10018000FEE7FEE7FEE7FEE703480449024A044BA8
:1001900070470000ED0000086000002060040020AF
:1001A000600000201220B74908607047B648B74980
:1001B0004860B748086000BFB448006810F4003FCA
:1001C000FAD000BFB148006810F0007FFAD000BF3D
:1001D000AE48406800F00C000828F9D1704770471D
:1001E00045F25550AB4908600220486040F69F70C8
:1001F00088604FF47A7088604AF6AA2008604CF64E
:10020000CC4008607047A4484FF0E02148610620C8
:100210000861002088610846006940F0010008611B
:1002200070479A48C06940F080509849C8619B481F
:10023000006840F48070994908609448006A40F072
:1002400001009249086200BF9048006A10F0020F56
:10025000FAD08E48006A40F401408C490862904808
:10026000008840F010008E4908800020091D088099
:1002700047F6FF70091D0880002089491431088065
:10028000091D0880091D08803C20091D08800120E7
:100290008349091F08808348006840F008004FF038
:1002A000E021C1F800017E48008820F010007C4960
:1002B000088000BF7A48008810F0200FFAD07748F5
:1002C000006820F480707549086070476F48C06905
:1002D00040F001006D49C86100208904088541F69D
:1002E0001F408885002008808880088548208885F0
:1002F0000020888608870520888700206A490880B2
:100300004FF0804108834FF0600088834FF4807085
:1003100008844FF0000008814FF0040008804FF07F
:10032000000088800846008840F00100088070477F
:100330005648806940F00400544988615B485C4934
:1003400008600020091D08605048806940F00800DE
:100350004E4988614FF44010564908605648091DBF
:1003600008604A48806940F01000484988610020D0
:10037000524908604FF48000486070475048406818
:1003800020F004004E4948604048806940F0040075
:100390003E4988614648001D006820F47F6044495A
:1003A000091D08600846006840F0B0000860084673
:1003B000006840F4806008603448806940F4804000
:1003C0003249886141F64C503E4908800020091DA1
:1003D0000880091D0880081F0088091F0880002068
:1003E00038490C3108803748001D008840F00C0067
:1003F0003449091D08800846008840F400500880F0
:100400007047704770472148C06940F000601F493D
:10041000C8610846C06940F08050C8611F48006844
:1004200040F480701D490860002027490880091D9C
:1004300008800846008840F00300088017480068DC
:1004400020F48070154908601F48001D008810F0D6
:10045000040F07D01348006840F004004FF0E0217B
:10046000C1F80001704700B5FFF79CFEFFF79EFE44
:10047000FFF72CFFFFF75CFFFFF7B2FE00BD13484C
:10048000704700000020024002841100001002406A
:100490008200010100300040FFB9DB000070004025
:1004A0000428004000E100E040000040040BB3BB22
:1004B00000080140000C014000404444001001408D
:1004C0000000014008380140306C00400051250216
:1004D00000E0401E0028FCD17047FFF7C4FF104821
:1004E000406A10F0005F0CD00D48406A40F0807008
:1004F0000B4948620B48006840F040000949086019
:1005000005E00848006820F04000064908600548FA
:10051000006840F040000349086000BFFEE70000AB
:10052000001002400C0C0140704770477047754640
:1005300000F028F8AE4605006946534620F0070053
:10054000854618B020B5FFF71FFEBDE820404FF0EC
:1005500000064FF000074FF000084FF0000B21F0AD
:100560000701AC46ACE8C009ACE8C009ACE8C0097A
:10057000ACE8C0098D4670470446AFF300802046C2
:10058000FFF7EFFD0048704700000020004870476B
:100590000400002001491820ABBEFEE7260002003F
:1005A000704710B5FFF7F2FF4FF00001016010BD7A
:1005B000C0050008000000206004000028010008B9
:04000005080000ED02
:00000001FF
