:020000040800F2
:10000000A8070020D50000082B0F0008290F0008C2
:1000100000000000000000000000000000000000E0
:10002000000000000000000000000000351600087D
:10003000000000000000000033160008371600081A
:10004000E7000008E7000008E7000008E7000008F4
:10005000E7000008E7000008E7000008E7000008E4
:10006000E7000008E7000008E7000008E7000008D4
:10007000E7000008E7000008E7000008E7000008C4
:10008000E7000008E7000008E7000008E7000008B4
:10009000E7000008E7000008E7000008E7000008A4
:1000A000E7000008E7000008E7000008E700000894
:1000B000E7000008E7000008E7000008E700000884
:1000C0000348854600F08EF800480047491F0008A5
:1000D000A80700200448804704480047FEE7FEE7E1
:1000E000FEE7FEE7FEE7FEE741160008C100000854
:1000F00030B50B46014600202022012409E00D46C0
:10010000D5409D4205D31D469540491B2546954047
:1001100040191546521E002DF1DC30BDF0B51FB45C
:100120000646002082B005464024019100901BE065
:10013000019922460F46304600F042F8049A059B8A
:10014000801A994110D310461946224600F028F82B
:10015000361A8F410197224601200021009F00F0AE
:100160001FF838184D4100902046641E0028DFDC3F
:10017000019B00982946324607B0F0BDD2B201E09B
:100180000270401C491EFBD270470022F6E710B5F2
:1001900013460A4604461946FFF7F0FF204610BDF5
:1001A00010B5202A04DB0146203A9140002010BD02
:1001B000914020239C1A0346E3401943904010BD10
:1001C00010B5202A04DB0846203AD040002110BD9B
:1001D0000B46D340D0402024A21A91400843194630
:1001E00010BD0000064C0125064E05E0E36807CC73
:1001F0002B430C3C98471034B442F7D3FFF764FF0D
:100200006023000880230008F0B501221349D204BE
:1002100087B0002805D0012803D0022801D0032888
:1002200005D14B6913434B614969114000910C4D55
:100230004400295B01910121029103910321094F9F
:1002400004918600B85901A900F03EF8295BB8591D
:10025000002200F003F907B0F0BD000000100240DA
:10026000562300081800002010B5054A4100515AD5
:10027000044A80001058012200F0F0F810BD000080
:10028000562300081800002010B5044A4100515AB6
:10029000034A8000105800F0D9F810BD562300081A
:1002A0001800002070B5044600F0DEF80546601C1A
:1002B00002D004480078241800F0D6F8401BA04271
:1002C000FAD370BD040000200B680022002B6FD011
:1002D000F0B582B0012425460B6895402B4068D0CC
:1002E0004E68012E05D0022E03D0112E01D0122E01
:1002F00016D186680327B4465600B646B740664610
:10030000BE43B446CF687646B740664637438760FB
:100310004668AE430D79ED06ED0F954035434560D7
:10032000C66857000325BD40AC46AE438D68BD404E
:100330003543C5604D68022D01D0122D14D1D5086A
:10034000AD002D1801952E6A5507B646EE0E0F2505
:10035000B54000967646AE43B6460D69009EB54060
:1003600076462E43019D2E6205686646B5430E799A
:10037000B607B60FBE402E4306604D68ED004ED561
:100380002B4EB5692543B561B4699508E407E40FC0
:100390000094284CAD002F19BC6895072E0F0F252F
:1003A000B540AC430925ED06A84203D1002516E06F
:1003B0003CE034E0204DA84201D101250FE01F4D63
:1003C000A84201D102250AE01D4DA84201D1032512
:1003D00005E01C4DA84201D1042500E00525B540EB
:1003E0002543BD60184C25684E689D43F60300D533
:1003F0001D43256065684E689D43B60300D51D43C7
:100400006560A5684E689D43F60200D51D43A56052
:10041000E5684E689D43B60200D51D43E5600B6854
:10042000521CD34000D055E702B0F0BD7047000029
:10043000001002400000014000040048000800488D
:10044000000C0048001000480004014042691346B7
:100450000B401B0491430B4383617047002A01D07A
:100460008161704781627047014880687047000071
:100470000400002002488168027889188160704772
:100480000400002010B506480168102211430160E5
:10049000032000F007F800F027F8002010BD00004E
:1004A0000020024070B504460D4D7D202978C00023
:1004B000FFF71EFE01460B480068FFF719FE00F02B
:1004C00035FC002809D1042C07D200222146401E09
:1004D00000F00CF800206C6070BD012070BD0000C1
:1004E0000400002000000020704700008207D30EA7
:1004F000FF229A408907090E9940002808DB8308EB
:1005000009489B001818036893430B430360704726
:100510000007000F0838830804489B001B18D8699F
:1005200090430843D861704700E400E000ED00E02C
:1005300010490B69CA0313430B610B6993430B61A9
:1005400042680168114382681143C2680A43018A04
:100550000B04094913434B600A683F231B0240699F
:100560009A43000202430A60086860221043086050
:100570007047000000100240006C0040F8B50446CF
:100580000068C0035BD548480027C069C00008D494
:100590004548C26901040A43C261C0690840012795
:1005A0000090424D2868C00511D42868A915084359
:1005B0002860FFF759FF06462868C00507D4FFF7F3
:1005C00053FF801B642826D82868C005F7D5364815
:1005D000006A03210902084023D062680A4082426F
:1005E0001FD0314E306A8843316A01221204114310
:1005F0003162316A914331623062C00711D0FFF736
:1006000033FF316A054689070BD4294EFFF72CFFCB
:10061000401BB04201D90320F8BD2348006A80077F
:10062000F4D52148016A0322120291436268114302
:100630000162002F03D0C16902049143C161207897
:10064000C00706D01848016BA268890889001143C9
:1006500001632078800707D51348016B0322120439
:100660009143E268114301632078800606D50E4964
:10067000086B1022904322691043086320688003AE
:1006800006D50948016B80229143A2691143016399
:100690002088400506D50448016B402291436269D9
:1006A000114301630020F8BD0010024000700040BB
:1006B00088130000002801D101207047F8B50546D5
:1006C00042480E460068C007C00FB0420AD23F49F8
:1006D000086840084000304308600868C007C00F41
:1006E000B04257D128683A4C81070CD5400704D551
:1006F000606807210902084360606068F021884350
:10070000A968084360602878C00733D0686801286A
:100710001DD002281FD0032821D02168890739D590
:1007200061688908890001436160FFF79DFE616887
:1007300007466A680C200140920091421AD0FFF7E8
:1007400093FEC11B234881420DD90320F8BD2168C7
:1007500089031FD5E4E7216889011BD5E0E7616BB8
:10076000C90317D5DCE760680C2108406968890077
:100770008842E4D115480168C907C90FB1420BD9B5
:10078000016849084900314301600068C007C00F93
:10079000B04201D00120F8BD2878400706D5616835
:1007A000072000028143E8680143616000F028F8F7
:1007B0006168094A0906090F515CC8400749086089
:1007C0000320FFF76FFE0020F8BD0000002002406C
:1007D00000100240881300003423000800000020AD
:1007E0000448054900684968044A4905490F515CB5
:1007F000C840704700000020001002404423000859
:1008000030B51DA30FCB89B06C460FC41EA30FCB10
:100810000FC4214A51680C200B4603401F48042B8B
:1008200005D01F4D082B04D00C2B00D1284609B051
:1008300030BD8B021B0F6C46E45CD26A04AB12071E
:10084000120FC9039A5C890F022901D0032908D02D
:1008500000231946FFF762FC214601F0DBF809B0DE
:1008600030BD002328461946FFF758FC214601F009
:10087000D1F809B030BD00000203040506070809DD
:100880000A0B0C0D0E0F10100102030405060708D9
:10089000090A0B0C0D0E0F100010024000127A0016
:1008A000006CDC02002801D101207047F8B5044635
:1008B0000078FF4DC00757D068680007800F0128F7
:1008C0002BD068680007800F022804D16868C00335
:1008D000800F022821D06168012925D001208004E1
:1008E000002927D0052929682DD08210914329603D
:1008F0002968814329606068002827D0FFF7B4FD8C
:100900000646286880032FD4FFF7AEFD801B6428BD
:100910007ED828688003F7D526E02868800323D591
:100920006068002875D01FE0286801210904084389
:100930002860E0E72A68012109048A432A602968BF
:1009400081432960D7E701432960EDE7FFF78CFD7C
:1009500006462868800307D5FFF786FD801B6428BC
:1009600056D828688003F7D42078800742D5686875
:100970000007800F26D068680007800F022804D186
:100980006868C003800F01281CD0E0680028286830
:100990001FD0012108432860FFF766FD064628683E
:1009A000800707D4FFF760FD801B022830D8286835
:1009B0008007F7D52868F82188432169C9000843D2
:1009C000286017E028688007F4D5E068012820D166
:1009D000F0E7400840002860FFF746FD064628681B
:1009E000800707D5FFF740FD801B022810D8286834
:1009F0008007F7D4207800072AD5E069002815D0B1
:100A0000696A012001436962FFF72EFD064601E095
:100A10007CE083E1686A80071AD4FFF725FD801B1C
:100A2000022873D8686A8007F7D511E0686A400821
:100A300040006862FFF718FD0646686A800707D520
:100A4000FFF712FD801B022860D8686A8007F7D480
:100A50002078400771D500200090E869C00008D4D4
:100A6000E969012000070143E961E96901400120CA
:100A70000090904F3868C00511D43868B915084304
:100A80003860FFF7F1FC06463868C00507D4FFF769
:100A9000EBFC801B642839D83868C005F7D5A068FE
:100AA00001281ED0002820D0052827D0286A400819
:100AB00040002862286A042188432862A0687E4E8C
:100AC000002824D0FFF7D0FC0746286A80072CD4E2
:100AD000FFF7CAFCC01BB04218D8286A8007F7D5B8
:100AE00023E0296A0120014306E0286A400840000B
:100AF0002862296A042081432962DFE7296A0420E9
:100B000001432962286A01210843D6E780E0FFF704
:100B1000ABFC0746286A800707D5FFF7A5FCC01B7A
:100B2000B04275D8286A8007F7D40098002804D00E
:100B3000E869012109078843E8612078C0061AD5D1
:100B40006069012825D0401D41D0686B042108430D
:100B50006863686B400840006863FFF785FC0646E1
:100B6000686B800707D5FFF77FFC801B02284FD8F2
:100B7000686B8007F7D42078800664D56868000722
:100B8000800F032845D068680007800F022823D013
:100B900027E0686B042108436863686B0121084300
:100BA0006863FFF761FC0646686B800707D4FFF7B0
:100BB0005BFC801B022860D8686B8007F7D5686BE8
:100BC000F8218843A169C90008436863D3E7696BCA
:100BD000042081436963F2E76868C003800F03283B
:100BE00017D0206A00281BD0686B01210904084334
:100BF0006863FFF739FC0646686BC00323D4FFF730
:100C000033FC801B022838D8686BC003F7D51AE084
:100C100033E0686BC00316D5206A01287ED112E04C
:100C2000696B0120000481436963FFF71DFC0646E0
:100C3000686BC00307D5FFF717FC801B02281CD880
:100C4000686BC003F7D4606A00286DD06968090733
:100C5000890F02294FD001273F06022828680ED0AD
:100C6000B8432860FFF700FC0446286880015BD584
:100C7000FFF7FAFB001B022839D90320F8BDB8435F
:100C80002860FFF7F1FB06462868800107D5FFF7CB
:100C9000EBFB801B0228F0D828688001F7D4E86AB3
:100CA000216B000900010843E862E16AA06A05E0DF
:100CB0000010024000700040881300000143686883
:100CC0007B22D2039043014369602868384328603F
:100CD000FFF7CAFB04462868800125D4FFF7C4FB50
:100CE000001B0228C9D828688001F7D51CE02868B5
:100CF0008001BDD418E00128C0D06868EA6A0321E9
:100D0000C903A36A014099420CD11107226B090F54
:100D1000914207D10F218904084000E002E0E16A16
:100D2000884201D00120F8BD0020F8BD0B4910B465
:100D3000401E884202D910BC012070470849486112
:100D400008480722C3691B021B0A4C042343C361E2
:100D5000002088610A6110BC70470000FFFFFF009F
:100D600000E000E004ED00E0002801D10120704720
:100D700010B50446806F002805D10021742001556C
:100D8000204600F027F82420A06720680168490861
:100D900049000160204600F019FD012818D0606A62
:100DA000002802D0204600F079FC20684168092222
:100DB000D20291434160206881682A229143816078
:100DC00020680168012211430160204600F0CCFC3C
:100DD00010BD000030B5174887B0426901214904B1
:100DE0000A43426142690A40059242690A434261EC
:100DF00042690A4005928269C9100A43826180698A
:100E00000124084005904811009002200190032021
:100E10000925ED0603900294694604942846FFF7DD
:100E200053FAA0020090694604942846FFF74CFA52
:100E300007B030BD00100240FFB50446806F83B09C
:100E40001F46164620286CD1049800280CD0002E8E
:100E50000AD00120A1680003814208D1206900283E
:100E600005D10498C00702D0012007B0F0BD20468C
:100E700060300090007D012853D000980121017559
:100E80000020802108512120A067FFF7EDFA2546B8
:100E9000403501902E826E820120A16800038142BC
:100EA00002D12069002812D0049E002002900099EF
:100EB00000200875688A002818D000970022802139
:100EC0002046019B00F036FD002818D102E00026E4
:100ED0000498EBE7002E15D0216830780885761C41
:100EE000688A401E6882688A0028E6D1009700223E
:100EF00040212046019B00F01DFD00280CD003205E
:100F000007B0F0BD029821680088C005C00D0885B3
:100F10000298801C0290E3E72020A067002007B021
:100F2000F0BD022007B0F0BDFEE77047FFB5C1B0CD
:100F30001E460F460546D4224B9B68464A990270CE
:100F40004770002B16D0401C491EDA0704D04A789F
:100F50006C46401CA270491C5A081206120E09D099
:100F60004C7844708C788470801C891C521E120648
:100F7000120EF5D19B1C9AB26946284600F015FB6B
:100F8000002808D02869804769692FA08847002079
:100F9000C04345B0F0BDE9684C988847002826D08A
:100FA0006A680621684690472C4A00206C46115C0E
:100FB000235C994206D0696929A088470020C04374
:100FC00045B0F0BD401CC0B20628F0D3E9684C988B
:100FD000884700280BD0B01C82B26946284600F032
:100FE00003F9024668460078D52809D103E00020BD
:100FF000C04345B0F0BD684640787F1CB84206D07B
:10100000696922A088470020C04345B0F0BD002E8A
:1010100017D04398401E641CF10704D069468978B4
:101020004170401C641C71080906090E09D06378E0
:101030004370A3788370491E801CA41C0906090E06
:10104000F5D1901E45B0F0BD547279696E67207479
:101050006F2077616B657570000000004C230008FD
:10106000446964206E6F74207265636569766520DB
:1010700065787065637465642041434B2066726FC8
:101080006D20504E353332210000000052656365FB
:101090006976656420756E65787065637465642033
:1010A000636F6D6D616E6420726573706F6E7365D2
:1010B0002100000010B584B00446FF230020F53362
:1010C0000090029301900A46042302212046FFF774
:1010D0002DFF401C02D0002004B010BD616903A0A8
:1010E00088470020C04304B010BD00004661696C11
:1010F000656420746F20646574656374207468652A
:1011000020504E353332000010B5074901600749C1
:101110004160074981600749C1600749016107498A
:10112000416100F0FBF910BDA51400088D11000805
:1011300055150008D51400081D15000841110008B8
:101140007047000010B50C460FA18AB009680891DD
:1011500008A98A707D23DB0003220293019200918B
:10116000112303AA4021FFF7E1FE6946087B00280E
:1011700008D1487B2070887B6070C87BA070087C99
:10118000E070087B0AB010BD01300000F8B50546DC
:101190000F46481C01F058F8064603203070052021
:1011A000FFF780F8781CC1B2304601F083F8002FB9
:1011B00015D06D1E3446F80703D07078741C687023
:1011C0006D1C78080006000E09D061786970A1785E
:1011D000401EA970A41CAD1C0006000EF5D13046BF
:1011E00000F088FE0020F8BDF7B505460024D01DAC
:1011F0001646C2B081B26A686846904769460A7866
:1012000000200836002A06D1401CC0B2B04205D2E8
:101210000A5C002AF8D00A5CFF2A06D0696935A06A
:1012200088470020C04345B0F0BD401CC3B2B34264
:1012300006D369693CA088470020C04345B0F0BD93
:10124000CA189446C85C527812181206120E06D0BC
:1012500069693CA088470020C04345B0F0BD012229
:10126000C607D2076146B218491C9646002A03D029
:101270004A781219D4B2491C0026421C52080AD0DE
:101280004F783C198F78891CBE19521E1206E4B2A1
:10129000F6B2120EF4D1A1190906090E06D0696939
:1012A00034A088470020C04345B0F0BD441E002C48
:1012B00015DD439A6146491C521E7546002D03D028
:1012C0004D785570491C521C4D78641007D08E78AB
:1012D0005570CD789670891C921C641EF7D1411E02
:1012E000E2D45B186A469A189378439A535445B0EF
:1012F000F0BD0000526573706F6E73652066726199
:101300006D6520707265616D626C6520646F6573D8
:10131000206E6F7420636F6E7461696E2030783058
:101320003046462100000000526573706F6E736591
:1013300020636F6E7461696E73206E6F20646174D8
:1013400061210000526573706F6E7365206C656E6D
:1013500067746820636865636B73756D2064696486
:10136000206E6F74206D61746368206C656E6774A5
:1013700068210000526573706F6E73652063686545
:10138000636B73756D20646964206E6F74206D618A
:10139000746368206578706563746564206368654C
:1013A000636B73756D00000070B504462AA08AB0A7
:1013B0000068089008A842700D460221029301912E
:1013C0000090132303AA4A212046FFF7AFFD002611
:1013D000F643002802DA30460AB070BD6846007B4A
:1013E000012805D061691DA0884730460AB070BD4C
:1013F0006846417C072905D9616920A088473046A5
:101400000AB070BD481E03AB00281ADD01226C1E15
:10141000C907D207581DD14204D06946897C617042
:10142000401C641C6A46527C4178521E521008D0FF
:1014300086786170C178A670801C521EA41C002A98
:10144000F6D16846417C491E02D458188079685408
:101450006846407C0AB070BD010000004D6F7265A7
:10146000207468616E206F6E652063617264206411
:10147000657465637465642100000000466F756ED5
:10148000642063617264207769746820756E657882
:101490007065637465646C79206C6F6E6720554964
:1014A000442100000020704700B509A185B00968FB
:1014B0007D23DB000391032203A902930192009193
:1014C00000231A461421FFF731FD002005B000BDAE
:1014D0000114010038B504460FA000680090FEF723
:1014E000C3FF0546FEF7C0FF401BA04212D20A20F0
:1014F000FEF7D8FE0221684600F0DCFE6846407820
:10150000012808D00520FEF7CDFEFEF7ADFF401BF9
:10151000A042ECD3002038BD0200000038B5002006
:101520007D24E40000902046FEF7BCFE00228021CE
:101530000748FEF793FF0220FEF7B4FE012168463C
:1015400000F0B8FE2046FEF7ADFE002038BD0000DA
:1015500000040048F8B505460E46481C00F074FE2D
:10156000012107460170002E15D004466D1EF007BC
:1015700003D068786070641C6D1C70080006000E53
:1015800009D069786170A978A170401EA41CAD1CB7
:101590000006000EF5D1761CF1B2384600F08AFE46
:1015A000384600F0A7FC0020F8BDF0B58446501E78
:1015B000C3B0FF2839D20023684603704370FF236D
:1015C00083701C46D3435B1CC2700371002A1FD07A
:1015D000031D491ED50706D04C7844714C78491C30
:1015E000641EE4B25B1C550800262D062D0E0DD09E
:1015F0004F785F70E4198F789F70F619891C9B1CD7
:101600006D1E2D06E4B2F6B22D0EF1D1A119CCB2A9
:10161000E1438018417100218171D21D91B2604671
:10162000826868469047002801D00020C04343B03C
:10163000F0BD7047704710B5FEF71CFF10BD0000ED
:10164000124801680122114301604168104A1140AB
:10165000416001680F4A1140016001680122920453
:101660009143016041683F22120491434160C16A85
:1016700009090901C162016B074A11400163416B0D
:101680004908490041630021816070470010024011
:101690000CB8FF08FFFFF6FE2CFEFCFF10B4818C97
:1016A000C90707D001684A6801235B049A43836A2B
:1016B0001A434A60818C890707D501684A6801236B
:1016C0001B049A43C36A1A434A60818C490707D5B1
:1016D00001684A6801239B049A43036B1A434A60DA
:1016E000818C090707D501684A680123DB039A4307
:1016F000436B1A434A60818CC90607D5026891681A
:1017000001231B039943836B19439160818C8906E4
:1017100007D501688A6801235B039A43C36B1A43A8
:101720008A60818C490612D503685A68012109052F
:10173000046C8A4322435A60026C8A4207D10268D1
:10174000516803235B059943436C19435160818CB5
:10175000090607D501684A680123DB04806C9A43B7
:1017600002434A6010BC7047F8B50446002580303B
:101770000560FEF779FE074620680068124E0007F4
:1017800009D501213B46002249052046009600F07C
:10179000D1F800280DD12068006840070BD5012141
:1017A0003B46002289052046009600F0C3F8002839
:1017B00001D00320F8BD2020A067E06725666034D3
:1017C00025750020F8BD0000FFFFFF0170B504463D
:1017D00080682169E2690843616900251143084373
:1017E00021680A684A4B1A4002430A60206841682F
:1017F000032212039143E26811434160216AA06908
:101800000143206882680B231B029A430A438260CB
:10181000404A2068404990420AD1086B8007800FF7
:1018200022D0012816D0022816D003281ED10FE09E
:101830003A4A904212D1096B03200004014016D0AD
:1018400001200004091A05D0091A05D081420DD1E2
:1018500002210CE004210AE0082108E03049884216
:1018600002D03049884201D1002100E0102101203E
:10187000E369C0032C4A2D4E834224D1002906D0AF
:10188000022907D0042907D0082938D108E0FEF73B
:10189000A7FF03E0104603E0FEF7B2FF002832D0B6
:1018A000616840004A088018FEF722FC80B20146B9
:1018B0001039B14223D81E4901400007400F0843A8
:1018C0002168C8601FE0002906D0022907D004293A
:1018D00007D0082913D108E0FEF782FF03E0104685
:1018E00003E0FEF78DFF00280DD061684A0810184C
:1018F000FEF7FEFB80B201461039B14201D9012545
:1019000001E02168C86000206066A066284670BDBE
:10191000F369FFEF0038014000100240004400402E
:1019200000480040004C004000127A00EFFF000029
:10193000F0FF0000FFB50446006881B00D460A9E26
:10194000C16917462846884331D00020B8424CD19F
:10195000204660300090701C3FD0FEF785FD049952
:10196000401AB04225D8002E23D0206801684907CC
:1019700033D5C069C04300052FD401202168C002BF
:10198000086220680268FF21A1318A430260206852
:1019900081684908490081602020A067E0678034A1
:1019A0002060009900200875032005B0F0BD0120DB
:1019B000CCE720680168FF22A132914301602068D2
:1019C00081684908490081602020A067E06700998C
:1019D00000200875032005B0F0BD2068C1692846C5
:1019E000884305D00020B842B5D0002005B0F0BD36
:1019F0000120F8E70FB410B503A9044B044A02987C
:101A000000F030F810BC08BC04B01847D91E00081C
:101A100028000020F0B4040C8BB2264682B25E434C
:101A20000D0C1046370C58433604801900217941BB
:101A300016466E43370C36048019794126466E43AC
:101A40008919F0BC704702E008C8121F08C1002ABB
:101A5000FAD170477047002001E001C1121F002A2F
:101A6000FBD17047FFB591B00F460546002606E052
:101A700025280AD0149A139990476D1C761C287853
:101A80000028F5D1304615B0F0BD002400940121A6
:101A9000F34A029400E004436D1C2B780846203B77
:101AA00098401042F7D128782A280ED002212878B1
:101AB0000246303A092A15D8009A0A235A43303A86
:101AC00080180C436D1C0090F1E701CF00900028B6
:101AD00005DA0120400304430098404200900220B0
:101AE00004436D1C28782E2815D1042004436878FF
:101AF0006D1C2A280AD101CF6D1C02900BE00299BF
:101B00000A225143303940186D1C02902878014652
:101B100030390929F3D928786C2810D006DC4C28F4
:101B20001AD068280ED06A2817D104E0742813D080
:101B30007A2812D110E00120400504430CE0012175
:101B4000090501E0032109050C436978814203D1AD
:101B50000120000524186D1C6D1C287803906E2848
:101B60001ED00CDC632831D004DC00288AD0582831
:101B700011D1B2E064287BD069280CD178E07328B9
:101B80002DD004DC6F2870D0702804D1A7E0752810
:101B90006CD078286BD0149A13999047761C62E029
:101BA0006002400F022807D003280AD004283868B2
:101BB0000AD006603F1D56E03868F11706604160A4
:101BC000F8E738680680F5E70670F3E73878694685
:101BD00008740020487404A80390012003E03868CA
:101BE00003900020C0433F1D61070FD5002101E095
:101BF0000199491C029A0191914213DA8142F7DB63
:101C0000019A0399895C0029F2D10BE0002101E0DF
:101C10000199491C01918142FADB019A0399895C7F
:101C20000029F5D101990098139A401A0090214695
:101C3000149B00F03BF901998019461807E00398BE
:101C400003990078491C0391149A139990470198BD
:101C5000401E0190401CF2D12146149B139A00981B
:101C600000F014F986196D1C09E741E033E034E017
:101C70000A200021049005916002410F022905D03D
:101C800001CFC2179446032905D007E0FF1DFF08C6
:101C9000FF0003CF06E000B2C2179446042902D128
:101CA00040B2C1178C4600226146944506DA0A46C6
:101CB0000021404291418C462D2102E0210504D5AE
:101CC0002B216A461176012103E0E10701D0202192
:101CD000F7E7019154E00A200BE0102009E0102002
:101CE000049000210420044308200591029003E0A1
:101CF00008200021059104906002410F022905D0BF
:101D000001CF00229446032906D006E0FF1DFF08FC
:101D1000FF0003CF8C4603E080B2042900D1C0B29B
:101D20000021019121072BD50399702906D0049A2F
:101D30001021059B4A401A4305D00EE040216A4617
:101D40001176012108E06146014306D030216A4640
:101D500011760399517602210191049A0821059B7D
:101D60004A401A430CD16146014301D1610707D5AE
:101D700030216A461176012101910299491E029192
:101D80000399582904D037A103910FA90F910DE0B1
:101D900039A1F9E76146059B049AFEF7BFF9039B59
:101DA0008C469B5C0F9A521E0F9213706146014342
:101DB000F0D10F9807A9081A20300390600704D5C6
:101DC000012000048443029801E00120029003995D
:101DD000884201DD401A00E000204118029001987D
:101DE00009180098401A0090E00306D42146149B7D
:101DF000139A009800F05AF886190020049008E021
:101E000006A9085C149A139990470498401C761C04
:101E1000049001998842F3DBE0030CD52146149B22
:101E2000139A009800F042F8861904E0149A3020C2
:101E300013999047761C0299481E02900029F5DC00
:101E400008E00F980F990078491C0F91149A139984
:101E50009047761C0399481E03900029F1DCFBE6AD
:101E60000928010030313233343536373839616270
:101E70006364656600000000303132333435363734
:101E8000383941424344454600000000F8B5044655
:101E900000251E461746880404D405E03946202054
:101EA000B0476D1C641EF9D52846F8BDFFB5044641
:101EB000002581B01E46C80301D5302700E0202749
:101EC000880404D505E038460399B0476D1C641EAC
:101ED000F9D5284605B0F0BD13B5044B012269467B
:101EE0000348FEF7A9FF009802B010BDFFFF0000F5
:101EF0002401002010B5002823D0124B0022001F1F
:101F0000196803E0814203D80A4649680029F9D1DB
:101F1000002A0AD01368841A9C4204D10068181859
:101F20001060104602E0506000E01860002907D001
:101F300002680B1A934203D10B68D21802604968F9
:101F4000416010BD2C000020E4B0FEF79BFA002099
:101F5000FEF75AF90120FEF757F90220FEF754F96F
:101F60000320FEF751F900245494559456943421DB
:101F700040A85794FEF709F94E94022053944990D3
:101F80004F94202703204D9401264097C00350947E
:101F9000519452944A9048964C964B9440A8FEF720
:101FA00081FC70044D9053944DA8FEF7E7FA07208A
:101FB00054900220559056940121579454A8FEF74E
:101FC00079FB724DE969E8030143E961E969014080
:101FD0006F4858916904046041606E49C1602221D4
:101FE00047610161FEF7A4FAE96928040143E96148
:101FF000E96944940140439458916869B7043843AF
:10200000686168694196384045908020409040A9B9
:1020100042966148FEF758F95F48406980210843BD
:102020005D4948616869384368616869419638402C
:10203000459028204090032640A957484396FEF734
:1020400043F910204090419440A942945248FEF731
:102050003BF942944494A96938110143A961A969E3
:1020600001404591686979100843686168690925EC
:1020700008404590081240900220ED06419040A98A
:1020800043962846FEF720F938124090419440A923
:1020900042942846FEF718F941484049016084609F
:1020A0004B21C460C9010461416084610C21C46199
:1020B0004161FEF759FE3BA0FFF79CFC5AA8FFF7D1
:1020C00023F80120FEF7D0F869465AA8FEF7F2FF80
:1020D000002806D00020FEF7D7F86420FEF7E2F8CB
:1020E000F8E70220FEF7C0F86846827841782FA012
:1020F000FFF780FC5AA8FFF7D7F937A0FFF77AFC63
:102100007D24E4002346002260A95AA8FFF74CF979
:102110000546401C21D038A0FFF76CFC0024002DA0
:1021200008DD60AE315D3AA0FFF764FC641CE4B2E8
:10213000AC42F7DB1CA0FFF75DFC37A0FFF75AFCB1
:1021400000256E462A4669465AA8FEF7FBFF0100A5
:1021500007D036A0FFF74EFCFEE738A0FFF74AFC99
:10216000D0E7294636A0FFF745FC0024315D28A0C2
:10217000FFF740FC641CE4B2042CF7D30AA0FFF77D
:1021800039FC6D1CEDB2872DDCD3E5E70010024071
:10219000340000207FBB00000004004800380140EC
:1021A00024010020686168610D0A0000466F756EA9
:1021B0006420504E35333220776974682066697226
:1021C0006D776172652076657273696F6E3A20254E
:1021D000642E25640D0A000057616974696E6720DA
:1021E000666F7220524649442F4E46432063617207
:1021F000642E2E2E0D0A0000466F756E64206361FA
:1022000072642077697468205549443A20000000C0
:10221000253032782000000052656164696E6720C5
:10222000626C6F636B732E2E2E0D0A004572726FF7
:10223000723A203078253032780D0A002E000000E6
:1022400025643A2000000000F0B50B30C108C90039
:10225000144F0026144A0FE003688B420BD38B42C5
:1022600005D95C1A4318456830C3083B00E0436851
:10227000136002C004E0021D10680028ECD1304653
:10228000002803D13868002801D00020F0BD064A9C
:1022900006481060064A121AD208D20044C0012033
:1022A0003860D7E7300000202C000020AC0100206F
:1022B000A8030020F3B51E4C054681B00022802102
:1022C0002046FEF7CBF80120FDF7ECFF0298002135
:1022D000002823DD1026002002466F5C0123934076
:1022E0001F42636902D020273B4301E02027BB4304
:1022F0006361676908231F436761276940083742A4
:1023000001D08027384367699F436761521C082AC0
:10231000E3DB68540298491C8142DCDB0120FDF7B5
:10232000C1FF012280212046FEF798F803B0F0BDDE
:102330000004004800000000000000000102030447
:102340000607080900000000010203040000FF0066
:10235000FF000500010040000001000280000000B5
:10236000802300080000002034000000461A000806
:10237000B42300083400002074070000561A000837
:1023800000127A00010000000400000000000000BC
:102390000000004800100000000800480008004845
:1023A000000800480008004800000000000000008D
:0423B0000000000029
:04000005080000C12E
:00000001FF
