:020000040800F2
:10000000C806002089010008770300086F03000874
:10001000730300083B02000895050008000000007B
:10002000000000000000000000000000F5030008D0
:100030003F0200080000000079030008E104000806
:10004000A3010008A3010008A3010008A301000800
:10005000A3010008A3010008A3010008A3010008F0
:10006000A3010008A3010008A3010008A3010008E0
:10007000A3010008A3010008A3010008A3010008D0
:10008000A3010008A3010008A3010008A3010008C0
:10009000A3010008A3010008A3010008A3010008B0
:1000A000A3010008A3010008A3010008A3010008A0
:1000B000A3010008A3010008A3010008A301000890
:1000C000A3010008A3010008A3010008A301000880
:1000D000A3010008A3010008A3010008A301000870
:1000E000A3010008A3010008A301000800F002F822
:1000F00000F03AF80AA090E8000C82448344AAF188
:100100000107DA4501D100F02FF8AFF2090EBAE885
:100110000F0013F0010F18BFFB1A43F0010318473B
:10012000CC050000EC050000103A24BF78C878C167
:10013000FAD8520724BF30C830C144BF04680C60ED
:10014000704700000023002400250026103A28BF35
:1001500078C1FBD8520728BF30C148BF0B60704739
:100160001FB51FBD10B510BD00F031F81146FFF7E7
:10017000F7FF00F011FA00F04FF803B4FFF7F2FFB9
:1001800003BC00F053F800000948804709480047C5
:10019000FEE7FEE7FEE7FEE7FEE7FEE7FEE7FEE737
:1001A000FEE7FEE704480549054A064B7047000094
:1001B0001D050008ED000008C8000020C80600204A
:1001C000C8020020C802002070477047704775467B
:1001D00000F028F8AE4605006946534620F00700B7
:1001E000854618B020B5FFF7DDFFBDE820404FF091
:1001F00000064FF000074FF000084FF0000B21F011
:100200000701AC46ACE8C009ACE8C009ACE8C009DD
:10021000ACE8C0098D4670470446AFF30080204625
:10022000FFF7ABFF00487047640000200149182029
:10023000ABBEFEE726000200704700BFFEE7704736
:1002400001B504490098086000BF02480068002812
:10025000FBD108BD000000202DE9F0410246002539
:100260000026002000230024002791F803C00CF092
:100270000F0591F803C00CF0100CBCF1000F03D077
:1002800091F802C04CEA050591F800C0BCF1000FDE
:1002900031D0146800202BE04FF0010C0CFA00F371
:1002A000B1F800C00CEA03069E4220D183004FF053
:1002B0000F0C0CFA03F7BC4305FA03FC4CEA0404E8
:1002C00091F803C0BCF1280F06D14FF0010C0CFAD5
:1002D00000FCC2F814C00AE091F803C0BCF1480F5A
:1002E00005D14FF0010C0CFA00FCC2F810C0401C04
:1002F0000828D1D31460B1F800C0BCF1FF0F34DD81
:10030000546800202EE000F1080C4FF0010808FAB4
:100310000CF3B1F800C00CEA03069E4221D1830021
:100320004FF00F0C0CFA03F7BC4305FA03FC4CEA40
:10033000040491F803C0BCF1280F05D100F1080CAA
:1003400008FA0CF8C2F8148091F803C0BCF1480F09
:1003500007D100F1080C4FF0010808FA0CF8C2F8B8
:100360001080401C0828CED35460BDE8F08100BF47
:10037000FEE700BFFEE770477047000029B1064A5C
:1003800092690243044B9A6104E0034A92698243F2
:10039000014B9A61704700000010024038B50446D6
:1003A0000B4951F824000121FFF7E8FF094830F814
:1003B0001400ADF8000010208DF8030003208DF824
:1003C0000200054951F824006946FFF745FF38BD92
:1003D0004C060008440600081C000020034931F8C0
:1003E0001010034A52F8202011617047440600089B
:1003F0001C000020704710B500F002F810BD00008E
:100400000CB50020019000903348006840F4803023
:100410003149086000BF3048006800F400300090A7
:100420000198401C0190009818B90198B0F5A06F90
:10043000F1D12948006800F4003010B1012000908B
:1004400001E0002000900098012843D12348006873
:1004500040F01000214908600846006820F00300C1
:1004600008600846006840F0020008601A484068CA
:10047000194948600846406848600846406840F4AA
:10048000806048600846406820F47C104860084658
:10049000406840F4E81048600846006840F080700A
:1004A000086000BF0C48006800F000700028F9D018
:1004B0000948406820F00300074948600846406842
:1004C00040F00200486000BF0348406800F00C00A4
:1004D0000828F9D10CBD00000010024000200240A5
:1004E00010B500F04BF80B480068C043094908609C
:1004F0000846006830B10848006820F0FF0006494F
:10050000086005E00448006840F080000249086087
:1005100010BD0000040000200C0C014010B5134871
:10052000006840F001001149086008464068104921
:1005300008400E494860084600680E4908400B49CB
:1005400008600846006820F480200860084640687B
:1005500020F4FE0048604FF41F008860FFF74BFF57
:100560004FF000600449086010BD00000010024018
:100570000000FFF8FFFFF6FE08ED00E00448006809
:1005800020B103480068401E014908607047000020
:100590000000002000BFFEE70020FFF7FFFE012063
:1005A000FFF7FCFE0220FFF7F9FE0320FFF7F6FE3F
:1005B0000020FFF713FF0220FFF710FF1D4800681F
:1005C0004FF47A72B0FBF2F1B1F1807F01D30120D8
:1005D0001DE021F07F40401E4FF0E0225061501797
:1005E0000F22002807DA13071D0E134B00F00F042B
:1005F000241F1D5503E013071C0E104B1C5400BF95
:1006000000204FF0E022906107201061002008B127
:1006100000BFFEE70CE00520094908603220FFF723
:100620000FFE05200649091D08603220FFF708FE6D
:10063000F1E700000800002018ED00E000E400E011
:100640001014014040008000000100021000000072
:100650001000000010000000100000000100002049
:100660000002010002000001004000100400000030
:1006700010000000080000004000000040000000E2
:1006800020000000200000002000000001000020E9
:100690000002010002000001004000100000020002
:1006A00001000400040003000300030000000D002B
:1006B00009000000010008000E000C0006002800E0
:1006C000170006000700170028002800004000005F
:1006D00000000200040000002000000004000000F0
:1006E0002000000000022000000440000C07000869
:1006F00000000020640000002801000870070008C6
:1007000064000020640600004401000800000000AE
:100710000000000000A24A040000000000000000E9
:1007200001020304060708090010014000100140FF
:10073000001001400010014000080140001001407D
:10074000000C014000180140001801400014014055
:1007500000140140001401400038014000440040F2
:10076000000801400014014000080140001401404D
:04000005080000ED02
:00000001FF
