:020000040800F2
:100000007802002095040008990400089B04000869
:100010009D0400089F040008A104000800000000DF
:10002000000000000000000000000000A304000821
:10003000A504000800000000A7040008A9040008A7
:10004000AB040008AB040008AB040008AB040008D4
:10005000AB040008AB04000855050008750500084E
:10006000AB040008AB040008AB040008AB040008B4
:10007000AB040008AB040008AB040008AB040008A4
:10008000AB040008AB040008AB040008AB04000894
:10009000AB040008AB040008AB040008AB04000884
:1000A000AB040008AB040008AB040008AB04000874
:1000B000AB040008AB040008AB040008AB04000864
:1000C000AB040008AB040008AB040008AB04000854
:1000D000AB040008FD04000829050008AB04000873
:1000E000AB040008AB040008AB04000800F002F801
:1000F00000F03FF80AA090E8000C82448344AAF183
:100100000107DA4501D100F034F8AFF2090EBAE880
:100110000F0013F0010F18BFFB1A43F0010318473B
:10012000FC0700001C080000103A24BF78C878C102
:10013000FAD8520724BF30C830C144BF04680C60ED
:10014000704700000023002400250026103A28BF35
:1001500078C1FBD8520728BF30C148BF0B60704739
:10016000632900F06183002070471FB51FBD10B5E3
:1001700010BD00F08FFB1146FFF7F7FF00F04CFABF
:1001800000F0ADFB03B4FFF7F2FF03BC00F095FAFB
:100190001220AE4908607047AD48AE494860AE488D
:1001A000086000BFAB48006800F400300028F9D0B8
:1001B00000BFA848006800F000700028F9D000BF18
:1001C000A448406800F00C000828F9D17047704737
:1001D00045F25550A14908600220486040F69F70E2
:1001E00088604AF6AA2008604CF6CC400860704748
:1001F00070479848C06940F080509649C861984857
:10020000006840F48070964908609248006A40F0A7
:1002100001009049086200BF8E48006A00F00200A9
:100220000028F9D08B48006A40F4014089490862EF
:100230008C48008840F010008A4908800020091D81
:10024000088047F6FF70091D088000208549143199
:100250000880091D0880091D08803C20091D0880B0
:1002600001208049091F08807F48006840F008008D
:100270004FF0E021C1F800017A48008820F010001A
:100280007849088000BF7748008800F020000028E7
:10029000F9D07348006820F4807071490860704795
:1002A0006C48C06940F001006A49C86100208904B7
:1002B000088542F62F2088850020088088800885E0
:1002C00048208885002088860887052088870020A8
:1002D0006649088009060883602088838815088499
:1002E00000200881042008800020888008460088BB
:1002F00040F00100088070475648806940F00400D3
:100300005449886140F60430594908600020091DAD
:1003100008605048806940F008004E49886155489F
:10032000554908605548091D08604A48806940F0F1
:100330001000484988610020514908604FF480004E
:10034000486070474F48406820F004004D494860BD
:100350004048806940F004003E4988614448001DDF
:10036000006820F47F604249091D08600846006863
:1003700040F0B00008600846006840F48060086003
:100380003448806940F480403249886141F64C50DD
:100390003D4908800020091D0880091D0880081FAC
:1003A0000088091F0880002037490C310880364832
:1003B000001D008840F00C003349091D08800846E4
:1003C000008840F40050088070477047704721480B
:1003D000C06940F000601F49C8610846C06940F02C
:1003E0008050C8611E48006840F480701C49086055
:1003F000002026490880091D08800846008840F032
:10040000030008801648006820F4807014490860D2
:100410001E48001D008800F0040038B11248006832
:1004200040F004004FF0E021C1F80001704700B532
:10043000FFF7AEFEFFF7B0FEFFF732FFFFF75CFFFE
:10044000FFF780FF00BD1248704700000020024007
:1004500002841D00001002408200010100300040B3
:10046000007000400428004000E100E0400000402F
:1004700000080140000030FF000C014000404444EF
:10048000001001400000014008380140306C00407D
:1004900080F9370308480047FEE7FEE7FEE7FEE77E
:1004A000FEE7FEE7FEE7FEE7FEE7FEE70348044956
:1004B000024A044B70470000ED000008780000205D
:1004C000780200207800002000BF5849098801F018
:1004D00080010029F9D0C0F30801544A121D11808F
:1004E000704700BF5148008800F020000028F9D074
:1004F0004E48001D0088C0F30800704738B54B48CF
:1005000000880090009800F0200060B14748008803
:1005100020F0200045490880081D0088C4B221460B
:1005200043A000F00BF938BD38B54448008800906E
:10053000009800F0200060B14048008820F02000C2
:100540003E490880081D0088C4B221463CA000F046
:10055000F5F838BD10B53D48006800F0010040B125
:100560003BA000F0EBF83948006840F00100374943
:10057000086010BD10B53548006800F0020050B1A9
:1005800033A000F0DBF800F0B5F93048006840F027
:1005900002002E49086010BD3448406940F0010057
:1005A0003249486132483349486133480861032081
:1005B000C86042F2A05088600846806840F00100A0
:1005C00088602A48806940F40070284988614FF4A7
:1005D000001029492039086040F641402649183961
:1005E000086040F6683024493C3908608815224983
:1005F000483908602148091D08600846006840F431
:10060000A0000860704701B502E00098401E00900D
:1006100000980028F9D108BDFFF709FF18481949CB
:10062000086000BFFEE700BFFEE7000000380140A1
:10063000756172742031203A202563000044004027
:100640007561727432203A20256300001404014061
:10065000696E206578746930206972712068616EF6
:10066000646C65722E2E2E0D0A00000000100240F0
:1006700000000020000002404C24014003010E0055
:100680000C0000200800002070B504460D462046EE
:10069000FFF71AFF70BD70B50546FFF722FF04464D
:1006A000FFF712FF70BD10B504462046FFF70CFFA0
:1006B00010BD01464FF0FF30704700BFFEE700005D
:1006C00030BF704720BF704740BF7047BFF36F8F88
:1006D0007047BFF34F8F7047BFF35F8F704701DFE5
:1006E0007047EFF31480704780F31488BFF36F8F67
:1006F0007047EFF30980704780F309887047EFF384
:100700000880704780F30888704762B6704772B6F9
:100710007047EFF31080704771B6704761B670474D
:10072000EFF31380704780F311887047EFF3128066
:10073000704740BA704700BA704770470FB4044919
:1007400010B503AA029800F07BF810BC5DF814FB0A
:10075000100000202DE9F0410E46044600202062E2
:100760002046E168884730B3252805D0D4E9012127
:100770009047206A401CF2E7E1682046002788473E
:10078000050018D0A5F14100192802D820354FF4F2
:1007900000673246294620462760FFF7E1FC40B15A
:1007A000012804D0F61D26F007060836D8E7361DC6
:1007B000D6E72846DAE7206ABDE8F08170B50C4636
:1007C0000546012A05D02878800600D5EA6900236D
:1007D00002E0012305E05B1C934202D2E05C0028AA
:1007E000F9D1A869E618C01AA861286A18442862D5
:1007F0002846AFF3008004E0D5E9012114F8010B8D
:100800009047B442F8D32846AFF3008070BD7047DC
:100810007047704710B5436913B1AFF3008001E032
:10082000FFF7CCFF012010BD127800F124010A70FF
:1008300000224A700122EDE711684FF0FF32E9E72C
:10084000074B70B50D467B4400F011F8044628466E
:10085000FFF72FFF10B14FF0FF3070BD204670BD85
:100860003FFEFFFF01694A1C02610878704700B52E
:100870008FB0CDE901310021059105497944CDE9D9
:10088000031011466846FFF765FF0FB000BD00007A
:10089000E5FFFFFF754600F029F8AE460500694602
:1008A000534620F00700854618B020B5FFF7FEFD3F
:1008B000BDE820404FF000064FF000074FF0000861
:1008C0004FF0000B21F00701AC46ACE8C009ACE8E2
:1008D000C009ACE8C009ACE8C0098D4670470446C1
:1008E000AFF300802046FFF74DFC00000048704742
:1008F000180000200748016841F004010160016808
:1009000041F0020101600448016841F00401016006
:10091000FFF7D6BE0070004010ED00E03C09000873
:1009200000000020180000002801000854090008F9
:1009300018000020600200004401000800000000D0
:100940000000000000000000785634120000000093
:0409500000000000A3
:04000005080000ED02
:00000001FF
