:020000040800F2
:100000008805002001010008E91100082D0A0008F8
:10001000E51100086D010008C1190008000000008A
:1000200000000000000000000000000001150008B2
:100030008D08000800000000D9120008ED15000826
:100040001B0100081B0100081B0100081B01000820
:100050001B0100081B0100081B0100081B01000810
:100060001B0100081B0100081B0100081B01000800
:100070001B0100081B0100081B0100081B010008F0
:1000800071010008E50100081B0100081B010008C0
:100090001B0100081B0100081B0100081B010008D0
:1000A0001B0100081B0100081B0100081B010008C0
:1000B0001B0100081B0100081B0100081B010008B0
:1000C0001B0100081B0100081B0100081B010008A0
:1000D0001B0100081B0100081B0100081B01000890
:1000E0001B0100081B0100081B010008DFF80CD0F1
:1000F00000F018F800480047E919000888050020BA
:100100000648804706480047FEE7FEE7FEE7FEE7B1
:10011000FEE7FEE7FEE7FEE7FEE7FEE7F115000873
:10012000ED000008064C074D06E0E06840F00103D2
:1001300094E8070098471034AC42F6D3FFF7DAFF93
:100140007C2500089C25000810B5034607E01878B8
:100150000C78A04201D0002010BD5B1C491C10008F
:10016000A2F10104A2B2F2D10120F5E700BFFEE73F
:1001700010B54FF4001000F0A3F940B3002114486B
:1001800000F06EF84FF4801000F04AF84FF4204071
:100190001049086007E00F490868411E0D4A1160C8
:1001A00008B901F0D3FE0C490C4800F013FE0028FA
:1001B000F1D00121094800F0E3FD0848143000881F
:1001C000064818300088002005490968087010BDED
:1001D0006C000240B40000200400001000540040F5
:1001E000BC00002010B54FF0007000F069F978B144
:1001F0000121084800F0C4FD0021074800F030F854
:100200004FF0807000F00CF8002004490968088065
:1002100010BD00000054004080000240B8000020E3
:1002200010B5044604F0704010B10948204008B9E8
:1002300004B104E040F20E21064801F0D2FB04F0C4
:10024000805010B10448046001E00448446010BDCF
:100250000000F0EF0C2400080404024000000240FB
:1002600070B504460D46244884422AD022481430F2
:10027000844226D020482830844222D01E483C3078
:1002800084421ED01C48503084421AD01A48643030
:10029000844216D018487830844212D017488442DD
:1002A0000FD01648143084420BD0144828308442B2
:1002B00007D012483C30844203D01048503084426A
:1002C00000D104E040F229110D4801F08AFB0DB184
:1002D000012D00D104E04FF49571094801F081FB34
:1002E00025B1206840F00100206004E020684FF64E
:1002F000FE710840206070BD080002400804024002
:100300000C24000810B504466A4884422AD0694883
:100310001430844226D067482830844222D0654871
:100320003C3084421ED06348503084421AD0614829
:100330006430844216D05F487830844212D05E48E0
:1003400084420FD05C48143084420BD05A48283085
:10035000844207D058483C30844203D0564850303D
:10036000844200D103E06F21544801F03AFB206839
:100370004FF6FE7108402060002020606060A060A1
:10038000E0604C48844208D14A480838406840F050
:100390000F004849083948608AE0464814308442D2
:1003A00008D144480838406840F0F0004149083915
:1003B00048607DE03F482830844208D13D480838F5
:1003C000406840F470603B490839486070E0394843
:1003D0003C30844208D137480838406840F47040C7
:1003E00034490839486063E032485030844208D1CB
:1003F00030480838406840F470202E490839486079
:1004000056E02C486430844208D12A4808384068B5
:1004100040F4700027490839486049E025487830A1
:10042000844208D123480838406840F07060214970
:10043000083948603CE02048844206D1001F00682B
:1004400040F00F00211F086032E01B481430844246
:1004500008D11948001F006840F0F0001649091F34
:10046000086025E014482830844208D11248001F53
:10047000006840F470601049091F086018E00E48D9
:100480003C30844208D10C48001F006840F47040A2
:100490000949091F08600BE007485030844207D122
:1004A0000548001F006840F470200349091F0860D8
:1004B00010BD000008000240080402400C2400089F
:1004C00070B5044600250026012C7DD0022C7BD07F
:1004D000042C79D0082C77D0102C75D0202C73D018
:1004E000402C71D0802C7FD0B4F5807F7CD0B4F5C7
:1004F000007F79D0B4F5806F76D0B4F5006F73D0FB
:10050000B4F5805F70D0B4F5005F6DD0B4F5804F66
:100510006AD0B4F5004F67D0B4F5803F64D0B4F52D
:10052000003F61D0B4F5802F5ED0B4F5002F5BD0D2
:10053000B4F5801F58D0B4F5001F55D0B4F5800F26
:1005400052D0B4F5000F4FD0B4F1807F4CD0B4F14D
:10055000007F49D0B4F1806F46D0B4F1006F43D032
:100560002C48844240D0401C84423DD0801C8442B0
:100570003AD0001D844237D026480F30844233D011
:1005800024481F3084422FD022483F3084422BD051
:1005900020487F30844227D01E48FF30844223D039
:1005A0001D48844220D01D4884421DD01C488442EE
:1005B0001AD0B4F1102F17D04FEAF030844213D084
:1005C0001848844210D000E00EE0174884420BD057
:1005D0001648844208D01648844205D01548844203
:1005E00002D01548844200D104E040F2B71113480C
:1005F00001F0F7F904F0805010B11148066801E0ED
:100600001048066806EA040008B1012500E000254C
:10061000284670BD01000010000200100004001008
:1006200000080010004000100080001000000110C1
:100630000000021000000410000008100C24000844
:10064000000402400000024070B504460D46164604
:10065000274884422AD026481430844226D0244891
:100660002830844222D022483C3084421ED0204888
:10067000503084421AD01E486430844216D01C4840
:100680007830844212D01B4884420FD0194814306D
:1006900084420BD017482830844207D015483C309C
:1006A000844203D013485030844200D104E040F229
:1006B0004911114801F095F925F00E0008B905B16E
:1006C00004E04FF4A5710C4801F08BF90EB1012E36
:1006D00000D104E040F24B11074801F082F91EB14D
:1006E00020682843206002E02068A843206070BD95
:1006F00008000240080402400C24000870B50546BA
:100700000C4600265E4885422AD05D48143085425A
:1007100026D05B482830854222D059483C3085425B
:100720001ED05748503085421AD055486430854213
:1007300016D053487830854212D0524885420FD0A7
:100740005048143085420BD04E482830854207D09F
:100750004C483C30854203D04A485030854200D155
:1007600003E0CF21484801F03CF9A068102801D0EF
:10077000A06800B903E0D021434801F032F9E068F5
:1007800020B1E068B0F5803F00D203E0D1213E48BF
:1007900001F027F92069402801D0206900B903E061
:1007A000D221394801F01DF96069802801D06069C3
:1007B00000B903E0D321344801F013F9A06938B13E
:1007C000A069B0F5807F03D0A069B0F5007F00D1AB
:1007D00003E0D4212C4801F004F9E06938B1E06964
:1007E000B0F5806F03D0E069B0F5006F00D103E091
:1007F000D521254801F0F5F8206A202801D0206A8B
:1008000000B903E0D621204801F0EBF8606AB0F5AA
:10081000405F09D0606AB0F5005F05D0606AB0F54E
:10082000805F01D0606A00B903E0D721164801F06B
:10083000D8F8A06AB0F5804F01D0A06A00B903E0F3
:10084000D821114801F0CDF82E6847F6F0708643A4
:10085000216AA06808432169084361690843A169C6
:100860000843E1690843616A0843A16A08430643F3
:100870002E60E06868602068A8606068E86070BD0D
:1008800008000240080402400C24000870470000E1
:100890002DE9F05F05460C464FF00009CA460026D8
:1008A0000027B046B3465948854211D05848854282
:1008B0000ED0584885420BD05748854208D057483B
:1008C000854205D05648854202D05648854200D11F
:1008D00003E0B221544801F084F8E078A0B1E07858
:1008E000042811D0E07828280ED0E07848280BD0D2
:1008F000E078142808D0E078102805D0E0781C288B
:1009000002D0E078182800D103E0B321464801F076
:1009100068F8002010B9208800B103E0B4214248F3
:1009200001F05FF8E07800F00F09E07800F01000C7
:1009300080B1A078012805D0A078022802D0A07844
:10094000032800D103E0BB21374801F04AF8A07822
:1009500040EA0909207838B3D5F8008000261FE066
:10096000012000FA06F7208800EA070ABA4516D1E6
:10097000B7000F2000FA07FB28EA0B0809FA07F076
:1009800040EA0808E078282803D10120B0406861D7
:1009900005E0E078482802D10120B0402861761CAB
:1009A000082EDDD3C5F800802088FF282BDDD5F880
:1009B0000480002623E006F10800012101FA00F777
:1009C000208800EA070ABA4518D1B7000F2000FABC
:1009D00007FB28EA0B0809FA07F040EA0808E07864
:1009E000282803D106F1080081406961E078482891
:1009F00004D106F10800012181402961761C082EEE
:100A0000D9D3C5F80480BDE8F09F0000000801407C
:100A1000000C01400010014000140140001801408A
:100A2000001C0140002001405424000800BFFEE7E4
:100A300070B504460D461048844202D00F488442E7
:100A400000D104E040F2BD110D4800F0CAFF0DB125
:100A5000012D00D104E04FF4DF71094800F0C1FF1F
:100A600025B1208840F48060208004E020884FF683
:100A7000FF310840208070BD005400400058004005
:100A8000A02400082DE9F04705460C460027B9468A
:100A90000026B0463348854202D03348854200D113
:100AA00004E040F20D41314800F09BFF30488442A1
:100AB0003DD0B4F1021F3AD02E48844237D0B4F56D
:100AC000020F34D0B4F5901F31D02B4884422ED081
:100AD0002A4884422BD02A48844228D02448801CAB
:100AE000844224D02348001D844220D025488442DB
:100AF0001DD0102C1BD02448844218D02348844297
:100B000015D02148401C844211D01F483F308442F8
:100B10000DD01E48801C844209D0001F844206D09C
:100B20001948C01D844202D0B4F5806F00D104E0A2
:100B300040F20E410D4800F054FFB5F814902E8B92
:100B4000360449EA060020F07F4707EA0400A04285
:100B500002D14FF0010801E04FF000084046BDE827
:100B6000F08700000054004000580040A024000816
:100B700082000600800086004000020040008200E3
:100B800040001200840016000100030082000700EC
:100B900070B504460D4600260D48844202D00D482B
:100BA000844200D104E04FF498610B4800F019FF33
:100BB00042F2FF00284008B905B104E040F2C1410B
:100BC000054800F00EFF25F07F46F043A08270BD7F
:100BD0000054004000580040A024000870B50446AE
:100BE0000D461048844202D00F48844200D104E0F0
:100BF00040F245110D4800F0F4FE0DB1012D00D179
:100C000004E04FF4A371094800F0EBFE25B1208801
:100C100040F00100208004E020884FF6FE7108407B
:100C2000208070BD0054004000580040A0240008FF
:100C300070B504460D461048844202D00F488442E5
:100C400000D104E040F25D110D4800F0CAFE0DB184
:100C5000012D00D104E04FF4AF71094800F0C1FE4E
:100C600025B1A08840F40060A08004E0A0884FF285
:100C7000FF710840A08070BD005400400058004043
:100C8000A024000870B504460D461048844202D0E6
:100C90000F48844200D104E040F275110D4800F085
:100CA000A0FE0DB1012D00D104E04FF4BB71094845
:100CB00000F097FE25B1A08840F48050A08004E0A9
:100CC000A0884EF6FF710840A08070BD005400401F
:100CD00000580040A024000810B504461048844283
:100CE00002D01048844200D103E0A5210E4800F054
:100CF00078FE0B48844209D10121480500F042FBEF
:100D000000214FF4001000F03DFB08E001218805B0
:100D100000F038FB00214FF4800000F033FB10BDE1
:100D20000054004000580040A024000870B504465C
:100D30000D461048844202D00F48844200D104E09E
:100D400040F28D110D4800F04CFE0DB1012D00D187
:100D500004E04FF4C771094800F043FE25B1208834
:100D600040F48070208004E020884FF6FF61084046
:100D7000208070BD0054004000580040A0240008AE
:100D800070B504460D461048844202D00F48844294
:100D900000D104E040F2A5110D4800F022FE0DB193
:100DA000012D00D104E04FF4D371094800F019FE81
:100DB00025B1208840F40070208004E020884FF6A0
:100DC000FF510840208070BD005400400058004092
:100DD000A02400087CB505460C46002600200190A2
:100DE00000903648854202D03548854200D104E063
:100DF00040F27341334800F0F4FDB4F5000F3FD0EA
:100E0000B4F5800F3CD0B4F5001F39D0B4F5801F85
:100E100036D0B4F5802F33D0B4F5003F30D0B4F5E0
:100E2000803F2DD0284884422AD02848844227D0A9
:100E3000B4F1102F24D02648844221D02548844282
:100E40001ED0254884421BD02448844218D0234811
:100E50008038844214D02148C038844210D01F48C2
:100E6000F03884420CD01D48F838844208D0001F66
:100E7000844205D0801E844202D0401E844200D1AC
:100E800004E040F274410F4800F0ABFD0095200FE4
:100E9000019024F07F44019818B10098143000901C
:100EA00003E0240C0098183000900098006820405F
:100EB00008B1012600E0002630467CBD0054004009
:100EC00000580040A02400080080001000400010DE
:100ED00000080010000400100002001000010010C3
:100EE00070B504460D4616461448844202D0144894
:100EF000844200D104E04FF40971124800F071FD02
:100F00000EB1012E00D104E040F225210D4800F081
:100F100068FD4FF6FF00284008B905B104E040F233
:100F20002621084800F05DFD1EB1A0882843A0805E
:100F300002E0A088A843A08070BD000000540040DB
:100F400000580040A02400082DE9F04385B0054674
:100F50000C460026B1460427DFF870815C488542C4
:100F600002D05C48854200D103E0C6215A4800F017
:100F700038FD206820B159492068884200D803E034
:100F8000C721554800F02DFDA08828B1A08802286F
:100F900002D0A0880A2800D103E0C8214E4800F002
:100FA00020FDE088B0F5804F04D0E0884BF6FF715B
:100FB000884200D103E0C921474800F012FD208992
:100FC000B0F5806F00DA03E0CA21434800F009FD64
:100FD0006089B0F5806F01D0608900B903E0CB2152
:100FE0003D4800F0FEFCA089B0F5804F03D0A089F9
:100FF000B0F5404F00D103E0CC21374800F0F1FCC0
:10100000AE884FF6C0700640684600F00FFADDF873
:1010100008803348B8FBF0F01FFA80F946EA090669
:10102000AE8028884FF6FE710840288000262D49A2
:10103000206888420CD820684000B8FBF0F087B2E6
:10104000042F00DA04273E4309F10100288427E039
:10105000E0884BF6FF71884206D1206800EB400023
:10106000B8FBF0F087B209E0206800EBC00101EBAB
:101070000010B8FBF0F087B247F48047C7F30B00CD
:1010800008B947F0010747F4004006434FF4967053
:1010900009FB00F04FF47A7190FBF1F0401C2884BA
:1010A000AE83288840F0010028802E884FF6F53066
:1010B0000640A0886189084306432E80A0892189C3
:1010C0000843288105B0BDE8F083000000127A00D3
:1010D0000054004000580040A0240008801A060078
:1010E00040420F00A086010010B504460748844224
:1010F00002D00748844200D104E040F24A2105486A
:1011000000F06FFC208AC0B210BD00000054004007
:1011100000580040A024000870B504460E4615464D
:101120000E48844202D00E48844200D104E04FF4BD
:1011300017710C4800F055FC0DB1012D00D104E0F1
:1011400040F25D21074800F04CFC15B146F0010665
:1011500002E04FF6FE700640268270BD005400404B
:1011600000580040A024000870B504460D4607480A
:10117000844202D00648844200D104E040F23D217E
:10118000044800F02EFC258270BD00000054004091
:1011900000580040A02400081FB51048FFF79CFD30
:1011A0000020ADF804004BF6FF70ADF806003020CB
:1011B000ADF808004FF48060ADF80A000001ADF80A
:1011C0000C000748009069460448FFF7BDFE012265
:1011D00011020248FFF784FE1FBD000000540040CA
:1011E000A086010000BFFEE7704700002DE9F04136
:1011F0000446002500270F26E07810B1E07801288A
:1012000000D103E0752121A000F0EBFB60781028ED
:1012100000DA03E076211DA000F0E3FBA07810289F
:1012200000DA03E0772119A000F0DBFBE07800B3DF
:101230002648006800F4E060C0F5E060050AC5F1EA
:101240000407EE40607800FA07F5A07830400543C7
:101250002D011F4822788554207800F01F010120BD
:10126000884021784911890001F1E021C1F800018D
:1012700009E0207800F01F010120884015492278FC
:10128000521141F82200BDE8F08100002E2E5C2EA4
:101290002E5C2E2E5C2E2E5C2E2E5C4C69627261B2
:1012A000726965735C53544D3332463130785F5305
:1012B00074645065726970685F4472697665725CC7
:1012C0007372635C6D6973632E6300000CED00E064
:1012D00000E400E080E100E07047000070B50446E3
:1012E0000D4640F2575024EA000008B904B104E06A
:1012F00040F22B410C4800F074FB0DB1012D00D1E0
:1013000004E040F22C41084800F06BFB2DB1074887
:10131000406920430549486104E004484069A0430E
:101320000249486170BD0000E82400080010024036
:1013300070B504460D461048204008B904B104E0D9
:1013400040F269410D4800F04CFB0DB1012D00D178
:1013500004E040F26A41094800F043FB2DB108481F
:10136000C06920430649C86104E00548C069A0433C
:101370000349C86170BD000000360181E8240008FF
:101380000010024070B504460D461048204008B9D0
:1013900004B104E040F2C3410D4800F022FB0DB15E
:1013A000012D00D104E040F2C441094800F019FBCE
:1013B0002DB10848006920430649086104E005484A
:1013C0000069A0430349086170BD00000036018137
:1013D000E82400080010024070B504460D4610488D
:1013E000204008B904B104E040F24A410D4800F041
:1013F000F8FA0DB1012D00D104E040F24B4109484B
:1014000000F0EFFA2DB10848806920430649886151
:1014100004E005488069A0430349886170BD00006D
:101420000200C0FFE82400080010024030B500218F
:101430000022002400232D4D6D6805F00C0121B120
:10144000042905D0082923D105E0294D056022E0B3
:10145000274D05601FE0254D6D6805F47012234D82
:101460006D6805F48034022505EB92421CB9214DCC
:10147000554305600BE01D4D6D6805F400351DB149
:101480001C4D5543056002E0194D5543056002E0CF
:10149000174D056000BF00BF144D6D6805F0F001E9
:1014A0000909154D6B5C0568DD4045600F4D6D68A1
:1014B00005F4E061090A104D6B5C4568DD4085600C
:1014C0000A4D6D6805F46051C90A0B4D6B5C4568A7
:1014D000DD40C560054D6D6805F44041890B074D41
:1014E0006B5CC568B5FBF3F5056130BD00100240CB
:1014F00000127A0000093D009C000020AC00002092
:10150000704710B500F002F810BD00000CB50020C7
:10151000019000903348006840F480303149086001
:1015200000BF3048006800F4003000900198401C73
:101530000190009818B90198B0F5A06FF1D1294831
:10154000006800F4003010B10120009001E000209C
:1015500000900098012843D12348006840F0100013
:10156000214908600846006820F00300086008462A
:10157000006840F0020008601A4840681949486055
:101580000846406848600846406840F4806048600B
:101590000846406820F47C1048600846406840F4E3
:1015A000E81048600846006840F08070086000BF9E
:1015B0000C48006800F000700028F9D00948406825
:1015C00020F00300074948600846406840F00200E8
:1015D000486000BF0348406800F00C000828F9D1BB
:1015E0000CBD0000001002400020024070470000C7
:1015F00010B51348006840F0010011490860084622
:101600004068104908400E494860084600680E4985
:1016100008400B4908600846006820F480200860F4
:101620000846406820F4FE0048604FF41F008860C0
:10163000FFF767FF4FF000600449086010BD00002D
:10164000001002400000FFF8FFFFF6FE08ED00E08A
:1016500070B504460D46154884420BD014488442A8
:1016600008D01448844205D01348844202D013485D
:10167000844200D104E04FF4B171114800F0B1F997
:101680000DB1012D00D104E040F263110C4800F0CF
:10169000A8F925B1A08940F40050A08104E0A089F8
:1016A0004DF6FF710840A08170BD00000038014078
:1016B0000044004000480040004C00400050004002
:1016C0003025000870B505460C46002625488542A1
:1016D0000BD02548854208D02448854205D02448AF
:1016E000854202D02348854200D104E040F26E31A9
:1016F000214800F076F9012C13D0802C11D0402C19
:101700000FD0202C0DD0102C0BD0B4F5807F08D03A
:10171000B4F5007F05D0082C03D0042C01D0022C96
:1017200000D104E040F26F31134800F05AF9B4F5EB
:10173000007F0ED10B48854205D00B48854202D070
:101740000A48854200D104E040F273310A4800F0B3
:1017500048F92888204008B1012600E000263046DC
:1017600070BD0000003801400044004000480040C7
:10177000004C004000500040302500082DE9F047A3
:1017800086B005460C460026B24600BFB14600278B
:101790006B4885420BD06B48854208D06A48854229
:1017A00005D06A48854202D06948854200D103E0ED
:1017B000B821684800F015F9206820B16649206812
:1017C000884200D203E0B921624800F00AF9A088FB
:1017D00018B1A088B0F5805F00D103E0BA215D4860
:1017E00000F0FFF8E08858B1E088B0F5805F07D0DE
:1017F000E088B0F5005F03D0E088B0F5405F00D12D
:1018000003E0BB21534800F0ECF8208938B120896F
:10181000B0F5806F03D02089B0F5C06F00D103E030
:10182000BC214C4800F0DDF860894FF6F3710840A8
:1018300010B9608900B103E0BD21464800F0D1F83D
:10184000A08958B1A089B0F5807F07D0A089B0F5F4
:10185000007F03D0A089B0F5407F00D103E0BE2116
:101860003C4800F0BEF8A08968B13548854205D0F3
:101870003448854202D03448854200D103E0C22179
:10188000344800F0AEF82F462E8A4CF6FF70064022
:10189000E08806432E82AE894EF6F3100640A088FB
:1018A00021890843618908430643AE81AE8A4FF619
:1018B000FF400640A0890643AE8201A8FFF7B6FDAF
:1018C0001F48874202D1DDF810A001E0DDF80CA02E
:1018D000A88900F4004040B10AEBCA0000EB0A10EE
:1018E00021684900B0FBF1F807E00AEBCA0000EB01
:1018F0000A1021688900B0FBF1F86420B8FBF0F011
:1019000006013009642101FB1089A88900F4004018
:1019100040B1322000EBC900B0FBF1F000F007004D
:10192000064308E0322000EB09106421B0FBF1F01F
:1019300000F00F0006432E8106B0BDE8F0870000DE
:10194000003801400044004000480040004C004086
:10195000005000403025000821AA440070B504461C
:101960000D46114884420BD01048844208D01048DC
:10197000844205D00F48844202D00F48844200D1EF
:1019800004E040F253210D4800F02BF8B5F5007F3C
:1019900000DA04E04FF41571084800F022F8C5F3AE
:1019A0000800A08070BD00000038014000440040E5
:1019B00000480040004C0040005000403025000826
:1019C00000BFFEE702E008C8121F08C1002AFAD1D2
:1019D00070477047002001E001C1121F002AFBD1AF
:1019E000704700BFFEE7000008B5012144F2050082
:1019F000FFF7F2FC4FF48060ADF8000004208DF892
:101A0000030069463448FEF743FF4FF40070ADF819
:101A1000000003208DF8020018208DF803006946AD
:101A20002D48FEF735FF4FF4E1302C4908600020C7
:101A30008880C880088188810C2048812848FFF769
:101A40009DFE01212648FFF703FE31212448FFF7C0
:101A500085FFFFF7A1FB00F055F80822502121482F
:101A600000F0EEFA0820204908800A4650211F485D
:101A700000F056F908221D491A48FEF765FB1C497B
:101A8000087008460078012810D100240BE03121AD
:101A90001348FFF763FF00BF80211148FFF712FED4
:101AA0000028F9D0641C0A2CF1DB10E000240BE0C4
:101AB00030210B48FFF752FF00BF80210848FFF795
:101AC00001FE0028F9D0641C0A2CF1DB00BF00F0F5
:101AD00011F800BFFEE70000000801404C010020A3
:101AE00000380140000000209A00002090000020F3
:101AF0009800002010B500F051F810BD72B6704784
:101B000062B670471FB500F097F80020ADF80400EA
:101B10004BF6FF70ADF80600A020ADF808004FF4BA
:101B20008060ADF80A000001ADF80C000848009094
:101B300001210848FFF752F869460648FFF704FA02
:101B400001210448FFF774F8A020034908801FBD55
:101B5000E093040000540040B000002070B504463B
:101B60000D46164656B90B48446010200949886056
:101B70000846C5600848FEF7C1FD0AE00548446014
:101B80000020044988600846C56003481430FEF709
:101B9000B5FD70BD5C0100206C0002401CB5002149
:101BA0002248FFF71BF82148FFF796F800214FF471
:101BB0000010FFF7BDFB4020ADF8040004208DF8B5
:101BC000070001A91A48FEF763FE8020ADF8040063
:101BD00001A91748FEF75CFE10208DF800000020D8
:101BE0008DF801008DF802008DF803006846FFF7BC
:101BF000FDFA11208DF8000000208DF801008DF80D
:101C000002006846FFF7F2FA00210A48FEF728FBB7
:101C1000002108481430FEF723FB0648FEF772FB4C
:101C200004481430FEF76EFB1CBD00000054004059
:101C3000000C01406C0002401CB501210820FFF798
:101C4000CBFB01214805FFF773FB4020ADF80400F2
:101C500003208DF806001C208DF8070001A92C48F0
:101C6000FEF716FE8020ADF8040001A92848FEF713
:101C70000FFE10208DF8000000208DF801008DF877
:101C8000020001208DF803006846FFF7AFFA11202B
:101C90008DF8000000208DF801008DF802006846E4
:101CA000FFF7A4FA01210846FFF718FB1948FEF7D1
:101CB00029FB1948194908600020486010208860F5
:101CC0004FF6FF70C8600020086180204861002046
:101CD0008861C86108624FF4405048620020886201
:101CE0000C48FEF70BFD0B481430FEF70BFB0B49BD
:101CF00008481430FEF702FD012202210548FEF7D4
:101D0000A3FC0122022103481430FEF79DFC1CBDF8
:101D1000000C01406C000240105400405C010020A7
:101D200070B505460E461446804804604FF42040C6
:101D30007F49086008E07E490868411E7C4A1160BE
:101D400010B900F003F970BD4FF400317948FFF786
:101D500041F80028EFD101217648FEF7E7FF4FF464
:101D600080507349086008E071490868411E704A54
:101D7000116010B900F0EAF8E5E76F496D48FEF729
:101D800081FE0028F0D06D480088C1B20022694869
:101D9000FFF7C2F94FF480506549086008E06449D4
:101DA0000868411E624A116010B900F0CFF8CAE716
:101DB00063496048FEF766FE0028F0D0F1B25D4846
:101DC000FFF7D2F94FF480505949086008E05849AC
:101DD0000868411E564A116010B900F0B7F8B2E722
:101DE00058495448FEF7F6FF0028F0D00121514829
:101DF000FEF79CFF4FF480504D49086008E04C49C5
:101E00000868411E4A4A116010B900F09FF89AE72D
:101E100049494848FEF736FE0028F0D04748008878
:101E2000C1B201224348FFF777F92088022858DA27
:101E30004FF480503E49086008E03D490868411E63
:101E40003B4A116010B900F081F87CE73D49891EDA
:101E50003848FEF7BFFF0028EFD000213548FEF7D5
:101E6000E7FDFFF74BFE3348183000880121314869
:101E7000FEF786FFFFF744FE4FF480502C490860C0
:101E800008E02B490868411E294A116010B900F08A
:101E90005DF858E72B493C312648FEF79BFF0028A8
:101EA000EFD02448FFF720F928702088401E2080BA
:101EB0004FF480501E49086008E01D490868411E23
:101EC0001B4A116010B900F041F83CE7194800883E
:101ED00000F400700028F0D101211648FEF7A8FD9B
:101EE00021E04FF480501249086008E0104908686A
:101EF000411E0F4A116010B900F028F823E70E497F
:101F0000491C0C48FEF7BEFD0028EFD021880122B5
:101F10002846FFF723FE01210648FEF7B3FE012104
:101F20000948FEF79DF900200DE70000B8000020E9
:101F3000B40000200054004001000300B000002065
:101F400082000700040000108000024000BFFEE78E
:101F50001CB50020019000904FF4204033490860E8
:101F600008E032490868411E304A116010B9FFF795
:101F7000EDFF1CBD4FF400312D48FEF72BFF00286C
:101F8000EFD151E001212A48FEF7D0FE4FF48050F6
:101F90002649086008E025490868411E234A116067
:101FA00010B9FFF7D3FFE4E722492148FEF76AFDA5
:101FB0000028F0D020480088C1B200221C48FFF75A
:101FC000ABF84FF420401949086000BF184814309E
:101FD0000088019015490868411E144A116010B923
:101FE000FFF7B4FFC5E7BDF8040040F20241084026
:101FF0000028EBD0BDF8040000F0020040B10C480E
:102000001830008801210A48FEF7BAFE0020B0E728
:102010000A490748FEF7BCFD0098411C009196282C
:1020200002D1FFF793FFA4E7ACE70000B400002063
:102030000054004001000300B00000200004001024
:102040002DE9F04780460E4614464FF00009002760
:102050000025AA463046F11706EB11710911A6EBCF
:1020600001111FFA81FACAF11000C5B22046E1172A
:1020700004EB1171C1F30719E11704EB1171091198
:10208000A4EB0111CFB2BAF1000F66D1B9F1000F84
:102090001CD19A48077002463146404600F032F99A
:1020A0004FF420409649086009E095490868411EB0
:1020B000934A116018B9FFF749FFBDE8F0878F48D0
:1020C00000780028F1DCFFF743FF14E120E0102046
:1020D0008A4908700A463146404600F013F94FF429
:1020E00020408749086008E085490868411E844A05
:1020F000116010B9FFF72AFFDFE780480078002859
:10210000F2DCFFF725FF06F1100086B208F1100897
:102110005FEA0900A9F1010101F0FF09D7D1002F01
:10212000D3D07648077002463146404600F0EAF8C0
:102130004FF420407249086008E071490868411E68
:102140006F4A116010B9FFF701FFB6E76B480078DE
:102150000028F2DCFFF7FCFECDE0B9F1000F57D10B
:10216000AC4239DD6548057002463146404600F014
:10217000C9F84FF420406249086008E060490868E7
:10218000411E5F4A116010B9FFF7E0FE95E75B481A
:1021900000780028F2DCFFF7DBFE601B574908706F
:1021A000721991B208EB0500544A00F0ABF84FF4F5
:1021B00020405349086008E051490868411E504AD0
:1021C000116010B9FFF7C2FE77E74C48007800288D
:1021D000F2DCFFF7BDFE8EE048480770024631464C
:1021E000404600F08FF84FF420404549086008E071
:1021F00043490868411E424A116010B9FFF7A6FE24
:102200005BE73E4800780028F2DCFFF7A1FE72E0B1
:10221000601B84B22046E11704EB1171C1F307196A
:10222000E11704EB11710911A4EB0111CFB2EDB16B
:102230003248057002463146404600F063F84FF4DC
:1022400020402F49086008E02D490868411E2C4AAB
:10225000116010B9FFF77AFE2FE7284800780028B0
:10226000F2DCFFF775FE701986B2A84420E010205A
:10227000224908700A463146404600F043F84FF4C0
:1022800020401F49086008E01D490868411E1C4A9B
:10229000116010B9FFF75AFE0FE7184800780028C0
:1022A000F2DCFFF755FE06F1100086B208F11008C7
:1022B0005FEA0900A9F1010101F0FF09D7D1D7B107
:1022C0000E48077002463146404600F01BF84FF4B6
:1022D00020400B49086008E009490868411E084A87
:1022E000116010B9FFF732FEE7E6044800780028D5
:1022F000F2DCFFF72DFE00BFDFE60000C00000208B
:10230000B400002070B506460D46144638480460F7
:102310004FF420403749086008E036490868411EFC
:10232000344A116010B9FFF711FE70BD4FF400314F
:102330003148FEF74FFD0028EFD101212E48FEF76E
:10234000F5FC4FF480502B49086008E029490868E3
:10235000411E284A116010B9FFF7F8FDE5E727494B
:102360002548FEF78FFB0028F0D04FF4805021491C
:10237000086023480088C1B200221F48FEF7CCFE47
:102380004FF480501B49086008E01A490868411E54
:10239000184A116010B9FFF7D9FDC6E71949164868
:1023A000FEF770FB0028F0D0E9B21348FEF7DCFE20
:1023B0004FF480500F49086008E00E490868411E3C
:1023C0000C4A116010B9FFF7C1FDAEE70D49891C39
:1023D0000948FEF757FB0028EFD02178002230464D
:1023E000FFF7BCFB01210848FDF73AFF00209CE7FE
:1023F000BC000020B4000020005400400100030095
:10240000B0000020820007006C0002402E2E5C2EDF
:102410002E5C2E2E5C2E2E5C2E2E5C4C6962726120
:10242000726965735C53544D3332463130785F5373
:1024300074645065726970685F4472697665725C35
:102440007372635C73746D3332663130785F646DC0
:10245000612E63002E2E5C2E2E5C2E2E5C2E2E5CAA
:102460002E2E5C4C69627261726965735C53544DC7
:102470003332463130785F537464506572697068E6
:102480005F4472697665725C7372635C73746D33FA
:1024900032663130785F6770696F2E63000000002C
:1024A0002E2E5C2E2E5C2E2E5C2E2E5C2E2E5C4C48
:1024B00069627261726965735C53544D333246319F
:1024C00030785F5374645065726970685F447269F4
:1024D0007665725C7372635C73746D33326631302F
:1024E000785F6932632E63002E2E5C2E2E5C2E2EBA
:1024F0005C2E2E5C2E2E5C4C696272617269657373
:102500005C53544D3332463130785F5374645065B8
:10251000726970685F4472697665725C7372635C3D
:1025200073746D3332663130785F7263632E63008B
:102530002E2E5C2E2E5C2E2E5C2E2E5C2E2E5C4CB7
:1025400069627261726965735C53544D333246310E
:1025500030785F5374645065726970685F44726963
:102560007665725C7372635C73746D33326631309E
:10257000785F75736172742E630000009C250008FB
:1025800000000020C4000000C419000860260008F4
:10259000C4000020C4040000D41900086162636410
:1025A00031323334002F2A2053544D3332463130E8
:1025B000787820493243204669726D7761726520D0
:1025C0004C69627261727920454550524F4D2064CA
:1025D0007269766572206578616D706C653A20204D
:1025E00020202020202020202020202020202020EB
:1025F000202020202020206275666665722032200F
:102600007472616E7366657220696E746F206164A6
:102610006472657373207345455F57524954455F33
:102620004144445245535332202A2F0000000000F9
:102630000000000000000000000000000102030490
:10264000010203040607080902040608000000004E
:1026500000A00000000000000000000000000000DA
:04000005080000ED02
:00000001FF
