:020000040800F2
:1000000058040020010100088B0400088304000844
:1000100087040008490100089D0600080000000050
:10002000000000000000000000000000650500085E
:100030004D01000800000000010500083906000815
:100040001B0100081B0100081B0100081B01000820
:100050001B0100081B010008BD0100081B0100086E
:100060001B0100081B0100081B0100081B01000800
:100070001B0100081B0100081B0100081B010008F0
:100080001B0100081B0100081B0100081B010008E0
:100090001B0100081B0100081B01000841020008A9
:1000A0001B0100081B0100081B0100081B010008C0
:1000B0001B0100081B0100081B0100081B010008B0
:1000C0001B0100081B0100081B0100081B010008A0
:1000D0001B0100081B0100081B0100081B01000890
:1000E0001B0100081B0100081B010008DFF80CD0F1
:1000F00000F018F800480047BF0600085804002028
:100100000648804706480047FEE7FEE7FEE7FEE7B1
:10011000FEE7FEE7FEE7FEE7FEE7FEE73D06000836
:10012000ED000008064C074D06E0E06840F00103D2
:1001300094E8070098471034AC42F6D3FFF7DAFF93
:1001400084070008A407000800BFFEE7704700000E
:1001500010B50121042000F0D5F9012013490880D1
:100160000420C870124800F003F90121084600F08D
:10017000C9F90021084600F0DBF801200D490860AC
:10018000002008710820487101208871084600F09D
:1001900085F80620084908700F20487088700120F3
:1001A000C870084600F072F910BD00000800002079
:1001B00000080140000000200C00002010B50120C4
:1001C00000F058F810B1012000F046F810BD000012
:1001D00010B50121082000F095F94FF40070144982
:1001E00008800420C870134800F0C2F801210846B6
:1001F00000F088F90921012000F09AF84FF400700E
:100200000D490860002008710C2048710120887198
:10021000084600F043F81720084908700F2048707E
:1002200088700120C870084600F030F910BD000049
:1002300008000020000C0140000000200C000020FD
:1002400010B54FF4007000F015F818B14FF40070BD
:1002500000F002F810BD000001490860704700007E
:1002600014040140024909680143014A11607047C2
:1002700010040140014600200022074B1B6803EADE
:100280000102054B14331B680B4202D00AB1012056
:1002900000E00020704700000004014000212349D5
:1002A0008279002A3AD00A46126803689A430B46BC
:1002B0001A600A1D126803689A430B1D1A600279BE
:1002C00011440A6803681A430A60184A083212681F
:1002D00003689A43154B08331A601A1D12680368A5
:1002E0009A43124B0C331A604279102A0ED11A1F0E
:1002F000126803681A430D4B08331A601A1D1268FE
:1003000003681A43094B0C331A600DE00749427920
:1003100011440A6803681A430A6005E0027911442F
:100320000A6803689A430A607047000000040140AD
:1003300030B500228B071C0F0F2303FA04F20B4B7E
:100340008C1053F824309343084C8D1044F825301A
:1003500023468C1053F824308C07240F00FA04F441
:100360002343024C8D1044F8253030BD0800014075
:100370002DE9F0410246002500260020002300243C
:10038000002791F803C00CF00F0591F803C01CF092
:10039000100F03D091F802C04CEA0505B1F800C077
:1003A0001CF0FF0F31D0146800202BE04FF0010C3F
:1003B0000CFA00F3B1F800C00CEA03069E4220D10B
:1003C00083004FF00F0C0CFA03F7BC4305FA03FC53
:1003D0004CEA040491F803C0BCF1280F06D14FF099
:1003E000010C0CFA00FCC2F814C00AE091F803C03A
:1003F000BCF1480F05D14FF0010C0CFA00FCC2F81B
:1004000010C0401C0828D1D31460B1F800C0BCF162
:10041000FF0F34DD546800202EE000F1080C4FF08F
:10042000010808FA0CF3B1F800C00CEA03069E427A
:1004300021D183004FF00F0C0CFA03F7BC4305FAEF
:1004400003FC4CEA040491F803C0BCF1280F05D169
:1004500000F1080C08FA0CF8C2F8148091F803C0F7
:10046000BCF1480F07D100F1080C4FF0010808FA61
:100470000CF8C2F81080401C0828CED35460BDE8A8
:10048000F08100BFFEE700BFFEE7704770B50021B6
:1004900000230F22C4780CB3164C246804F4E064E3
:1004A000C4F5E064210AC1F10403CA40447804FAA7
:1004B00003F184781440214309010F4C0678A155BB
:1004C000047804F01F050124AC4005786D114FF04D
:1004D000E02606EB8505C5F8004109E0047804F044
:1004E0001F050124AC40054D0678761145F82640DD
:1004F00070BD00000CED00E000E400E080E100E0F1
:100500007047000029B1064A92690243044B9A6180
:1005100004E0034A92698243014B9A6170470000EC
:100520000010024038B504460B4951F8240001215F
:10053000FFF7E8FF094830F81400ADF8000010207C
:100540008DF8030003208DF80200054951F82400BE
:100550006946FFF70DFF38BDE4060008DC06000819
:1005600010000020704710B500F002F810BD000028
:10057000002100202E4A126842F480322C4B1A606F
:1005800000BF2B4A126802F40030491C10B9B1F5C3
:10059000A06FF6D1264A126812F4003F01D0012064
:1005A00000E00020012842D1224A126842F01002E5
:1005B000204B1A601A46126822F003021A601A468B
:1005C000126842F002021A60194A5268184B5A60C7
:1005D0001A4652685A601A46526842F480625A605B
:1005E0001A46526822F47C125A601A46526842F443
:1005F000E8125A601A46126842F080721A6000BF10
:100600000B4A126812F0007FFAD0094A526822F0B1
:100610000302074B5A601A46526842F002025A60BF
:1006200000BF034A526802F00C02082AF9D1704751
:1006300000100240002002407047000010B513482F
:10064000006840F001001149086008464068104900
:1006500008400E494860084600680E4908400B49AA
:1006600008600846006820F480200860084640685A
:1006700020F4FE0048604FF41F008860FFF773FF0E
:100680004FF000600449086010BD000000100240F7
:100690000000FFF8FFFFF6FE08ED00E000BFFEE7F8
:1006A00002E008C8121F08C1002AFAD1704770473B
:1006B000002001E001C1121F002AFBD17047002079
:1006C000FFF730FF0120FFF72DFFFFF741FDFFF798
:1006D0007FFD0120FFF7C6FD00BFFEE74000800060
:1006E00000010002100000001000000010000000D7
:1006F00010000000010000200002010002000001C3
:10070000004000100400000010000000080000007D
:100710004000000040000000200000002000000019
:100720002000000001000020000201000200000182
:10073000004000100000020001000400040003005B
:100740000300030000000D00090000000100080084
:100750000E000C0006002800170006000700170016
:1007600028002800004000000000020004000000F3
:100770002000000004000000200000000002200013
:1007800000044000A40700080000002058000000FA
:10079000A0060008FC070008580000200004000024
:1007A000B00600080000000000000000000000008B
:1007B0000000000000100140001001400010014046
:1007C000001001400008014000100140000C0140F1
:1007D00000180140001801400014014000140140BD
:1007E000001401400038014000440040000801406E
:0C07F0000014014000080140001401400A
:04000005080000ED02
:00000001FF
