:020000040800F2
:1000000080040020010100089B0200089302000800
:1000100097020008490100080106000800000000DE
:100020000000000000000000000000009503000830
:100030004D010008000000009D0200088104000836
:100040001B0100081B0100081B0100081B01000820
:100050001B0100081B0100081B0100081B01000810
:100060001B0100081B0100081B0100081B01000800
:100070001B0100081B0100081B0100081B010008F0
:100080001B0100081B0100081B0100081B010008E0
:100090001B0100081B0100081B0100081B010008D0
:1000A0001B0100081B0100081B0100081B010008C0
:1000B0001B0100081B0100081B0100081B010008B0
:1000C0001B0100081B0100081B0100081B010008A0
:1000D0001B0100081B0100081B0100081B01000890
:1000E0001B0100081B0100081B010008DFF80CD0F1
:1000F00000F018F8004800475D0700088004002061
:100100000648804706480047FEE7FEE7FEE7FEE7B1
:10011000FEE7FEE7FEE7FEE7FEE7FEE799040008DC
:10012000ED000008064C074D06E0E06840F00103D2
:1001300094E8070098471034AC42F6D3FFF7DAFF93
:100140004C0900086C09000800BFFEE7704700007A
:100150000349086000BF024909680029FBD17047C4
:100160006400002000B50246642102FB01F0FFF7A5
:10017000EFFF00BD2DE9F0410246002500260020DA
:1001800000230024002791F803C00CF00F0591F81C
:1001900003C00CF0100CBCF1000F03D091F802C0AA
:1001A0004CEA050591F800C0BCF1000F31D014688D
:1001B00000202BE04FF0010C0CFA00F3B1F800C066
:1001C0000CEA03069E4220D183004FF00F0C0CFA7C
:1001D00003F7BC4305FA03FC4CEA040491F803C09E
:1001E000BCF1280F06D14FF0010C0CFA00FCC2F84C
:1001F00014C00AE091F803C0BCF1480F05D14FF0DC
:10020000010C0CFA00FCC2F810C0401C0828D1D325
:100210001460B1F800C0BCF1FF0F34DD5468002059
:100220002EE000F1080C4FF0010808FA0CF3B1F8C9
:1002300000C00CEA03069E4221D183004FF00F0C50
:100240000CFA03F7BC4305FA03FC4CEA040491F8EA
:1002500003C0BCF1280F05D100F1080C08FA0CF816
:10026000C2F8148091F803C0BCF1480F07D100F127
:10027000080C4FF0010808FA0CF8C2F81080401C76
:100280000828CED35460BDE8F08141617047016118
:10029000704700BFFEE700BFFEE7704770470000F1
:1002A00029B1064A92690243044B9A6104E0034A69
:1002B00092698243014B9A6170470000001002402E
:1002C00030B500210022002400232D4D6D6805F07B
:1002D0000C0121B1042905D0082923D105E0294DBD
:1002E000056022E0274D05601FE0254D6D6805F48F
:1002F0007012234D6D6805F48034022505EB92429F
:100300001CB9214D554305600BE01D4D6D6805F48A
:1003100000351DB11C4D5543056002E0194D554394
:10032000056002E0174D056000BF00BF144D6D6809
:1003300005F0F0010909154D6B5C0568DD4045606D
:100340000F4D6D6805F4E061090A104D6B5C45685E
:10035000DD4085600A4D6D6805F46051C90A0B4D9A
:100360006B5C4568DD40C560054D6D6805F4404136
:10037000890B074D6B5CC568B5FBF3F5056130BDB6
:100380000010024000127A0000093D0068000020C1
:1003900078000020704710B500F002F810BD000092
:1003A0000CB50020019000903348006840F4803084
:1003B0003149086000BF3048006800F40030009008
:1003C0000198401C0190009818B90198B0F5A06FF1
:1003D000F1D12948006800F4003010B101200090EC
:1003E00001E0002000900098012843D123480068D4
:1003F00040F01000214908600846006820F0030022
:1004000008600846006840F0020008601A4840682A
:10041000194948600846406848600846406840F40A
:10042000806048600846406820F47C1048600846B8
:10043000406840F4E81048600846006840F080706A
:10044000086000BF0C48006800F000700028F9D078
:100450000948406820F003000749486008464068A2
:1004600040F00200486000BF0348406800F00C0004
:100470000828F9D10CBD0000001002400020024005
:1004800010B500F039F803480068401C01490860C5
:1004900010BD00006000002010B51348006840F057
:1004A00001001149086008464068104908400E499B
:1004B0004860084600680E4908400B490860084635
:1004C000006820F4802008600846406820F4FE00A0
:1004D00048604FF41F008860FFF75DFF4FF0006039
:1004E0000449086010BD0000001002400000FFF841
:1004F000FFFFF6FE08ED00E00448006820B1034865
:100500000068401E01490860704700006400002038
:1005100021B1828942F40052828104E082894DF641
:10052000FF731A40828170472DE9F04786B0054677
:100530000E460024A24600BFA1460027B08900B1A4
:1005400000BF2F462C8A4CF6FF700440F08804430D
:100550002C82AC894EF6F3100440B08831890843F0
:10056000718908430443AC81AC8A4FF6FF400440D4
:10057000B0890443AC8201A8FFF7A2FE1F4887425E
:1005800002D1DDF810A001E0DDF80CA0A88900F48C
:10059000004040B10AEBCA0000EB0A103168490084
:1005A000B0FBF1F807E00AEBCA0000EB0A10316873
:1005B0008900B0FBF1F86420B8FBF0F004012009D9
:1005C000642101FB1089A88900F4004040B1322069
:1005D00000EBC900B0FBF1F000F00700044308E0B5
:1005E000322000EB09106421B0FBF1F000F00F00A5
:1005F00004432C8106B0BDE8F087000000380140BC
:1006000000BFFEE702E008C8121F08C1002AFAD1A5
:1006100070477047002001E001C1121F002AFBD182
:10062000704700000348006840F02000014908605E
:10063000704700000C18014000B5FFF7F3FF00F011
:10064000DBF800F0C5F8302000F019F8302000F099
:1006500016F8302000F013F8382000F010F80620CB
:1006600000F00DF80C2000F00AF8802000F007F8E8
:10067000012000F004F80220FFF774FD00BD00B572
:10068000034600F0AFF8184600F00AF800F016F83C
:1006900000F01EF800F09CF80520FFF759FD00BDA2
:1006A0000549096821F47F41034A11601146096830
:1006B00041EA0021116070470C18014003480068AE
:1006C00040F0100001490860704700000C14014020
:1006D0000348006820F010000149086070470000DE
:1006E0000C14014008B501211020FFF7D9FD48F294
:1006F000C000ADF8000004208DF8030069461448DE
:10070000FFF738FD01212020FFF7CAFD4FF40360F9
:10071000ADF8000003208DF8020010208DF80300D2
:1007200069460C48FFF726FD01214020FFF7B8FD80
:100730004FF62070ADF8000003208DF80200102065
:100740008DF8030069460448FFF714FD08BD00005A
:1007500000100140001401400018014008B500BF1E
:1007600000BF00F053F801212020FFF799FD4FF45E
:100770008250ADF8000003208DF8020010208DF8A3
:10078000030069461148FFF7F5FC00F03FF8FFF75A
:10079000A9FF00F069F8FFF74FFF002410E04FF4C5
:1007A00080510A48FFF773FD1420FFF7D1FC4FF486
:1007B00080510648FFF769FD1420FFF7C9FC641C4F
:1007C00041F664108442EADB00BFFEE700140140FA
:1007D0000348006840F40060014908607047000069
:1007E0000C1401400348006820F4006001490860CF
:1007F000704700000C1401400348006820F02000FE
:1008000001490860704700000C14014030B54FF4F6
:100810003471B1F1807F01D301201DE021F07F40D0
:10082000401E4FF0E022506150170F22002807DAD7
:1008300013071D0E0A4B00F00F04241F1D5503E083
:1008400013071C0E074B1C5400BF00204FF0E02282
:10085000906107201061002008B100BFFEE730BDA5
:1008600018ED00E000E400E000B585B001210420AF
:10087000FFF716FD01218803FFF712FD18208DF800
:1008800013004FF40070ADF8100003208DF8120033
:1008900004A91348FFF76EFC04208DF81300000232
:1008A000ADF8100004A90E48FFF764FC4FF4E130E6
:1008B00000900020ADF80400ADF80600ADF8080087
:1008C000ADF80C000C20ADF80A0069460548FFF7AA
:1008D0002BFE01210348FFF71BFE05B000BD000001
:1008E000000801400038014020312E204C454420B2
:1008F00050574D202020202000000000206D6F74F4
:100900006F7220706F73203A2020202000000000BA
:1009100020342E204C4544204F6E2F4F66662020F9
:100920000000000020332E2053746570204D6F743A
:100930006F7220200000000020322E2053455256B6
:100940004F204D6F746F7220000000006C0900088A
:10095000000000207C00000004060008E8090008F0
:100960007C000020040400001406000800000000C1
:100970000000000000000000000000000000000077
:100980000000000001000000000000000000000066
:1009900000000000E80800083809000824090008E1
:1009A00010090008FC08000800000000000000001A
:1009B0000000000000000000000000000000000037
:1009C0000000000000000000000000000000000027
:1009D0000000000000000000010203040102030403
:0809E0000607080902040608DD
:04000005080000ED02
:00000001FF
