:020000040800F2
:10000000D0040020890100088D0100088F0100083C
:10001000910100089301000895010008000000000C
:100020000000000000000000000000009701000830
:1000300099010008000000009B010008E10500088C
:100040009F0100089F0100089F0100089F01000810
:100050009F0100089F0100089F0100089F01000800
:100060009F0100089F0100089F0100089F010008F0
:100070009F0100089F0100089F0100089F010008E0
:100080009F0100089F0100089F0100089F010008D0
:100090009F0100089F0100089F0100089F010008C0
:1000A0009F010008E30400089F0100082D050008D7
:1000B00051050008C30500089F0100089F010008C2
:1000C0009F0100089F0100089F0100089F01000890
:1000D0009F0100089F0100089F0100089F01000880
:1000E0009F0100089F0100089F01000800F002F82E
:1000F00000F03AF80AA090E8000C82448344AAF188
:100100000107DA4501D100F02FF8AFF2090EBAE885
:100110000F0013F0010F18BFFB1A43F0010318473B
:100120000C0800002C080000103A24BF78C878C1E1
:10013000FAD8520724BF30C830C144BF04680C60ED
:10014000704700000023002400250026103A28BF35
:1001500078C1FBD8520728BF30C148BF0B60704739
:100160001FB51FBD10B510BD00F0A9FB1146FFF76C
:10017000F7FF00F013FB00F0C7FB03B4FFF7F2FF3B
:1001800003BC00F0CBFB000008480047FEE7FEE799
:10019000FEE7FEE7FEE7FEE7FEE7FEE7FEE7FEE737
:1001A00003480449024A044B70470000ED00000870
:1001B000D0000020D0040020D00000201220AE4942
:1001C00008607047AD48AE494860AE48086000BF5F
:1001D000AB48006800F400300028F9D000BFA84800
:1001E000006800F000700028F9D000BFA448406803
:1001F00000F00C000828F9D17047704745F25550BF
:10020000A14908600220486040F69F7088604AF665
:10021000AA2008604CF6CC400860704770479848A8
:10022000C06940F080509649C8619848006840F421
:100230008070964908609248006A40F00100904939
:10024000086200BF8E48006A00F002000028F9D062
:100250008B48006A40F40140894908628C48008854
:1002600040F010008A4908800020091D088047F6E8
:10027000FF70091D08800020854914310880091D80
:100280000880091D08803C20091D08800120804944
:10029000091F08807F48006840F008004FF0E02107
:1002A000C1F800017A48008820F0100078490880E1
:1002B00000BF7748008800F020000028F9D073487C
:1002C000006820F480707149086070476C4880694C
:1002D00040F400606A49886140F21B206E49088042
:1002E0004CF24F30091D08800220091D08800020B3
:1002F000694928390880091D0880012066491C3990
:1003000008806448006840F000704FF0E021C1F8B8
:10031000000161482838008840F001005E49283912
:10032000088070475648806940F00400544988614D
:100330005A485B4908600020091D086050488069E0
:1003400040F008004E4988614FF44010554908605C
:100350005548091D08604A48806940F01000484926
:1003600088610020514908604FF480004860704760
:100370004F48406820F004004D494860404880697B
:1003800040F004003E4988614548001D006820F4A3
:100390007F604349091D08600846006840F0B000CE
:1003A00008600846006840F480600860344880694E
:1003B00040F48040324988614EF21B603D4908801C
:1003C0000020091D0880091D0880081F0088091FDA
:1003D0000880002037490C3108803648001D00880D
:1003E00040F00C003349091D08800846008840F49D
:1003F000005008807047704770472148C06940F03E
:1004000000601F49C8610846C06940F08050C8615B
:100410001E48006840F480701C490860002026498E
:100420000880091D08800846008840F00300088005
:100430001648006820F48070144908601E48001DAA
:10044000008800F0040038B11248006840F0040051
:100450004FF0E021C1F80001704700B5FFF7AEFE94
:10046000FFF7B0FEFFF732FFFFF75CFFFFF780FFFB
:1004700000BD1248704700000020024002841D00A9
:100480000010024082000101003000400070004076
:100490000428004000E100E0282C0140040BB3BB1D
:1004A00000080140000C014000404444001001409D
:1004B0000000014008380140306C004080F93703EB
:1004C000F349086000BFF24909680029FBD1704771
:1004D000EF48006820B1EE480068401EEC49086013
:1004E0007047EC48008800F00100F0B1EA4800686D
:1004F00040F2DE31884202DB0A20E7490860E64824
:1005000000680A30E449086008460068E14924317F
:100510000880E248C06840F04000E049C860DD481B
:10052000008820F00100DB4908807047D948008826
:1005300000F0020058B1D948C06820F4E070D749F3
:10054000C860D448008820F00200D2490880704773
:100550004FF08040008A00F00100F8B1CE480068FA
:1005600040F2DE31884202DB0A20CB490860CA48EB
:1005700000680A30C8490860084600684FF08041AA
:100580008886C648C06840F04000C449C8608804F6
:10059000008A20F001008904088211E04FF08040B9
:1005A000008A00F0020058B1BC48C06820F4E07036
:1005B000BA49C8608804008A20F0020089040882D1
:1005C0007047B748008800F0010028B1B44800889F
:1005D00020F00100B24908807047B24800687047B7
:1005E00000B5FFF775FF00BD002000E0401CB0F52E
:1005F000167FFBDB704700B502460020AA49086061
:1006000028E0A94801784FF400400841104030B17B
:10061000A248C06840F00100A049C86005E09F48BA
:10062000C06820F001009D49C8609C48C06840F047
:1006300002009A49C860FFF7D7FF9848C06820F0C9
:1006400002009649C860FFF7CFFF97480068401C3A
:1006500095490860944800681028D2DB8F48C0682C
:1006600040F004008D49C860FFF7BEFF8B48C068AA
:1006700020F004008949C860FFF7B6FF00BD00B54F
:100680008648C06840F004008449C860FFF7ACFFAA
:100690008248C06820F004008049C86000BD00B5F1
:1006A000024600BF8148008900F002000028F9D00E
:1006B00000207E498881FFF797FFFFF7E0FF00BF2A
:1006C0007A48008900F002000028F9D0774882813A
:1006D000FFF78AFFFFF7D3FF00BF7448008900F0DF
:1006E00002000028F9D042F0040270488281FFF72E
:1006F0007BFFFFF7C4FF00BF6C48008900F00200D9
:100700000028F9D022F0040268488281FFF76CFFCC
:10071000FFF7B5FF00BF6548008900F00200002820
:10072000F9D042F0010261488281FFF75DFFFFF7D7
:10073000A6FFFFF759FF00BD00B5024642F00102D7
:1007400000BF5A48008900F002000028F9D057483D
:100750008281FFF749FFFFF792FF42F0040200BFDA
:100760005248008900F002000028F9D04F488281E9
:10077000FFF73AFFFFF783FF22F0040200BF4B4868
:10078000008900F002000028F9D048488281FFF774
:100790002BFFFFF774FFFFF727FF00BDFFF75DFE9C
:1007A0004348806940F01000414988614FF0407033
:1007B0003A4908603E48806940F400603C498861DD
:1007C000812034491039088003203249091F0880EC
:1007D00040F2CF202F491831088040F2E730091D40
:1007E000088000202B4914310880682029490831ED
:1007F000088001202749103108800A20254924312A
:1008000008802B48C06940F001002949C861812057
:10081000810708800320888140F2CF20088540F2BC
:10082000E7308885002088846820088301200884B8
:100830000A2088861E48C06940F002001C49C86131
:1008400001201749103908801549091F088040F216
:10085000CF2013491831088040F2E730091D088085
:100860001448006840F000704FF0E021C1F800012A
:100870000846D0F8000140F00060C1F800010846C9
:10088000D0F8000140F00050C1F8000100BFFEE7C1
:1008900014000020102C01406000002000100140D6
:1008A000100400400000002038000020003001400B
:1008B0000010024000E100E0704770477047754645
:1008C00000F028F8AE4605006946534620F00700C0
:1008D000854618B020B5FFF763FCBDE820404FF017
:1008E00000064FF000074FF000084FF0000B21F01A
:1008F0000701AC46ACE8C009ACE8C009ACE8C009E7
:10090000ACE8C0098D4670470446AFF3008020462E
:10091000FFF733FC004870476C00002001491820A5
:10092000ABBEFEE726000200704700004C0900083D
:10093000000000206C00000028010008B809000831
:100940006C00002064040000440100080000000066
:100950000000000000000000000000000000000097
:100960000000000000000000000000000000000087
:100970000000000000000000000000000000000077
:100980000100000000000000000000000000000066
:10099000003844041804443800000000000000003F
:1009A0000A000000000000002C0000000000000011
:0809B00000000000000000003F
:04000005080000ED02
:00000001FF
