:020000040800F2
:10000000780200209D040008A1040008A304000851
:10001000A5040008A7040008A904000800000000C7
:10002000000000000000000000000000AB04000819
:10003000AD04000800000000AF040008B10400088F
:10004000B3040008B3040008B3040008EB0500087B
:10005000B3040008B304000895050008B5050008BE
:10006000B3040008B3040008B3040008B304000894
:10007000B3040008B3040008B3040008B304000884
:10008000B3040008B3040008B3040008B304000874
:10009000B3040008B3040008B3040008B304000864
:1000A000B3040008B3040008B3040008B304000854
:1000B000B3040008B3040008B3040008B304000844
:1000C000B3040008B3040008B3040008B304000834
:1000D000B30400083D05000869050008B3040008E2
:1000E000B3040008B3040008B304000800F002F8E9
:1000F00000F042F80AA090E8000C82448344AAF180
:100100000107DA4501D100F037F8AFF2090EBAE87D
:100110000F0013F0010F18BFFB1A43F0010318473B
:100120008C0A0000AC0A0000103A24BF78C878C1DD
:10013000FAD8520724BF30C830C144BF04680C60ED
:10014000704700000023002400250026103A28BF35
:1001500078C1FBD8520728BF30C148BF0B60704739
:10016000642900F07783632900F09D8400207047A4
:100170001FB51FBD10B510BD00F0CCFC1146FFF738
:10018000F7FF00F095FA00F0EAFC03B4FFF7F2FF86
:1001900003BC00F0B6F900001220AE4908607047B9
:1001A000AD48AE494860AE48086000BFAB48006843
:1001B00000F400300028F9D000BFA848006800F023
:1001C00000700028F9D000BFA448406800F00C007F
:1001D0000828F9D17047704745F25550A149086089
:1001E0000220486040F69F7088604AF6AA200860A6
:1001F0004CF6CC400860704770479848C06940F0A2
:1002000080509649C8619848006840F480709649CB
:1002100008609248006A40F001009049086200BFFF
:100220008E48006A00F002000028F9D08B48006A6E
:1002300040F40140894908628C48008840F0100071
:100240008A4908800020091D088047F6FF70091DB3
:1002500008800020854914310880091D0880091D87
:1002600008803C20091D088001208049091F088062
:100270007F48006840F008004FF0E021C1F800011D
:100280007A48008820F010007849088000BF77483D
:10029000008800F020000028F9D07348006820F49E
:1002A00080707149086070476C48C06940F0010077
:1002B0006A49C86100208904088542F62F20888594
:1002C000002008808880088548208885002088864E
:1002D000088705208887002066490880090608836A
:1002E0006020888388150884002008810420088005
:1002F000002088800846008840F001000880704790
:100300005648806940F004005449886140F6043042
:10031000594908600020091D08605048806940F074
:1003200008004E4988615548554908605548091DDF
:1003300008604A48806940F0100048498861002000
:10034000514908604FF48000486070474F4840684A
:1003500020F004004D4948604048806940F00400A6
:100360003E4988614448001D006820F47F6042498E
:10037000091D08600846006840F0B00008600846A3
:10038000006840F4806008603448806940F4804030
:10039000324988614EF21B603D4908800020091DEA
:1003A0000880091D0880081F0088091F0880002098
:1003B00037490C3108803648001D008840F00C0099
:1003C0003349091D08800846008840F40050088021
:1003D0007047704770472148C06940F000601F496E
:1003E000C8610846C06940F08050C8611E48006876
:1003F00040F480701C490860002026490880091DCF
:1004000008800846008840F003000880164800680D
:1004100020F48070144908601E48001D008800F018
:10042000040038B11248006840F004004FF0E021A9
:10043000C1F80001704700B5FFF7AEFEFFF7B0FE50
:10044000FFF732FFFFF75CFFFFF780FF00BD1248A8
:10045000704700000020024002841D00001002408E
:10046000820001010030004000700040042800407C
:1004700000E100E04000004000080140000030FFC3
:10048000000C0140004044440010014000000140C5
:1004900008380140306C004080F9370308480047B5
:1004A000FEE7FEE7FEE7FEE7FEE7FEE7FEE7FEE724
:1004B000FEE7FEE703480449024A044B7047000088
:1004C000ED0000087800002078020020780000206D
:1004D00070B504460D46204600F016F870BD70B5A4
:1004E000054600F01EF8044600F00EF870BD10B589
:1004F0000446204600F008F810BD01464FF0FF30DA
:10050000704700BFFEE7000000BF6D49098801F099
:1005100080010029F9D0C0F30801694A121D118039
:10052000704700BF6648008800F020000028F9D01E
:100530006348001D0088C0F30800704738B5604864
:1005400000880090009800F0200060B15C480088AE
:1005500020F020005A490880081D0088C4B22146B6
:1005600058A000F01BF938BD38B5594800880090F4
:10057000009800F0200060B15548008820F020006D
:1005800053490880081D0088C4B2214651A000F0DC
:1005900005F938BD10B55248006800F0010040B1BF
:1005A00050A000F0FBF84E48006840F001004C49B4
:1005B000086010BD10B54A48006800F0020050B154
:1005C00048A000F0EBF800F0D5FA4548006840F08C
:1005D00002004349086010BD01B502E00098401ECA
:1005E000009000980028F9D108BD4548008800F027
:1005F0000100D0B14248008820F001004049088045
:1006000040480068C0433F4908600846006830B170
:100610003D48006820F020003B49086005E03A486A
:10062000006840F02000384908603548008800F034
:10063000020080B13248008820F002003049088072
:100640003148006840F080002F4908600846006883
:1006500020F08000086070472DE9F041002400255B
:1006600000260027264818300088254914310988BB
:1006700040EA01444FF46160B4FBF0F5B4FBF0F1E3
:1006800000FB11403C21B0FBF1F64FF46160B4FB7C
:10069000F0F100FB11403C21B0FBF1F201FB12072D
:1006A0003B463246294619A000F078F8BDE8F081B3
:1006B000FFF7C1FE00BFFFF7CFFFFCE700BFFEE77B
:1006C00000380140756172742031203A20256300A2
:1006D000004400407561727432203A2025630000A6
:1006E00014040140696E2065787469302069727164
:1006F0002068616E646C65722E2E2E0D0A0000005B
:1007000004280040100000200C0C01402532642019
:100710003A20253264203A20253264200D00000062
:1007200030BF704720BF704740BF7047BFF36F8F27
:100730007047BFF34F8F7047BFF35F8F704701DF84
:100740007047EFF31480704780F31488BFF36F8F06
:100750007047EFF30980704780F309887047EFF323
:100760000880704780F30888704762B6704772B699
:100770007047EFF31080704771B6704761B67047ED
:10078000EFF31380704780F311887047EFF3128006
:10079000704740BA704700BA704770470FB40449B9
:1007A00010B503AA029800F08BF910BC5DF814FB99
:1007B0000000002070B5044685690068C10601D5B7
:1007C000302600E02026C00707D070BDD4E9012103
:1007D00030469047206A401C20626D1EF6D570BDE1
:1007E00070B5044685690078C00707D170BDD4E9AB
:1007F000012120209047206A401C20626D1EF6D502
:1008000070BD70B50C460546012A05D028788006D3
:1008100000D5EA69002302E0012305E05B1C934256
:1008200002D2E05C0028F9D1A869E618C01AA861D4
:10083000286A184428622846FFF7BCFF04E0D5E97F
:10084000012114F8010B9047B442F8D32846FFF772
:10085000C7FF70BD2DE9F0410646002410687529D8
:10086000314616A510D0AFF30080002802DA4042CE
:1008700013A507E031688A0701D512A502E04907F0
:1008800004D511A5012401E0AFF3008000210A2264
:1008900006F1240709E0B0FBF2FCB0FBF2F302FB27
:1008A0001C00303078541846491C0028F3D12346E8
:1008B0002A463046BDE8F04100F092B80000000042
:1008C0002D0000002B000000200000002DE9F04763
:1008D0004FF0000A89460446C0F820A02046E1688F
:1008E0008847002876D0252806D0D4E901219047F2
:1008F000206A401C2062F1E7E16820460025884715
:10090000C4F81CA006460027C4F818A02A2E09D057
:10091000304600F043F938B304EB8708303EC8F89E
:10092000186019E059F8041B204604EB8702916116
:10093000E1688847012F064618D1E069002820DACF
:1009400025F020051DE0D8F8180000EB800006EB2C
:1009500040003038C8F818002046E168884706464D
:1009600000F01CF90028EED1012F0AD02E2E08D15C
:100970002046E16888477F1C0646022F45F0200587
:10098000C4DBA069002803DA404245F00105A061FC
:10099000E80701D025F01005B6B1A6F141001928ED
:1009A00002D8203645F400654A4631462046256087
:1009B0004D46FFF7D5FB58B1012806D0ED1D25F0B7
:1009C000070000F1080989E704E005F1040985E75B
:1009D00030468AE7206ABDE8F08770477047704765
:1009E0002DE9F0470D4699469246044600F1240849
:1009F0000168880604D5E06921F01001216000E05B
:100A00000120A84201DD471B00E00027A1697A19F7
:100A100002EB0900081AA0612078C00602D4204623
:100A2000FFF7C8FE002608E0D4E901211AF8060005
:100A30009047206A401C761C20624E45F4DB2078EB
:100A4000C0060AD52046FFF7B5FE06E0D4E901212D
:100A500030209047206A401C2062381EA7F1010711
:100A6000F4DC07E0D4E9012118F805009047206A7A
:100A7000401C2062281EA5F10105F3DC2046FFF78B
:100A8000AFFE2078000602D50220BDE8F0870120E5
:100A9000FBE710B5436913B1AFF3008001E0FFF746
:100AA000B0FE012010BD127800F124010A7000226E
:100AB0004A700122EDE711684FF0FF32E9E70000CC
:100AC000074B70B50D467B4400F011F804462846EC
:100AD000FFF713FD10B14FF0FF3070BD204670BD21
:100AE00007FAFFFF01694A1C02610878704700B5E8
:100AF0008FB0CDE901310021059105497944CDE957
:100B0000031011466846FFF7E1FE0FB000BD00007C
:100B1000E5FFFFFF754600F029F8AE46050069467F
:100B2000534620F00700854618B020B5FFF7C2FCF9
:100B3000BDE820404FF000064FF000074FF00008DE
:100B40004FF0000B21F00701AC46ACE8C009ACE85F
:100B5000C009ACE8C009ACE8C0098D46704704463E
:100B6000AFF300802046FFF710FB000000487047FD
:100B7000140000200748016841F004010160016889
:100B800041F0020101600448016841F00401016084
:100B9000FFF7C6BD0070004010ED00E030380A28B5
:100BA00001D201207047002070470000CC0B0008E4
:100BB000000000201400000028010008E00B0008DD
:100BC000140000206402000044010008000000003E
:100BD0000000000000000000000000000000000015
:04000005080000ED02
:00000001FF
