:020000040800F2
:1000000070020020AD040008B1040008B304000829
:10001000B5040008B7040008B90400080000000097
:10002000000000000000000000000000BB04000809
:10003000BD04000800000000BF040008B90100086A
:10004000C3040008C3040008C3040008C304000874
:10005000C3040008C3040008C9010008F301000834
:1000600029020008C3040008C3040008C3040008F0
:10007000C3040008C3040008C3040008C304000844
:10008000C3040008C3040008C3040008C304000834
:10009000C3040008C3040008C3040008C304000824
:1000A000C3040008C3040008C3040008C304000814
:1000B0009B020008B7020008C3040008C30400083C
:1000C000C3040008C3040008C3040008C3040008F4
:1000D000C3040008C3040008C3040008C3040008E4
:1000E00065020008C3040008C3040008DFF80CD050
:1000F00000F0EAF900480047DB0200087002002027
:1001000001B502E00098401E009000980028F9D147
:1001100008BD002204E00021491C0E29FCDB521C12
:100120008242F8DB704730B5044600234FF47A75FD
:1001300003E02846FFF7EDFF5B1CA342F9DB30BD6F
:100140006D48006D70476C49C864C86C0028FCD1CC
:1001500070476948C16C002902D0C16C491EC16456
:100160007047654920220869642808D04B69984285
:1001700001D1624802600869401C08617047002094
:1001800008615E48001F0260F5E75B494FF480722A
:100190008869A0F50073713B08D0CB69984201D102
:1001A000564802608869401C886170470020886159
:1001B0005248001F0260F5E700B5FFF7CAFF4E483E
:1001C000016D491C016500BD4D4A1068C0070FD084
:1001D0004A480C3800684849C00702D0C86888639C
:1001E00004E0C868C8638B6BC01A08640120106003
:1001F000704743480068800715D53F493F484A6C1F
:100200000838002A04D0026842F40062026003E069
:10021000026822F40062026002D14FF0010001E0A6
:100220004FF0000048647047354A1068400718D501
:10023000314932488B6C0838002B04D0036843F4F2
:100240008053036003E0036823F48053036002D10A
:100250004FF0010001E04FF0000088644FF004000F
:100260001060704700B5264A1068800414D52548F0
:1002700080682149800403D5FFF762FF086208E027
:10028000FFF75EFF48620B6AC01A00EB8000400077
:1002900088624FF40050106000BD4FF08040018A2A
:1002A000C90707D01449CA68521CCA60018A21F0E4
:1002B00001010182704714490888C0070CD00E481C
:1002C0008268632A01D1012282608268521C8260A6
:1002D000088820F001000880704700F0C2F8074845
:1002E0000A4914380160016841F0040101600168A5
:1002F00041F030010160FEE70000002014080140D9
:100300001404014000100140100400400044444423
:100310005949122008607047594858494160594965
:10032000016001688903FCD501688901FCD5416839
:10033000C1F381010229FAD170477047524845F252
:10034000555101600221416040F69F7181604AF67B
:10035000AA2101604CF6CC41016070474FF0E020CB
:100360004A4941610621016100218161016941F031
:1003700001010161704710B54148C16941F08051E8
:10038000C161434A116841F480711160016A41F012
:1003900001010162016A8907FCD5016A41F401414A
:1003A00001623C48018841F0100101800021031DD9
:1003B0001980384C47F6FF7308342380354B1433CB
:1003C00019801B1D19801B1D19803C211B1D1980C4
:1003D0000121031F198030490B6843F008030B60AB
:1003E000018821F01001018001888906FCD5106880
:1003F00020F48070106010BD70472148816941F081
:1004000008018161264925480860091D4FF03330F5
:10041000086070477047704770471948C16941F0DC
:100420000061C161C16941F08051C1611848016832
:1004300041F4807101601B4900220A80091D0A8075
:100440000A8842F003020A80026822F48072026085
:100450000888400704D51048016841F00401016094
:10046000704700B5FFF754FFFFF756FF5DF804EB48
:10047000C3E70D48704700000020024002841D00C1
:10048000001002408200010100300040FFB9DB0093
:10049000007000400428004000E100E0000030331C
:1004A000000C0140306C0040005125020548004717
:1004B000FEE7FEE7FEE7FEE7FEE7FEE7FEE7FEE714
:1004C000FEE7FEE7ED000008064C074D06E0E06899
:1004D00040F0010394E8070098471034AC42F6D38B
:1004E000FFF708FE0C0500082C05000802E008C80C
:1004F000121F08C1002AFAD170477047002001E09E
:1005000001C1121F002AFBD1704700002C05000812
:100510000000002070000000EC0400089C050008AA
:100520007000002000020000FC0400080000000031
:1005300000000000000000000000000000000000BB
:100540001400000000000000BC02000000000000D9
:10055000000000000000000000000000000000009B
:10056000000000000000000000000000000000008B
:10057000000000000000000000000000000000007B
:10058000000000000000000000000000000000006B
:0C0590006830187A10385A424A520000B5
:04000005080000ED02
:00000001FF
