:020000040800F2
:1000000010020020910600089506000897060008D7
:10001000990600089B0600089D06000800000000E5
:100020000000000000000000000000009F06000823
:10003000A106000800000000A30600085101000806
:10004000A7060008A7060008A7060008A7060008DC
:10005000A7060008A7060008A7060008A7060008CC
:10006000A7060008A7060008A7060008A7060008BC
:10007000A7060008A7060008A7060008A7060008AC
:10008000A7060008A7060008A7060008A70600089C
:10009000A7060008A7060008A7060008A70600088C
:1000A000A7060008A7060008A7060008A70600087C
:1000B000A7060008A7060008A7060008A70600086C
:1000C000A7060008A7060008A7060008A70600085C
:1000D000A7060008A7060008A7060008A70600084C
:1000E000A7060008A7060008A7060008DFF80CD03E
:1000F00000F0E4FA00480047D10200081002002096
:1001000000BFC54A128802F08002002AF9D0C2B2AC
:10011000C14B1B1D1A807047C04800687047C0491A
:10012000086000BFBE4909680029FBD1704700B5CF
:100130000246642102FB01F0FFF7F1FF00BDB84861
:10014000006820B1B6480068401EB5490860704795
:1001500000B5FFF7F4FFB1480068401CAF490860E4
:1001600000BDB048006840F48070AE490860704738
:10017000AC48006820F48070AA4908607047A9481C
:10018000006840F40070A74908600846006820F441
:1001900000700860704770B5002100220023002421
:1001A00000F0010505B1012100F0020505B10122B1
:1001B00000F0040505B1012300F0080505B1012494
:1001C000994DED6825F08005974EF560974D2D68A7
:1001D00025F04005954E3560924D2D6825F080053F
:1001E000904E356035462D6825F0400535608E4DC2
:1001F000ED6845EAC1158C4EF5608C4D2D6845EAD9
:1002000082158A4E3560874D2D6845EAC315854EA7
:10021000356035462D6845EA8415356070BD10B5EA
:100220000446FFF7A5FF2009FFF7B5FFFFF7A7FF7B
:10023000FFF797FF0520FFF772FFFFF799FF04F024
:100240000F00FFF7A8FFFFF79AFFFFF78AFF0520CF
:10025000FFF765FF10BD10B50446FFF782FF2009C8
:10026000FFF799FFFFF78BFF0520FFF758FF04F01A
:100270000F00FFF790FFFFF782FF0520FFF74FFF0A
:1002800010BD00B5FFF76DFF6420FFF748FF282081
:10029000FFF7C5FF0620FFF7C2FF0C20FFF7BFFFE7
:1002A0008020FFF7BCFF0120FFF7B9FFC820FFF750
:1002B00036FF00BD70B50546002403E0285DFFF75A
:1002C000CAFF641C284600F0F1F9A042F6DC70BDBC
:1002D00000F0BEF94FF434704FF0E0214861072080
:1002E00008615348C06940F400305149C86108466C
:1002F000806940F0040088614A480C38006820F4A6
:10030000706048490C3908600846006820F4704065
:1003100008600846006840F43060086008460068DD
:1003200040F48040086042F20C003B490C310880E8
:100330000020091D0880091D088040F6A660364986
:10034000083108803A48806940F07800384988616F
:1003500034480838006820F00F0032490839086036
:100360000846006820F0F00008602F48006820F080
:1003700070402D4908602D480C38006820F07060EE
:100380002A490C39086027480C38006820F0704072
:1003900024490C3908600846006820F07060086045
:1003A000081D006840F00300091D08600846006849
:1003B00040F0300008601C48006840F040501A4986
:1003C00008601A480C38006840F0407017490C3932
:1003D000086014480C38006840F0405011490C394E
:1003E00008600846006840F04070086011A000F006
:1003F00077F9FFF746FF40201D4908601DA000F077
:100400006FF920A000F06CF905E02B48FFF787FE9C
:100410003120FFF720FFF8E70044004004000020EF
:10042000000000200C080140001001400C0C0140AD
:1004300000100240696E697420636861722D2D2D71
:100440002D2D2D2D2D2D2D2D2D2D2D2D2D2D2D2DDC
:100450002D2D2D2D2D2D2D2D2D2D2D2D2D2D2D2DCC
:100460002D2D2D2D2D2D2D2D2D200D0A00000000C0
:1004700004E100E068656C6C6F20776F726C640D4E
:100480000A0000006C6F6F702D2D2D2D2D2D2D2D40
:100490002D2D2D2D2D2D2D2D2D2D2D2D2D2D2D2D8C
:1004A0002D2D2D2D2D2D2D2D2D2D2D2D2D2D2D2D7C
:1004B0002D2D2D2D200D0A00A08601001220694946
:1004C000086070476848694948606948086000BF2B
:1004D0006648006800F400300028F9D000BF634887
:1004E000006800F000700028F9D000BF5F48406845
:1004F00000F00C000828F9D17047704745F25550BC
:100500005C4908600220486040F69F7088604AF6A7
:10051000AA2008604CF6CC400860704756484FF05F
:10052000E0214861062008610020886108460069D2
:1005300040F00100086170474C48C06940F08050AD
:100540004A49C8614D48006840F480704B490860D2
:100550004648006A40F001004449086200BF434831
:10056000006A00F002000028F9D04048006A40F418
:1005700001403E4908624248008840F0100040496E
:1005800008800020091D088047F6FF70091D0880BB
:1005900000203B4914310880091D0880091D08808E
:1005A0003C20091D088001203549091F0880354875
:1005B000006840F008004FF0E021C1F80001304829
:1005C000008820F010002E49088000BF2C480088C9
:1005D00000F020000028F9D02848006820F480703E
:1005E00026490860704770477047704770477047EA
:1005F0001E48C06940F000601C49C8610846C069D7
:1006000040F08050C8611D48006840F480701B496C
:10061000086000201C490880091D088008460088E1
:1006200040F0030008801548006820F480701349EA
:1006300008601548001D008800F0040038B111481A
:10064000006840F004004FF0E021C1F8000170475D
:1006500000B5FFF733FFFFF735FFFFF7C5FF00BD1C
:100660000A4870470020024002841D00001002402A
:100670008200010100300040FFB9DB000070004043
:100680000428004000E100E0306C004000512502E9
:1006900005480047FEE7FEE7FEE7FEE7FEE7FEE768
:1006A000FEE7FEE7FEE7FEE7ED000008421C10F85B
:1006B000011B0029FBD1801A70470000064C074D32
:1006C00006E0E06840F0010394E807009847103422
:1006D000AC42F6D3FFF70EFD3007000850070008C4
:1006E000014A024900F013B8010100080800002087
:1006F00002E008C8121F08C1002AFAD170477047EB
:10070000002001E001C1121F002AFBD170472DE932
:10071000F04116460F460446002503E03946B0472F
:10072000641C6D1C20780028F8D12846BDE8F081B3
:1007300050070008000000200C000000F006000830
:100740005C0700080C0000200402000000070008FD
:0C0750000000000000000000000000009D
:04000005080000ED02
:00000001FF
