:020000040800F2
:10000000B8040020890100088D0100088F01000854
:10001000910100089301000895010008000000000C
:100020000000000000000000000000009701000830
:1000300099010008000000009B010008410600082B
:100040009F0100089F0100089F0100089F01000810
:100050009F0100089F0100089F0100089F01000800
:100060009F0100089F0100089F0100089F010008F0
:100070009F0100089F0100089F0100089F010008E0
:100080009F0100089F0100089F0100089F010008D0
:100090009F0100089F0100089F0100089F010008C0
:1000A0009F010008E30400089F01000807050008FD
:1000B000C10500089F0100089F0100089F0100087A
:1000C0009F0100089F0100089F0100089F01000890
:1000D0009F0100089F0100089F0100089F01000880
:1000E0009F0100089F0100089F01000800F002F82E
:1000F00000F03AF80AA090E8000C82448344AAF188
:100100000107DA4501D100F02FF8AFF2090EBAE885
:100110000F0013F0010F18BFFB1A43F0010318473B
:100120003008000050080000103A24BF78C878C199
:10013000FAD8520724BF30C830C144BF04680C60ED
:10014000704700000023002400250026103A28BF35
:1001500078C1FBD8520728BF30C148BF0B60704739
:100160001FB51FBD10B510BD00F0BBFB1146FFF75A
:10017000F7FF00F0F8FA00F0D9FB03B4FFF7F2FF45
:1001800003BC00F0DDFB000008480047FEE7FEE787
:10019000FEE7FEE7FEE7FEE7FEE7FEE7FEE7FEE737
:1001A00003480449024A044B70470000ED00000870
:1001B000B8000020B8040020B80000201220AE498A
:1001C00008607047AD48AE494860AE48086000BF5F
:1001D000AB48006800F400300028F9D000BFA84800
:1001E000006800F000700028F9D000BFA448406803
:1001F00000F00C000828F9D17047704745F25550BF
:10020000A14908600220486040F69F7088604AF665
:10021000AA2008604CF6CC400860704770479848A8
:10022000C06940F080509649C8619848006840F421
:100230008070964908609248006A40F00100904939
:10024000086200BF8E48006A00F002000028F9D062
:100250008B48006A40F40140894908628C48008854
:1002600040F010008A4908800020091D088047F6E8
:10027000FF70091D08800020854914310880091D80
:100280000880091D08803C20091D08800120804944
:10029000091F08807F48006840F008004FF0E02107
:1002A000C1F800017A48008820F0100078490880E1
:1002B00000BF7748008800F020000028F9D073487C
:1002C000006820F480707149086070476C4880694C
:1002D00040F400606A49886140F21B206E49088042
:1002E0004CF24F30091D08800220091D08800020B3
:1002F000694928390880091D0880012066491C3990
:1003000008806448006840F000704FF0E021C1F8B8
:10031000000161482838008840F001005E49283912
:10032000088070475648806940F00400544988614D
:100330005A485B4908600020091D086050488069E0
:1003400040F008004E4988614FF44010554908605C
:100350005548091D08604A48806940F01000484926
:1003600088610020514908604FF480004860704760
:100370004F48406820F004004D494860404880697B
:1003800040F004003E4988614548001D006820F4A3
:100390007F604349091D08600846006840F0B000CE
:1003A00008600846006840F480600860344880694E
:1003B00040F48040324988614EF21B603D4908801C
:1003C0000020091D0880091D0880081F0088091FDA
:1003D0000880002037490C3108803648001D00880D
:1003E00040F00C003349091D08800846008840F49D
:1003F000005008807047704770472148C06940F03E
:1004000000601F49C8610846C06940F08050C8615B
:100410001E48006840F480701C490860002026498E
:100420000880091D08800846008840F00300088005
:100430001648006820F48070144908601E48001DAA
:10044000008800F0040038B11248006840F0040051
:100450004FF0E021C1F80001704700B5FFF7AEFE94
:10046000FFF7B0FEFFF732FFFFF75CFFFFF780FFFB
:1004700000BD1248704700000020024002841D00A9
:100480000010024082000101003000400070004076
:100490000428004000E100E0282C0140040BB3BB1D
:1004A00000080140000C014000404444001001409D
:1004B0000000014008380140306C004080F93703EB
:1004C000F649086000BFF54909680029FBD170476B
:1004D000F248006820B1F1480068401EEF4908600A
:1004E0007047EF48008800F0010058B1ED480068FF
:1004F00040F02000EB490860E948008820F0010046
:10050000E74908807047E648008800F0020058B1CB
:10051000E448006820F02000E2490860E0480088D4
:1005200020F00200DE4908807047002000E0401CF7
:10053000B0F5167FFBDB704700B502460020DA49B4
:10054000086028E0D84801784FF400400841104086
:1005500030B1D648C06840F00100D449C86005E019
:10056000D248C06820F00100D049C860CF48C068B8
:1005700040F00200CD49C860FFF7D7FFCB48C06804
:1005800020F00200C949C860FFF7CFFFC6480068E5
:10059000401CC5490860C44800681028D2DBC34825
:1005A000C06840F00400C149C860FFF7BEFFBF4803
:1005B000C06820F00400BD49C860FFF7B6FF00BD69
:1005C00000B54FF08040008A00F00100A0B3002089
:1005D000B749088008460088FFF7AEFFB548B6491E
:1005E0000968405CB249098841EA0020B0490880A6
:1005F00008460088FFF7A0FFAF4801780120884037
:10060000AB4909880843AA49088008460088FFF7D3
:1006100093FFA9480068401CA74908600846006885
:10062000082801D1002008604FF08040008A20F0A7
:1006300001004FF08041088200BDA048006870476B
:1006400000B5FFF745FF00BD00B59848C06840F011
:1006500004009649C860FFF768FF9448C06820F01E
:1006600004009249C86000BD00B5024600BF94482E
:10067000008900F002000028F9D00020904988810C
:10068000FFF753FFFFF7E0FF00BF8D48008900F040
:1006900002000028F9D08A488281FFF746FFFFF761
:1006A000D3FF00BF8648008900F002000028F9D07F
:1006B00042F0040282488281FFF737FFFFF7C4FF50
:1006C00000BF7F48008900F002000028F9D022F026
:1006D00004027B488281FFF728FFFFF7B5FF00BFC8
:1006E0007748008900F002000028F9D042F00102AA
:1006F00073488281FFF719FFFFF7A6FFFFF715FF89
:1007000000BD00B5024642F0010200BF6C480089FE
:1007100000F002000028F9D069488281FFF705FF48
:10072000FFF792FF42F0040200BF6548008900F025
:1007300002000028F9D062488281FFF7F6FEFFF739
:1007400083FF22F0040200BF5D48008900F0020030
:100750000028F9D05A488281FFF7E7FEFFF774FFBF
:10076000FFF7E3FE00BDFFF778FE5648006840F053
:1007700000704FF0E021C1F880015348806920F4F7
:100780000060514988610120C8610846806940F0D5
:100790000400886143480C38006820F07F604149BC
:1007A0000C3908600846006840F44010086046486C
:1007B000806940F00800444988610846806940F03B
:1007C000100088614FF03330384908603F490860B5
:1007D00000203649C86045F21C003B4988613C480E
:1007E000324908603B482F490C3908604FF45F706C
:1007F00033490880002088803020FFF735FF302003
:10080000FFF732FF3020FFF72FFF2820FFF72CFFE4
:100810002020FFF729FF8020FFF726FF0020FFF7A9
:1008200023FF6020FFF720FF0020FFF71DFFC020FF
:10083000FFF71AFF8020FFF717FF0020FFF714FFD4
:100840000020FFF711FF1020FFF70EFF00201649D0
:10085000086006E0FFF769FE13480068401C124973
:100860000860114800680528F4DB15E03020FFF728
:1008700048FF1020FFF745FF00201749086006E0F9
:10088000FFF753FE14480068401C134908601248E3
:100890000068B0F57A7FF3D3E8E700001400002089
:1008A000102C01400C0801403800002000100140CD
:1008B0002000002044000020400000200000002014
:1008C0000030014080E100E000100240040C0140D3
:1008D0003333BBB4040BBBB44C00002070477047EB
:1008E0007047754600F028F8AE4605006946534645
:1008F00020F00700854618B020B5FFF751FCBDE891
:1009000020404FF000064FF000074FF000084FF076
:10091000000B21F00701AC46ACE8C009ACE8C00907
:10092000ACE8C009ACE8C0098D4670470446AFF397
:1009300000802046FFF721FC00487047540000204B
:1009400001491820ABBEFEE72600020070470000F8
:100950007009000800000020540000002801000871
:10096000C409000854000020640400004401000889
:100970000000000000000000000000000000000077
:100980000000000000000000000000000000000067
:100990000000000000000000000000000000000057
:1009A0000000000001000000000000000000000046
:1009B000000000000038440418044438000000001F
:0409C0000000000033
:04000005080000ED02
:00000001FF
