:020000040800F2
:10000000500400200101000807040008FF03000855
:100010000304000849010008D106000800000000A0
:10002000000000000000000000000000990500082A
:100030004D010008000000007D0400086D06000866
:100040001B0100081B0100081B0100081B01000820
:100050001B0100081B0100081B0100081B01000810
:100060001B0100081B0100081B0100081B01000800
:100070001B0100081B0100081B0100081B010008F0
:100080001B0100081B0100081B0100081B010008E0
:100090001B0100081B0100081B0100081B010008D0
:1000A0001B0100081B0100081B0100081B010008C0
:1000B0001B0100081B0100081B0100081B010008B0
:1000C0001B0100081B0100081B0100081B010008A0
:1000D0001B0100081B0100081B0100081B01000890
:1000E0001B0100081B0100081B010008DFF80CD0F1
:1000F00000F018F800480047F506000850040020FA
:100100000648804706480047FEE7FEE7FEE7FEE7B1
:10011000FEE7FEE7FEE7FEE7FEE7FEE77106000802
:10012000ED000008064C074D06E0E06840F00103D2
:1001300094E8070098471034AC42F6D3FFF7DAFF93
:10014000A0080008C008000800BFFEE7704700E0F4
:10015000401E0028FCD17047002123498279002AE3
:100160003AD00A46126803689A430B461A600A1D81
:10017000126803689A430B1D1A60027911440A68D9
:1001800003681A430A60184A0832126803689A43DF
:10019000154B08331A601A1D126803689A43124BF4
:1001A0000C331A604279102A0ED11A1F12680368A4
:1001B0001A430D4B08331A601A1D126803681A435C
:1001C000094B0C331A600DE00749427911440A6863
:1001D00003681A430A6005E0027911440A6803685B
:1001E0009A430A60704700000004014030B50022C5
:1001F0008B071C0F0F2303FA04F20B4B8C1053F8E0
:1002000024309343084C8D1044F8253023468C103D
:1002100053F824308C07240F00FA04F42343024CD3
:100220008D1044F8253030BD080001402DE9F04123
:10023000024600250026002000230024002791F814
:1002400003C00CF00F0591F803C01CF0100F03D091
:1002500091F802C04CEA0505B1F800C01CF0FF0F90
:1002600031D0146800202BE04FF0010C0CFA00F3A1
:10027000B1F800C00CEA03069E4220D183004FF083
:100280000F0C0CFA03F7BC4305FA03FC4CEA040418
:1002900091F803C0BCF1280F06D14FF0010C0CFA05
:1002A00000FCC2F814C00AE091F803C0BCF1480F8A
:1002B00005D14FF0010C0CFA00FCC2F810C0401C34
:1002C0000828D1D31460B1F800C0BCF1FF0F34DDB1
:1002D000546800202EE000F1080C4FF0010808FAE5
:1002E0000CF3B1F800C00CEA03069E4221D1830052
:1002F0004FF00F0C0CFA03F7BC4305FA03FC4CEA71
:10030000040491F803C0BCF1280F05D100F1080CDA
:1003100008FA0CF8C2F8148091F803C0BCF1480F39
:1003200007D100F1080C4FF0010808FA0CF8C2F8E8
:100330001080401C0828CED35460BDE8F081000036
:10034000F0B50A46002300240021002500F00046F5
:10035000B6F1004F02D11D4EF16901E01B4E7168EC
:10036000C0F3034583B200F44016B6F5401F08D130
:1003700021F07061154E766826F07066134F7E602E
:1003800012E000F48016B6F5801F06D1032606FAA7
:1003900005F4A14341F0706106E0460D360103FA11
:1003A00006F6B14341F0706122B1460D360103FA01
:1003B00006F6314300F00046B6F1004F02D1034E7D
:1003C000F16101E0014E7160F0BD000000000140EC
:1003D0000246002093680B4201D0012000E000207B
:1003E000704702460020D3680B4201D0012000E094
:1003F000002070470AB1016100E04161704700BF11
:10040000FEE700BFFEE7704770B5002100230F2212
:10041000C4780CB3164C246804F4E064C4F5E064BA
:10042000210AC1F10403CA40447804FA03F1847834
:100430001440214309010F4C0678A155047804F0BB
:100440001F050124AC4005786D114FF0E02606EB46
:100450008505C5F8004109E0047804F01F05012472
:10046000AC40054D0678761145F8264070BD000079
:100470000CED00E000E400E080E100E070470000E7
:1004800029B1064A92690243044B9A6104E0034A87
:1004900092698243014B9A6170470000001002404C
:1004A00010B501210D20FFF7EBFF10BD034931F816
:1004B0001010034A52F8202011617047F807000815
:1004C0000400002010B50446044A32F81410044A0F
:1004D00052F82400FFF77CFF10BD00001008000850
:1004E000140000207FB504460D46244951F824101D
:1004F00041F001000121FFF7C3FF04208DF80F0038
:100500001F4830F81400ADF80C001E4951F82400C3
:1005100003A9FFF78BFE012D2FD11B4A32F81420BF
:10052000D1B21A4A32F81420D0B2FFF75FFE184851
:1005300030F81400019000208DF808001CB10C2048
:100540008DF8090002E008208DF8090001208DF8DF
:100550000A0001A8FFF700FE0E4830F81400C0B2F0
:100560008DF800000F208DF801008DF802000120A9
:100570008DF803006846FFF747FF7FBD200800089D
:100580001008000814000020600800085008000847
:100590004008000870080008704710B500F002F825
:1005A00010BD0000002100202E4A126842F4803263
:1005B0002C4B1A6000BF2B4A126802F40030491C11
:1005C00010B9B1F5A06FF6D1264A126812F4003FB7
:1005D00001D0012000E00020012842D1224A126807
:1005E00042F01002204B1A601A46126822F00302F1
:1005F0001A601A46126842F002021A60194A5268DA
:10060000184B5A601A4652685A601A46526842F4A9
:1006100080625A601A46526822F47C125A601A4666
:10062000526842F4E8125A601A46126842F0807228
:100630001A6000BF0B4A126812F0007FFAD0094A14
:10064000526822F00302074B5A601A46526842F081
:1006500002025A6000BF034A526802F00C02082AE4
:10066000F9D170470010024000200240704700009E
:1006700010B51348006840F00100114908600846B1
:100680004068104908400E494860084600680E4915
:1006900008400B4908600846006820F48020086084
:1006A0000846406820F4FE0048604FF41F00886050
:1006B000FFF773FF4FF000600449086010BD0000B1
:1006C000001002400000FFF8FFFFF6FE08ED00E01A
:1006D00000BFFEE702E008C8121F08C1002AFAD1D5
:1006E00070477047002001E001C1121F002AFBD1B2
:1006F00070470000FFF7D4FE00210220FFF7F2FE52
:100700000220FFF7DFFE002867D101213548FFF7FF
:1007100017FE4FF460403449088003208870102091
:10072000C8703248FFF782FD18202F4908803048F2
:10073000FFF77CFD50E04FF400512C48FFF751FECD
:10074000C0F10100C4B222464FF400512748FFF720
:1007500051FE2848FFF7FBFC4FF480412348FFF788
:1007600040FEC0F10100C4B222464FF480411F4850
:10077000FFF740FE1F48FFF7EAFC4FF400411B481B
:10078000FFF72FFEC0F10100C4B222464FF4004132
:100790001648FFF72FFE1748FFF7D9FC0821144829
:1007A000FFF71FFEC0F10100C4B222460821104825
:1007B000FFF720FE0F48FFF7CAFC10210C48FFF797
:1007C00010FEC0F10100C4B2224610210848FFF714
:1007D00011FE0848FFF7BBFCADE70120FFF766FEFE
:1007E00000BFFEE7000430000000002000080140C8
:1007F000000C0140FFFF05004000800000010002E6
:1008000010000000100000001000000010000000A8
:100810000100002000020100020000010040001061
:10082000040000001000000008000000400000006C
:100830004000000020000000200000002000000018
:100840000100002000020100020000010040001031
:100850000000020001000400040003000300030084
:1008600000000D0009000000010008000E000C004F
:1008700006002800170006000700170028002800BF
:100880000040000000000200040000002000000002
:1008900004000000200000000002200000044000CE
:1008A000C0080008000000204C000000D40600082A
:1008B0000C0900084C00002004040000E4060008B5
:1008C0000000000000100140001001400010014035
:1008D000001001400008014000100140000C0140E0
:1008E00000180140001801400014014000140140AC
:1008F000001401400038014000440040000801405D
:0C090000001401400008014000140140F8
:04000005080000ED02
:00000001FF
