:020000040800F2
:10000000700200209D040008A1040008A304000859
:10001000A5040008A7040008A904000800000000C7
:10002000000000000000000000000000AB04000819
:10003000AD04000800000000AF040008B10400088F
:10004000B3040008B3040008B3040008B3040008B4
:10005000B3040008B30400085D0500087D0500082E
:10006000B3040008B3040008B3040008B304000894
:10007000B3040008B3040008B3040008B304000884
:10008000B3040008B3040008B3040008B304000874
:10009000B3040008B3040008B3040008B304000864
:1000A000B3040008B3040008B3040008B304000854
:1000B000B3040008B3040008B3040008B304000844
:1000C000B3040008B3040008B3040008B304000834
:1000D000B30400080505000831050008B304000852
:1000E000B3040008B3040008B304000800F002F8E9
:1000F00000F042F80AA090E8000C82448344AAF180
:100100000107DA4501D100F037F8AFF2090EBAE87D
:100110000F0013F0010F18BFFB1A43F0010318473B
:100120003C0900005C090000103A24BF78C878C17F
:10013000FAD8520724BF30C830C144BF04680C60ED
:10014000704700000023002400250026103A28BF35
:1001500078C1FBD8520728BF30C148BF0B60704739
:10016000702900F05D83632900F0EA830020704766
:100170001FB51FBD10B510BD00F018FC1146FFF7EC
:10018000F7FF00F04DFA00F036FC03B4FFF7F2FF82
:1001900003BC00F09AFA00001220AE4908607047D4
:1001A000AD48AE494860AE48086000BFAB48006843
:1001B00000F400300028F9D000BFA848006800F023
:1001C00000700028F9D000BFA448406800F00C007F
:1001D0000828F9D17047704745F25550A149086089
:1001E0000220486040F69F7088604AF6AA200860A6
:1001F0004CF6CC400860704770479848C06940F0A2
:1002000080509649C8619848006840F480709649CB
:1002100008609248006A40F001009049086200BFFF
:100220008E48006A00F002000028F9D08B48006A6E
:1002300040F40140894908628C48008840F0100071
:100240008A4908800020091D088047F6FF70091DB3
:1002500008800020854914310880091D0880091D87
:1002600008803C20091D088001208049091F088062
:100270007F48006840F008004FF0E021C1F800011D
:100280007A48008820F010007849088000BF77483D
:10029000008800F020000028F9D07348006820F49E
:1002A00080707149086070476C48C06940F0010077
:1002B0006A49C86100208904088542F62F20888594
:1002C000002008808880088548208885002088864E
:1002D000088705208887002066490880090608836A
:1002E0006020888388150884002008810420088005
:1002F000002088800846008840F001000880704790
:100300005648806940F004005449886140F6043042
:10031000594908600020091D08605048806940F074
:1003200008004E4988615548554908605548091DDF
:1003300008604A48806940F0100048498861002000
:10034000514908604FF48000486070474F4840684A
:1003500020F004004D4948604048806940F00400A6
:100360003E4988614448001D006820F47F6042498E
:10037000091D08600846006840F0B00008600846A3
:10038000006840F4806008603448806940F4804030
:100390003249886141F64C503D4908800020091DD2
:1003A0000880091D0880081F0088091F0880002098
:1003B00037490C3108803648001D008840F00C0099
:1003C0003349091D08800846008840F40050088021
:1003D0007047704770472148C06940F000601F496E
:1003E000C8610846C06940F08050C8611E48006876
:1003F00040F480701C490860002026490880091DCF
:1004000008800846008840F003000880164800680D
:1004100020F48070144908601E48001D008800F018
:10042000040038B11248006840F004004FF0E021A9
:10043000C1F80001704700B5FFF7AEFEFFF7B0FE50
:10044000FFF732FFFFF75CFFFFF780FF00BD1248A8
:10045000704700000020024002841D00001002408E
:10046000820001010030004000700040042800407C
:1004700000E100E04000004000080140000030FFC3
:10048000000C0140004044440010014000000140C5
:1004900008380140306C004080F9370308480047B5
:1004A000FEE7FEE7FEE7FEE7FEE7FEE7FEE7FEE724
:1004B000FEE7FEE703480449024A044B7047000088
:1004C000ED00000870000020700200207000002085
:1004D00000BF5A49098801F080010029F9D0C0F312
:1004E0000801564A121D1180704700BF534800880A
:1004F00000F020000028F9D05048001D0088C0F30B
:100500000800704738B54D4800880090009800F00A
:10051000200060B14948008820F020004749088049
:10052000081D0088C4B2214645A000F00FF938BD6F
:1005300038B5464800880090009800F0200060B16F
:100540004248008820F0200040490880081D0088AB
:10055000C4B221463EA000F0F9F838BD10B53F48BE
:10056000006800F0010040B13DA000F0EFF83B480A
:10057000006840F001003949086010BD10B53748E7
:10058000006800F0020050B135A000F0DFF800F084
:100590003DFA3248006840F002003049086010BD62
:1005A0003648406940F001003449486134483549D3
:1005B0004861354808610320C86042F2A050886055
:1005C0000846806840F0010088602C48806940F44B
:1005D00000702A4988614FF400102B4920390860C7
:1005E00040F6414028491839086040F668302649ED
:1005F0003C39086088152449483908602348091D9A
:1006000008600846006840F4A0000860704701B523
:1006100002E00098401E009000980028F9D108BD23
:10062000FFF709FF1A484FF02021086200BF144964
:1006300018A000F08BF8FAE700BFFEE70038014091
:10064000756172742031203A202563000044004017
:100650007561727432203A20256300001404014051
:10066000696E206578746930206972712068616EE6
:10067000646C65722E2E2E0D0A00000000100240E0
:1006800000000020000002404C24014003010E0045
:100690007856341225700A0070B504460D4620467F
:1006A000FFF716FF70BD70B50546FFF71EFF044645
:1006B000FFF70EFF70BD10B504462046FFF708FF98
:1006C00010BD01464FF0FF30704700BFFEE700004D
:1006D00030BF704720BF704740BF7047BFF36F8F78
:1006E0007047BFF34F8F7047BFF35F8F704701DFD5
:1006F0007047EFF31480704780F31488BFF36F8F57
:100700007047EFF30980704780F309887047EFF373
:100710000880704780F30888704762B6704772B6E9
:100720007047EFF31080704771B6704761B670473D
:10073000EFF31380704780F311887047EFF3128056
:10074000704740BA704700BA704770470FB4044909
:1007500010B503AA029800F0FFF810BC5DF814FB76
:10076000080000202DE9F0410E46044600202062DA
:100770002046E168884730B3252805D0D4E9012117
:100780009047206A401CF2E7E1682046002788472E
:10079000050018D0A5F14100192802D820354FF4E2
:1007A00000673246294620462760FFF7D9FC40B152
:1007B000012804D0F61D26F007060836D8E7361DB6
:1007C000D6E72846DAE7206ABDE8F08170B50C4626
:1007D0000546012A05D02878800600D5EA6900235D
:1007E00002E0012305E05B1C934202D2E05C00289A
:1007F000F9D1A869E618C01AA861286A18442862C5
:100800002846AFF3008004E0D5E9012114F8010B7C
:100810009047B442F8D32846AFF3008070BD000083
:10082000F0B4136802680824C4610C4642F0200248
:100830000260110502D50E4A7A4402E00C4A7A445D
:100840000E32002100F1240505E003F00F061B091C
:10085000965D6E54491C002BF7D105782D0703D502
:10086000702C01D101231032F0BC00F006B800005A
:10087000F80100007047704770472DE9F0470D46BA
:1008800099469246044600F124080168880604D57A
:10089000E06921F01001216000E00120A84201DDA3
:1008A000471B00E00027A1697A1902EB0900081A2A
:1008B000A0612078C00602D42046AFF30080002655
:1008C00008E0D4E901211AF806009047206A401C8C
:1008D000761C20624E45F4DB2078C0060AD52046FF
:1008E000AFF3008006E0D4E9012130209047206A70
:1008F000401C2062381EA7F10107F4DC07E0D4E9B0
:10090000012118F805009047206A401C2062281E2B
:10091000A5F10105F3DC2046AFF300802078000646
:1009200002D50220BDE8F0870120FBE710B543693E
:1009300013B1AFF3008001E0FFF748FF012010BDC5
:10094000127800F124010A7000224A700122EDE7BA
:1009500011684FF0FF32E9E7074B70B50D467B4455
:1009600000F011F804462846FFF7ABFE10B14FF037
:10097000FF3070BD204670BD37FDFFFF01694A1C86
:1009800002610878704700B58FB0CDE901310021D0
:10099000059105497944CDE9031011466846FFF7F2
:1009A000E1FE0FB000BD0000E5FFFFFF754600F05F
:1009B00029F8AE4605006946534620F007008546F3
:1009C00018B020B5FFF776FDBDE820404FF00006D7
:1009D0004FF000074FF000084FF0000B21F0070127
:1009E000AC46ACE8C009ACE8C009ACE8C009ACE86A
:1009F000C0098D4670470446AFF300802046FFF7DC
:100A0000C4FB000000487047100000200748016840
:100A100041F004010160016841F0020101600448F5
:100A2000016841F004010160FFF752BE0070004010
:100A300010ED00E030313233343536373839414249
:100A40004344454640305800303132333435363730
:100A50003839616263646566403078007C0A00085A
:100A60000000002010000000280100088C0A000887
:100A70001000002060020000440100080000000097
:0C0A80000000000000000000000000006A
:04000005080000ED02
:00000001FF
