:020000040800F2
:10000000D0200020311C000885190008871900083D
:10001000891900088B1900088D19000800000000DC
:100020000000000000000000000000008F19000820
:1000300091190008000000009319000895190008A4
:10004000D91C0008DD1C0008E11C0008E51C0008A4
:10005000E91C0008ED1C0008F11C0008F51C000854
:10006000F91C0008FD1C0008011D0008051D000802
:10007000091D00080D1D0008111D0008151D0008B0
:10008000191D00081D1D0008211D0008251D000860
:10009000291D00082D1D0008311D0008351D000810
:1000A000391D00083D1D0008411D0008451D0008C0
:1000B000491D00084D1D0008511D0008551D000870
:1000C000591D00085D1D0008611D0008651D000820
:1000D000691D00086D1D0008711D0008751D0008D0
:1000E0009D1900087D1D0008811D0008851D000860
:1000F000891D00088D1D0008911D0008951D000830
:10010000991D00089D1D0008A11D0008A51D0008DF
:10011000A91D0008AD1D0008B11D0008B51D00088F
:10012000B91D0008BD1D0008C11D0008C51D00083F
:10013000C91D0008CD1D0008D11D0008D51D0008EF
:10014000D91D0008DD1D0008E11D0008E51D00089F
:10015000E91D0008ED1D0008F11D0008F51D00084F
:10016000F91D0008FD1D0008011E0008051E0008FD
:10017000091E00080D1E0008111E0008151E0008AB
:10018000191E000840B2002809D540B210F00F0037
:10019000DFF8A8238018090100F8041C04E040B22D
:1001A000DFF89C2309018154704780B5B0F1807F4E
:1001B00001D3012013E00002000A401EDFF884137F
:1001C00008600F215FF0FF30FFF7DCFFDFF87803F6
:1001D00000210160DFF8740307210160002002BDE7
:1001E0001CB504000121E4B2DFF8640350F82400D8
:1001F00000F053FAE4B2DFF85C0330F8140000902A
:1002000001208DF8040000208DF8060001208DF8F3
:10021000070002208DF8050000A9E4B2CE4850F88E
:10022000240000F0D7FA13BDC0B2CB4951F820101A
:10023000C0B2C84A32F8100008837047C0B2C6493D
:1002400051F82010C0B2C34A32F8100048837047FA
:10025000C0B2C14951F820104969C0B2BD4A32F854
:1002600010205140C0B2BC4A52F820004161704792
:1002700030B585B004000D000121E4B2B74850F854
:10028000240000F00AFA01214FF4804000F05DFAEA
:1002900000208DF8100000208DF81300E4B2B04863
:1002A00030F81400039003A9E4B2AE4850F82400DB
:1002B00000F090FAEDB2012D29D1E4B2AA48215CF8
:1002C000E4B2AA48205C00F05BFCE4B2A84830F835
:1002D0001400019000208DF808000C208DF8090012
:1002E00001208DF80A0001A800F0CAFCE4B2A14880
:1002F000205C8DF800000F208DF801000F208DF894
:10030000020001208DF8030000A800F09FFD05B059
:1003100030BD30B583B004000D000121E4B2964831
:1003200050F82400E4B2954A52F82420104300F01B
:10033000B4F9E4B2002C07D10121E4B2904850F89E
:10034000240000F002FA09E0E4B2012C06D10121F8
:10035000E4B28B4850F8240000F0CBF9E4B28948AD
:10036000225CE4B28848215C89B2E4B2874850F844
:10037000240000F001FBE4B28548225CE4B2854829
:10038000215C89B2E4B2844850F8240000F0F4FA09
:1003900000208DF8060001208DF8070002208DF85E
:1003A0000400E4B27D4830F81400009002208DF87B
:1003B000050000A9E4B2754850F8240000F00AFADC
:1003C00002208DF80400E4B2754830F81400009063
:1003D00000A9E4B2704850F8240000F0FBF92900AD
:1003E000E4B2704850F8240000F0A2FD0121E4B20C
:1003F0006C4850F8240000F08DFE37BD00B585B084
:100400005FF4E13000900020ADF804000020ADF86A
:1004100006000020ADF808000020ADF80C000C200C
:10042000ADF80A0000A90020FFF773FF05B000BD7A
:1004300080B50020FFF7D4FE0120FFF7D1FE022097
:10044000FFF7CEFE002000F00CF8012000F009F8C4
:10045000022000F006F801BD80B5C0B2FFF7EEFE45
:1004600001BD80B5C0B2FFF7DFFE01BD80B5C0B2EF
:10047000FFF7EEFE01BD80B501210020FFF7F8FE79
:1004800001210120FFF7F4FE01BD00B585B0042075
:1004900000F026FD00A800F08DF801986421B0FB63
:1004A000F1F0FFF782FE05B000BD10B504000A2C84
:1004B0000ED10D213C4800F068FE40213A4800F082
:1004C000CBFE0028F9D00A21374800F05EFE05E097
:1004D0002100C9B289B2344800F057FE40213248A9
:1004E00000F0BAFE0028F9D0200010BD10B5202180
:1004F0002D4800F0B1FE0028F9D02B4800F075FE21
:100500000400E4B2210089B2274800F03EFE8021B9
:10051000254800F0A1FE0028F9D0E4B20D2C01D14D
:100520000A2001E02000C0B210BD80B50B0002001F
:100530001E491F4800F004FFFEE7000018ED00E030
:1005400000E400E014E000E018E000E010E000E06B
:10055000401C00087C1C000850000020841C00087F
:10056000A41C00085C000020AA1B0008EA17000871
:10057000A81C0008B61B0008941C00089C1C00085E
:100580008C1C00081E1E0008E21B00086C000020E6
:10059000201E00081C1E000874000020AC1C00086F
:1005A000B01C00086400002000100140F01B00088F
:1005B0006C1A0008F0B40021002200230224002558
:1005C0000226DFF8E0713F6817F00C0739000029B8
:1005D00004D0042906D0082908D035E0DFF8D0116E
:1005E000016034E0DFF8CC11016030E0DFF8B811D1
:1005F0000968C1F38055DFF8B011096811F03F06B2
:10060000002D0BD0DFF8AC11B1FBF6F1DFF898212B
:100610001268C2F3881202FB01F30AE0DFF89011BE
:10062000B1FBF6F1DFF880211268C2F3881202FBF9
:1006300001F3DFF874110968C1F30141491C4C0052
:10064000B3FBF4F1016002E0DFF864110160DFF850
:100650005411096811F0F0010909DFF85C218A5C86
:100660000168D1404160DFF83C11096811F4E051A4
:10067000890ADFF844218A5C4168D1408160DFF853
:100680002411096811F46041490BDFF82C218A5CC0
:100690004168D140C160F0BC704738B504000D001E
:1006A000DFF81801044201D1002C04D140F2494185
:1006B0003E48FFF73AFFEDB2002D07D0EDB2012D15
:1006C00004D040F24B413948FFF72FFFEDB2002D27
:1006D00007D0DFF8EC0000682043DFF8E410086082
:1006E00006E0DFF8DC000068A043DFF8D410086003
:1006F00031BD38B504000D00DFF8C800044201D157
:10070000002C04D140F2B6412848FFF70EFFEDB2AD
:10071000002D07D0EDB2012D04D040F2B74123489F
:10072000FFF703FFEDB2002D07D0DFF89C00006853
:100730002043DFF89410086006E0DFF88C000068C2
:10074000A043DFF88410086031BD38B504000D0007
:10075000DFF87800044201D1002C04D140F2DE41E0
:100760001248FFF7E2FEEDB2002D07D0EDB2012DE9
:1007700004D040F2DF410D48FFF7D7FEEDB2002D67
:1007800007D0DFF84C0000682043DFF84410086011
:1007900006E0DFF83C000068A043DFF83410086092
:1007A00031BD000008380240043802403419000806
:1007B0000024F40040787D014000002000EE9B8181
:1007C00030380240003601C940380240CCA0F8FF62
:1007D0004438024070B504000D00002600200021BE
:1007E000DFF87021944224D0DFF86C01844220D0DD
:1007F000DFF8680184421CD0DFF86401844218D01D
:10080000DFF86001844214D0DFF85C01844210D02C
:10081000DFF8580184420CD0DFF85401844208D03C
:10082000DFF83403844204D0C121DFF84801FFF728
:100830007CFE2868002804D1C221DFF83801FFF7C8
:1008400074FE287900280DD0287901280AD028794B
:10085000022807D02879032804D0C321DFF8140127
:10086000FFF763FEE87900280AD0E879012807D06D
:10087000E879022804D0C421DFF8F800FFF755FE1C
:10088000002663E00120B0402968014081425CD12C
:10089000206803213200D2B2520091408843206088
:1008A000206829793200D2B252009140084320607A
:1008B0002879012802D02879022836D168790028C1
:1008C0000DD0687901280AD06879022807D06879A4
:1008D000032804D0D621DFF89C00FFF726FEA0688D
:1008E00003213200D2B2520091408843A060A06838
:1008F00069793200D2B2520091400843A060A879D1
:10090000002807D0A879012804D0DD21DFF8640091
:10091000FFF70BFE60680121B140884360606068AA
:10092000A979B14089B208436060E06803213200D0
:10093000D2B2520091408843E060E068E979320029
:10094000D2B2520091400843E060761C102E99D339
:1009500070BD000000000240000402400008024098
:10096000000C024000100240001402400018024037
:10097000001C0240E418000870B504000D001600C9
:1009800000200021754A94421CD07548844219D039
:100990007448844216D07448844213D07348844209
:1009A00010D0734884420DD0724884420AD07248F5
:1009B000844207D06848844204D04FF407716F48DE
:1009C000FFF7B3FDADB2002D31D0ADB2012D2ED069
:1009D000ADB2022D2BD0ADB2032D28D0ADB2042D77
:1009E00025D0ADB2052D22D0ADB2062D1FD0ADB2AF
:1009F000072D1CD0ADB2082D19D0ADB2092D16D0DF
:100A0000ADB20A2D13D0ADB20B2D10D0ADB20C2D5E
:100A10000DD0ADB20D2D0AD0ADB20E2D07D0ADB2B6
:100A20000F2D04D040F21D215448FFF77EFDF6B291
:100A3000002E6DD0F6B2092E6AD0F6B2002E67D025
:100A4000F6B2002E64D0F6B2002E61D0F6B2002EBF
:100A50005ED0F6B2012E5BD0F6B2012E58D0F6B2BF
:100A6000022E55D0F6B2022E52D0F6B2022E4FD040
:100A7000F6B2032E4CD0F6B2042E49D0F6B2042EB4
:100A800046D0F6B2042E43D0F6B2052E40D0F6B2D0
:100A9000052E3DD0F6B2092E3AD0F6B2062E37D04A
:100AA000F6B2092E34D0F6B2072E31D0F6B2072EA8
:100AB0002ED0F6B2072E2BD0F6B2082E28D0F6B2E2
:100AC000082E25D0F6B2082E22D0F6B2092E1FD05D
:100AD000F6B2092E1CD0F6B20A2E19D0F6B20A2EA2
:100AE00016D0F6B20B2E13D0F6B20C2E10D0F6B2F2
:100AF0000C2E0DD0F6B20C2E0AD0F6B20D2E07D069
:100B0000F6B20F2E04D040F21E211C48FFF70DFD57
:100B1000F6B215F00700C0B2800016FA00F0ADB2D0
:100B2000E91014EB8101ADB2EA1014EB8202126AF3
:100B30000F2315F00706F6B2B600B3409A430A62D7
:100B4000ADB2E91014EB8101096A0143ADB2E810BE
:100B500014EB8000016270BD0020024000000240E2
:100B60000004024000080240000C02400010024055
:100B70000014024000180240001C0240E418000863
:100B800038B504000D000020E4B2002C1BD0E4B204
:100B9000012C18D0E4B2022C15D0E4B2032C12D0F0
:100BA000E4B2042C0FD0E4B2052C0CD0E4B2062C35
:100BB00009D0E4B2072C06D0E4B2082C03D0892176
:100BC0002D48FFF7B2FCEDB2002D30D0EDB2012D73
:100BD0002DD0EDB2022D2AD0EDB2032D27D0EDB2EB
:100BE000042D24D0EDB2052D21D0EDB2062D1ED05E
:100BF000EDB2072D1BD0EDB2082D18D0EDB2092DA6
:100C000015D0EDB20A2D12D0EDB20B2D0FD0EDB2F2
:100C10000C2D0CD0EDB20D2D09D0EDB20E2D06D05D
:100C2000EDB20F2D03D08A211348FFF77EFC0F2071
:100C300015F00301C9B289008840EDB2A9100F4A2E
:100C400052F8211031EA0000EDB2A9100B4A42F827
:100C50002100EDB2A810094951F82000E4B215F0C6
:100C60000301C9B2890014FA01F10843EDB2A910D9
:100C7000024A42F8210031BDEC1700080838014053
:100C800010B5040000202179002906D0207904281D
:100C900003D082216C48FFF748FC6079082809D00E
:100CA00060790C2806D06079102803D0832166482B
:100CB000FFF73BFC2068C00DC005002802D120686A
:100CC000002803D184216048FFF72FFCA079002879
:100CD00006D0A079012803D085215B48FFF725FCC9
:100CE0005448A179002935D05249096822689143B6
:100CF000504A116050490968226891434E4A116078
:100D00002179081801682268114301604B48006886
:100D10002168884349490860494800682168884338
:100D200047490860607910280CD144480068216860
:100D30000843424908604248006821680843404926
:100D400008600DE03B48617908180168226811438A
:100D5000016005E02179081801682268914301606B
:100D600010BD10B5040000200021012C41D0022C40
:100D70003FD0042C3DD0082C3BD0102C39D0202C57
:100D800037D0402C35D0802C33D04FF48070844243
:100D90002FD04FF4007084422BD0B4F5806F28D050
:100DA000B4F5006F25D0B4F5805F22D0B4F5005FB4
:100DB0001FD0B4F5804F1CD0B4F5004F19D0B4F556
:100DC000803F16D0B4F5003F13D0B4F5802F10D07B
:100DD000B4F5002F0DD0B4F5801F0AD0B4F5001F74
:100DE00007D0B4F5800F04D04FF486711648FFF792
:100DF0009CFB1048006814EA000112480068204279
:100E000003D0002901D0012000E00020C0B210BDB5
:100E100010B50400E00DC005002801D1002C04D15C
:100E200040F223110848FFF780FB0648046010BD1C
:100E300000000000003C0140043C0140083C01402F
:100E40000C3C0140143C01409418000838B50400E3
:100E5000002000210F25E278002A06D0E078012842
:100E600003D08D212C48FFF760FB6078102803D356
:100E70008E212948FFF759FBA078102803D38F2132
:100E80002548FFF752FBE07800281ED02348006871
:100E900010F4E060D0F5E060000AD0F10401EDB29A
:100EA000054160788840A1782940084300012178F5
:100EB0001B4A8854207840111A490122237813F0E4
:100EC0001F039A4041F8202009E02078401116497C
:100ED0000122237813F01F039A4041F8202031BDEE
:100EE00010B50400042C06D014F1050F03D0E22144
:100EF0000948FFF71AFB042C06D10C48006850F093
:100F000004000A49086005E00848006830F0040061
:100F10000649086010BD0000D41900080CED00E07F
:100F200000E400E000E100E080E100E010E000E02B
:100F30007FB504000D000020002100220023DFF80F
:100F4000F462B44218D0DFF8F002844214D0DFF823
:100F5000EC02844210D0DFF8E80284420CD0DFF8C3
:100F6000E402844208D0DFF8EC02844204D0F1218C
:100F7000DFF8D402FFF7D9FA2868002804D02868DF
:100F8000DFF8C812884204D3F221DFF8BC02FFF771
:100F9000CCFAA888002808D0A888B0F5805F04D0D3
:100FA000F321DFF8A402FFF7C0FAE888002810D088
:100FB000E888B0F5805F0CD0E888B0F5005F08D015
:100FC000E888B0F5405F04D0F421DFF87C02FFF739
:100FD000ACFA288900280CD02889B0F5806F08D099
:100FE0002889B0F5C06F04D0F521DFF85C02FFF767
:100FF0009CFA68894FF6F371084202D1688900288B
:1010000004D1F621DFF84002FFF78FFAA889002803
:1010100013D0A8894FF4807188420ED0A8894FF46C
:101020000071884209D0A8894FF44071884204D0E9
:10103000F721DFF81402FFF778FAA889002814D006
:10104000DFF8F001844210D0DFF8EC0184420CD0CC
:10105000DFF8E801844208D0DFF8F801844204D0C8
:10106000FC21DFF8E401FFF760FA208A30F44050F9
:10107000E98808432082A089DFF8D4110840A988B4
:101080002A8911436A8911430843A081A08A30F458
:101090004070A9890843A08200A8FFF78BFADFF807
:1010A0009401844203D0DFF8AC01844201D103995A
:1010B00000E00299A089000407D5192000FB01F087
:1010C00029684900B0FBF1F206E0192000FB01F0AD
:1010D00029688900B0FBF1F26420B2FBF0F0000156
:1010E0000109642303FB1123A189090408D5D90050
:1010F00032316422B1FBF2F111F00701084307E03D
:10110000190132316422B1FBF2F111F00F010843F1
:1011100020817FBD38B504000D00DFF8180184423E
:1011200019D0DFF81401844215D0DFF81001844291
:1011300011D0DFF80C0184420DD0DFF808018442A1
:1011400009D0DFF81001844205D040F2A111DFF888
:10115000F800FFF7EAF9EDB2002D08D0EDB2012D4D
:1011600005D04FF4D171DFF8E000FFF7DEF9EDB202
:10117000002D04D0A08950F40050A08104E0A08983
:101180004DF6FF710840A08131BD38B504000D0057
:10119000DFF8A000844219D0DFF89C00844215D00B
:1011A000DFF89800844211D0DFF8940084420DD01B
:1011B000DFF89000844209D0DFF89800844205D01F
:1011C00040F22321DFF88000FFF7AFF94FF4007001
:1011D000ADB2854205D34FF40971DFF86C00FFF71B
:1011E000A4F9E805C00DA08031BD10B50400DFF8FA
:1011F0004400844219D0DFF84000844215D0DFF863
:101200003C00844211D0DFF8380084420DD0DFF872
:101210003400844209D0DFF83C00844205D040F21B
:101220003321DFF82400FFF780F9A088C005C00D46
:1012300010BD000000100140004400400048004084
:10124000004C00400050004040180008E17072005F
:10125000F3E9FFFF0014014038B504000D00002041
:10126000DFF8C0108C4218D0DFF8BC00844214D0E4
:10127000DFF8B800844210D0DFF8B80084420CD008
:10128000DFF8B400844208D0DFF8B000844204D014
:1012900040F202512648FFF748F9ADB2012D23D0A4
:1012A000ADB2802D20D0ADB2402D1DD0ADB2202DDD
:1012B0001AD0ADB2102D17D04FF48070ADB2854268
:1012C00012D04FF40070ADB285420DD0ADB2082DF2
:1012D0000AD0ADB2042D07D0ADB2022D04D040F239
:1012E00003511348FFF721F94FF40070ADB2854266
:1012F00010D10C4884420DD00B4884420AD00B48D0
:10130000844207D00D48844204D04FF4A1610848BC
:10131000FFF70BF92088284201D0012000E00020CF
:10132000C0B232BD001001400044004000480040FF
:1013300040180008004C00400050004000140140DC
:101340000EB400B582B003A9009100AB02460121A2
:10135000034878440A3000F005F806BC5DF810FB3D
:101360006D0800002DE9F04784B081468846144698
:101370001E460DF1000A04E014F8011B4046C84760
:101380008046207810B904B0BDE8F0872528F3D155
:10139000641C14F8015B252D6FD0582D51D0632D9E
:1013A0000ED0642D18BF692D10D06F2D49D0702D2F
:1013B0004CD0732D50D0752D18BF782D41D0E0E75B
:1013C0003068011D31600168C9B2D7E73068011D7E
:1013D00031600768002F03D52D214046C84780465D
:1013E0006F2D08BF082105D045F02000782814BFD4
:1013F0000A2110210B203A46642D02D1002F48BF4C
:101400005242431E1846B2FBF1FC01FB1C22303253
:10141000D2B23A2A24BFA5F1510E724403F80A2031
:1014200062460AB10128ECDAC0F10B0500A94718A1
:101430004046002DA4D017F8011BC8476D1EFAD1F5
:101440009EE73068011D31600768C9E73068011DFB
:10145000316007687825C3E73068011D3160056891
:10146000284600F023F807464046002F88D015F89C
:10147000011BC8477F1EFAD182E725217EE710B401
:1014800050F8041B81B102681218001D50F8043B8B
:10149000DC0744BFA9F10104E31852F8044B43F8F8
:1014A000044B091FF9D1EBE710BC704700F10103B1
:1014B000810704D010F8011B89B18107FAD10268B5
:1014C000B2F10131914311F0803F04BF50F8042F75
:1014D000F6E710F8011B11B110F8011BFBE7C01A69
:1014E000704750F8041B61B150F8042BD30744BF78
:1014F000A9F101039A18002342F8043B091FFAD10D
:10150000EFE7704780B53F48006850F001003D4963
:1015100008603D48002101603A4800683B490840A6
:10152000384908603A483B4901603648006830F461
:1015300080203449086038480021016000F005F837
:1015400036485FF00061016001BD82B0002001906B
:10155000002000902B48006850F480302949086032
:101560002848006810F4003000900198401C019059
:101570000098002803D10198B0F5A06FF0D1214860
:101580000068800302D50120009001E00020009057
:101590000098012832D11C481B49096801601A488B
:1015A000006850F40040184908601748006850F47B
:1015B000A050154908601648194901601148006893
:1015C00050F080700F4908600E4800688001FBD51C
:1015D000144840F2037101600B48006880088000E5
:1015E000094908600848006850F002000649086090
:1015F0000548006810F00C000828F9D102B07047C7
:10160000000000000038024008380240FFFFF6FEEC
:1016100004380240103000240C38024008ED00E08D
:10162000193C4005003C0240304800680A302F4910
:101630000860704700B585B000A8FEF7BBFF0099B1
:101640002B48FFF77DFE01992A48FFF779FE0299A2
:101650002948FFF775FE03992848FFF771FE05B08A
:1016600000BD10B5FEF7E4FEFEF705FFFEF7C6FE6F
:101670002348FFF765FE234A23492448FFF760FE0D
:10168000FEF703FF2248FFF75BFE2248FFF758FEF4
:101690002148FFF755FE2148FFF752FE2048FFF78B
:1016A0004FFE1E48FFF74CFE1E48FFF749FE1B4841
:1016B000FFF746FE1C48FFF743FEFEF717FF040046
:1016C0001A48FFF73DFEE4B2302C04D009D3322C87
:1016D00007D003D305E0FFF7ADFF02E000F078F894
:1016E000FFE7E4B2782CD0D1002010BDCC00002060
:1016F000E41A0008FC1A0008141B00082C1B000840
:10170000AC1A0008581C00084C1C0008C81A000835
:101710008C1A0008441B0008001C00085C1B000811
:10172000741B0008101C0008641C0008201C000822
:1017300001B402E00098401E009000980028F9D102
:1017400001B0704780B50248FFF7F2FF01BD00000D
:10175000FFFF4F0080B50020FEF77EFE0120FEF760
:101760007BFE0220FEF778FE01BD80B50020FEF76B
:1017700078FE0120FEF775FE0220FEF772FE01BD25
:1017800010B5040021E00020FEF76BFE0120FEF7FB
:1017900063FE0220FEF760FEFFF7D4FF0020FEF795
:1017A0005BFE0120FEF75DFE0220FEF755FEFFF70F
:1017B000C9FF0020FEF750FE0120FEF74DFE02207B
:1017C000FEF74FFEFFF7BEFF641E002CDBD110BDFD
:1017D00080B5FFF7BFFFFFF7B5FFFFF7C6FFFFF7C5
:1017E000B1FF0220FFF7CCFF01BD0404443A5C576F
:1017F0006B2E5372635C4D616E676F2D4D333246B5
:10180000325C4C69627261726965735C53544D332A
:1018100032463278785F5374645065726970685FDD
:101820004472697665725C7372635C73746D333293
:10183000663278785F7379736366672E63000000A1
:10184000443A5C576B2E5372635C4D616E676F2D2B
:101850004D333246325C4C69627261726965735C09
:1018600053544D3332463278785F53746450657206
:101870006970685F4472697665725C7372635C73E9
:10188000746D3332663278785F75736172742E636B
:1018900000000000443A5C576B2E5372635C4D614C
:1018A0006E676F2D4D333246325C4C6962726172E5
:1018B0006965735C53544D3332463278785F5374A4
:1018C000645065726970685F4472697665725C73B2
:1018D00072635C73746D3332663278785F657874E6
:1018E000692E6300443A5C576B2E5372635C4D6102
:1018F0006E676F2D4D333246325C4C696272617295
:101900006965735C53544D3332463278785F537453
:10191000645065726970685F4472697665725C7361
:1019200072635C73746D3332663278785F677069A6
:101930006F2E6300443A5C576B2E5372635C4D61AB
:101940006E676F2D4D333246325C4C696272617244
:101950006965735C53544D3332463278785F537403
:10196000645065726970685F4472697665725C7311
:1019700072635C73746D3332663278785F7263635E
:101980002E6300007047FEE7FEE7FEE7FEE77047C4
:101990007047704780B5FFF747FE01BD80B54FF433
:1019A0000060FFF7DEF9002806D00020FEF75EFD9C
:1019B0004FF40060FFF72CFA4FF48050FFF7D1F995
:1019C000002806D00120FEF751FD4FF48050FFF7AC
:1019D0001FFA01BD443A5C576B2E5372635C4D6134
:1019E0006E676F2D4D333246325C4C6962726172A4
:1019F0006965735C53544D3332463278785F537463
:101A0000645065726970685F4472697665725C7370
:101A100072635C6D6973632E6300000010B5084942
:101A200079441C31074C7C441A34A14206D0081D6D
:101A30000A68511888470146A142F8D110BD00BF7D
:101A400008000000280000009BFAFFFF540000007F
:101A50007C0000200000000027FAFFFF7C0000004F
:101A6000C403000000000020000000004552524F57
:101A700052202121202573202D2046696C653A25AE
:101A8000732C204C696E653A25640A0053797354AF
:101A900069636B5F496E697469616C697A617469C5
:101AA0006F6E20646F6E652E0A0000005553415220
:101AB000545F496E697469616C697A6174696F6EAB
:101AC00020646F6E652E0A004D616E676F2D4D3379
:101AD0003246322054657374202D2025732C202526
:101AE000730A0000535953434C4B5F46726571753E
:101AF000656E6379203D2025640A000048434C4B05
:101B00005F4672657175656E6379203D2025640AB4
:101B10000000000050434C4B315F467265717565A3
:101B20006E6379203D2025640A00000050434C4B31
:101B3000325F4672657175656E6379203D2025645C
:101B40000A0000000A2D2D2D2D2D2D2D2D2D2D2D92
:101B50002D2D2D2D2D2D2D2D2D2D0A002D2D2D2D05
:101B60002D2D2D2D2D2D2D2D2D2D2D2D2D2D2D2DA5
:101B70002D0A0000303E2053797374656D20496E44
:101B8000666F726D6174696F6E0A000000F009F88B
:101B9000002801D0FFF742FF0020FFF762FD00F0B0
:101BA00002F80120704700F001B80B0C07463846D8
:101BB00000F002F8FBE7282880B5C046C046024A7C
:101BC00011001820ABBEFBE72600020038B5044622
:101BD0000D46284600F006F8A84218BF002420460B
:101BE00032BD060A0149FEF760BC00BF00000020BC
:101BF0006173736572745F6661696C65640000008F
:101C00005072657373206D656E75206B65790A007F
:101C1000313E2054657374204C45440A0000000096
:101C20002069732073656C65637465640A0A00003B
:101C3000014880470148004705150008711C00084D
:101C40001000000010000000100000004A756E2017
:101C5000313220323031320031333A32383A34388E
:101C600000000000783E20717569740A0A000000C7
:101C7000C046C046C046C046FFF788FF002000406F
:101C800000800000100000001000000010000000A4
:101C90000000040002000000040000000200000038
:101CA00004000000000800100008001040000004BC
:101CB00080000008FFF766BEFFF765BEFFF764BE51
:101CC000FFF763BEFFF762BEFFF761BEFFF760BEBE
:101CD000FFF75FBEFFF75EBEFFF7FEBFFFF7FEBF79
:101CE000FFF7FEBFFFF7FEBFFFF7FEBFFFF7FEBF28
:101CF000FFF7FEBFFFF7FEBFFFF7FEBFFFF7FEBF18
:101D0000FFF7FEBFFFF7FEBFFFF7FEBFFFF7FEBF07
:101D1000FFF7FEBFFFF7FEBFFFF7FEBFFFF7FEBFF7
:101D2000FFF7FEBFFFF7FEBFFFF7FEBFFFF7FEBFE7
:101D3000FFF7FEBFFFF7FEBFFFF7FEBFFFF7FEBFD7
:101D4000FFF7FEBFFFF7FEBFFFF7FEBFFFF7FEBFC7
:101D5000FFF7FEBFFFF7FEBFFFF7FEBFFFF7FEBFB7
:101D6000FFF7FEBFFFF7FEBFFFF7FEBFFFF7FEBFA7
:101D7000FFF7FEBFFFF7FEBFFFF710BEFFF7FEBF86
:101D8000FFF7FEBFFFF7FEBFFFF7FEBFFFF7FEBF87
:101D9000FFF7FEBFFFF7FEBFFFF7FEBFFFF7FEBF77
:101DA000FFF7FEBFFFF7FEBFFFF7FEBFFFF7FEBF67
:101DB000FFF7FEBFFFF7FEBFFFF7FEBFFFF7FEBF57
:101DC000FFF7FEBFFFF7FEBFFFF7FEBFFFF7FEBF47
:101DD000FFF7FEBFFFF7FEBFFFF7FEBFFFF7FEBF37
:101DE000FFF7FEBFFFF7FEBFFFF7FEBFFFF7FEBF27
:101DF000FFF7FEBFFFF7FEBFFFF7FEBFFFF7FEBF17
:101E0000FFF7FEBFFFF7FEBFFFF7FEBFFFF7FEBF06
:101E1000FFF7FEBFFFF7FEBFFFF7FEBF070B070789
:101E200007070000020401017C000020CC00002014
:101E30007C0000207C0000207C0000203D00002071
:101E4000240000200000000000000000000000004E
:101E50000000000000000000000000000000000082
:101E6000000000000000000001020304010203045E
:101E7000060708090010024000100240001002404E
:101E800000100240001002400010014000480040D5
:101E90000004024000080240000402400008024022
:0400000508001C7162
:00000001FF
